{
	"contracts/17struct.sol": {
		"demo": {
			"abi": [
				{
					"inputs": [
						{
							"internalType": "string",
							"name": "_name",
							"type": "string"
						},
						{
							"internalType": "uint256",
							"name": "_roll",
							"type": "uint256"
						},
						{
							"internalType": "bool",
							"name": "_pass",
							"type": "bool"
						}
					],
					"name": "insert",
					"outputs": [],
					"stateMutability": "nonpayable",
					"type": "function"
				},
				{
					"inputs": [],
					"name": "name",
					"outputs": [
						{
							"internalType": "string",
							"name": "",
							"type": "string"
						}
					],
					"stateMutability": "view",
					"type": "function"
				},
				{
					"inputs": [],
					"name": "s1",
					"outputs": [
						{
							"internalType": "string",
							"name": "name",
							"type": "string"
						},
						{
							"internalType": "uint256",
							"name": "roll",
							"type": "uint256"
						},
						{
							"internalType": "bool",
							"name": "pass",
							"type": "bool"
						}
					],
					"stateMutability": "view",
					"type": "function"
				},
				{
					"inputs": [],
					"name": "structReturns",
					"outputs": [
						{
							"components": [
								{
									"internalType": "string",
									"name": "name",
									"type": "string"
								},
								{
									"internalType": "uint256",
									"name": "roll",
									"type": "uint256"
								},
								{
									"internalType": "bool",
									"name": "pass",
									"type": "bool"
								}
							],
							"internalType": "struct demo.student",
							"name": "",
							"type": "tuple"
						}
					],
					"stateMutability": "view",
					"type": "function"
				}
			],
			"devdoc": {
				"kind": "dev",
				"methods": {},
				"version": 1
			},
			"evm": {
				"assembly": "    /* \"contracts/17struct.sol\":72:597  contract demo{... */\n  mstore(0x40, 0x80)\n  callvalue\n  dup1\n  iszero\n  tag_1\n  jumpi\n  0x00\n  dup1\n  revert\ntag_1:\n  pop\n  dataSize(sub_0)\n  dup1\n  dataOffset(sub_0)\n  0x00\n  codecopy\n  0x00\n  return\nstop\n\nsub_0: assembly {\n        /* \"contracts/17struct.sol\":72:597  contract demo{... */\n      mstore(0x40, 0x80)\n      callvalue\n      dup1\n      iszero\n      tag_1\n      jumpi\n      0x00\n      dup1\n      revert\n    tag_1:\n      pop\n      jumpi(tag_2, lt(calldatasize, 0x04))\n      shr(0xe0, calldataload(0x00))\n      dup1\n      0x06fdde03\n      eq\n      tag_3\n      jumpi\n      dup1\n      0x3a62251a\n      eq\n      tag_4\n      jumpi\n      dup1\n      0x6cc014de\n      eq\n      tag_5\n      jumpi\n      dup1\n      0xc30655a2\n      eq\n      tag_6\n      jumpi\n    tag_2:\n      0x00\n      dup1\n      revert\n        /* \"contracts/17struct.sol\":407:490  function name() public view returns(string memory){... */\n    tag_3:\n      tag_7\n      tag_8\n      jump\t// in\n    tag_7:\n      mload(0x40)\n      tag_9\n      swap2\n      swap1\n      tag_10\n      jump\t// in\n    tag_9:\n      mload(0x40)\n      dup1\n      swap2\n      sub\n      swap1\n      return\n        /* \"contracts/17struct.sol\":496:584  function structReturns() public view returns(student memory){... */\n    tag_4:\n      tag_11\n      tag_12\n      jump\t// in\n    tag_11:\n      mload(0x40)\n      tag_13\n      swap2\n      swap1\n      tag_14\n      jump\t// in\n    tag_13:\n      mload(0x40)\n      dup1\n      swap2\n      sub\n      swap1\n      return\n        /* \"contracts/17struct.sol\":169:186  student public s1 */\n    tag_5:\n      tag_15\n      tag_16\n      jump\t// in\n    tag_15:\n      mload(0x40)\n      tag_17\n      swap4\n      swap3\n      swap2\n      swap1\n      tag_18\n      jump\t// in\n    tag_17:\n      mload(0x40)\n      dup1\n      swap2\n      sub\n      swap1\n      return\n        /* \"contracts/17struct.sol\":193:401  function insert(string memory _name, uint _roll, bool _pass) public{... */\n    tag_6:\n      tag_19\n      0x04\n      dup1\n      calldatasize\n      sub\n      dup2\n      add\n      swap1\n      tag_20\n      swap2\n      swap1\n      tag_21\n      jump\t// in\n    tag_20:\n      tag_22\n      jump\t// in\n    tag_19:\n      stop\n        /* \"contracts/17struct.sol\":407:490  function name() public view returns(string memory){... */\n    tag_8:\n        /* \"contracts/17struct.sol\":443:456  string memory */\n      0x60\n        /* \"contracts/17struct.sol\":475:477  s1 */\n      0x00\n        /* \"contracts/17struct.sol\":475:482  s1.name */\n      dup1\n      add\n        /* \"contracts/17struct.sol\":468:482  return s1.name */\n      dup1\n      sload\n      tag_24\n      swap1\n      tag_25\n      jump\t// in\n    tag_24:\n      dup1\n      0x1f\n      add\n      0x20\n      dup1\n      swap2\n      div\n      mul\n      0x20\n      add\n      mload(0x40)\n      swap1\n      dup2\n      add\n      0x40\n      mstore\n      dup1\n      swap3\n      swap2\n      swap1\n      dup2\n      dup2\n      mstore\n      0x20\n      add\n      dup3\n      dup1\n      sload\n      tag_26\n      swap1\n      tag_25\n      jump\t// in\n    tag_26:\n      dup1\n      iszero\n      tag_27\n      jumpi\n      dup1\n      0x1f\n      lt\n      tag_28\n      jumpi\n      0x0100\n      dup1\n      dup4\n      sload\n      div\n      mul\n      dup4\n      mstore\n      swap2\n      0x20\n      add\n      swap2\n      jump(tag_27)\n    tag_28:\n      dup3\n      add\n      swap2\n      swap1\n      0x00\n      mstore\n      keccak256(0x00, 0x20)\n      swap1\n    tag_29:\n      dup2\n      sload\n      dup2\n      mstore\n      swap1\n      0x01\n      add\n      swap1\n      0x20\n      add\n      dup1\n      dup4\n      gt\n      tag_29\n      jumpi\n      dup3\n      swap1\n      sub\n      0x1f\n      and\n      dup3\n      add\n      swap2\n    tag_27:\n      pop\n      pop\n      pop\n      pop\n      pop\n      swap1\n      pop\n        /* \"contracts/17struct.sol\":407:490  function name() public view returns(string memory){... */\n      swap1\n      jump\t// out\n        /* \"contracts/17struct.sol\":496:584  function structReturns() public view returns(student memory){... */\n    tag_12:\n        /* \"contracts/17struct.sol\":541:555  student memory */\n      tag_30\n      tag_31\n      jump\t// in\n    tag_30:\n        /* \"contracts/17struct.sol\":574:576  s1 */\n      0x00\n        /* \"contracts/17struct.sol\":567:576  return s1 */\n      mload(0x40)\n      dup1\n      0x60\n      add\n      0x40\n      mstore\n      swap1\n      dup2\n      0x00\n      dup3\n      add\n      dup1\n      sload\n      tag_33\n      swap1\n      tag_25\n      jump\t// in\n    tag_33:\n      dup1\n      0x1f\n      add\n      0x20\n      dup1\n      swap2\n      div\n      mul\n      0x20\n      add\n      mload(0x40)\n      swap1\n      dup2\n      add\n      0x40\n      mstore\n      dup1\n      swap3\n      swap2\n      swap1\n      dup2\n      dup2\n      mstore\n      0x20\n      add\n      dup3\n      dup1\n      sload\n      tag_34\n      swap1\n      tag_25\n      jump\t// in\n    tag_34:\n      dup1\n      iszero\n      tag_35\n      jumpi\n      dup1\n      0x1f\n      lt\n      tag_36\n      jumpi\n      0x0100\n      dup1\n      dup4\n      sload\n      div\n      mul\n      dup4\n      mstore\n      swap2\n      0x20\n      add\n      swap2\n      jump(tag_35)\n    tag_36:\n      dup3\n      add\n      swap2\n      swap1\n      0x00\n      mstore\n      keccak256(0x00, 0x20)\n      swap1\n    tag_37:\n      dup2\n      sload\n      dup2\n      mstore\n      swap1\n      0x01\n      add\n      swap1\n      0x20\n      add\n      dup1\n      dup4\n      gt\n      tag_37\n      jumpi\n      dup3\n      swap1\n      sub\n      0x1f\n      and\n      dup3\n      add\n      swap2\n    tag_35:\n      pop\n      pop\n      pop\n      pop\n      pop\n      dup2\n      mstore\n      0x20\n      add\n      0x01\n      dup3\n      add\n      sload\n      dup2\n      mstore\n      0x20\n      add\n      0x02\n      dup3\n      add\n      0x00\n      swap1\n      sload\n      swap1\n      0x0100\n      exp\n      swap1\n      div\n      0xff\n      and\n      iszero\n      iszero\n      iszero\n      iszero\n      dup2\n      mstore\n      pop\n      pop\n      swap1\n      pop\n        /* \"contracts/17struct.sol\":496:584  function structReturns() public view returns(student memory){... */\n      swap1\n      jump\t// out\n        /* \"contracts/17struct.sol\":169:186  student public s1 */\n    tag_16:\n      0x00\n      dup1\n      0x00\n      add\n      dup1\n      sload\n      tag_38\n      swap1\n      tag_25\n      jump\t// in\n    tag_38:\n      dup1\n      0x1f\n      add\n      0x20\n      dup1\n      swap2\n      div\n      mul\n      0x20\n      add\n      mload(0x40)\n      swap1\n      dup2\n      add\n      0x40\n      mstore\n      dup1\n      swap3\n      swap2\n      swap1\n      dup2\n      dup2\n      mstore\n      0x20\n      add\n      dup3\n      dup1\n      sload\n      tag_39\n      swap1\n      tag_25\n      jump\t// in\n    tag_39:\n      dup1\n      iszero\n      tag_40\n      jumpi\n      dup1\n      0x1f\n      lt\n      tag_41\n      jumpi\n      0x0100\n      dup1\n      dup4\n      sload\n      div\n      mul\n      dup4\n      mstore\n      swap2\n      0x20\n      add\n      swap2\n      jump(tag_40)\n    tag_41:\n      dup3\n      add\n      swap2\n      swap1\n      0x00\n      mstore\n      keccak256(0x00, 0x20)\n      swap1\n    tag_42:\n      dup2\n      sload\n      dup2\n      mstore\n      swap1\n      0x01\n      add\n      swap1\n      0x20\n      add\n      dup1\n      dup4\n      gt\n      tag_42\n      jumpi\n      dup3\n      swap1\n      sub\n      0x1f\n      and\n      dup3\n      add\n      swap2\n    tag_40:\n      pop\n      pop\n      pop\n      pop\n      pop\n      swap1\n      dup1\n      0x01\n      add\n      sload\n      swap1\n      dup1\n      0x02\n      add\n      0x00\n      swap1\n      sload\n      swap1\n      0x0100\n      exp\n      swap1\n      div\n      0xff\n      and\n      swap1\n      pop\n      dup4\n      jump\t// out\n        /* \"contracts/17struct.sol\":193:401  function insert(string memory _name, uint _roll, bool _pass) public{... */\n    tag_22:\n        /* \"contracts/17struct.sol\":365:393  student(_name, _roll, _pass) */\n      mload(0x40)\n      dup1\n      0x60\n      add\n      0x40\n      mstore\n      dup1\n        /* \"contracts/17struct.sol\":373:378  _name */\n      dup5\n        /* \"contracts/17struct.sol\":365:393  student(_name, _roll, _pass) */\n      dup2\n      mstore\n      0x20\n      add\n        /* \"contracts/17struct.sol\":380:385  _roll */\n      dup4\n        /* \"contracts/17struct.sol\":365:393  student(_name, _roll, _pass) */\n      dup2\n      mstore\n      0x20\n      add\n        /* \"contracts/17struct.sol\":387:392  _pass */\n      dup3\n        /* \"contracts/17struct.sol\":365:393  student(_name, _roll, _pass) */\n      iszero\n      iszero\n      dup2\n      mstore\n      pop\n        /* \"contracts/17struct.sol\":360:362  s1 */\n      0x00\n        /* \"contracts/17struct.sol\":360:393  s1 = student(_name, _roll, _pass) */\n      dup1\n      dup3\n      add\n      mload\n      dup2\n      0x00\n      add\n      swap1\n      dup2\n      tag_44\n      swap2\n      swap1\n      tag_45\n      jump\t// in\n    tag_44:\n      pop\n      0x20\n      dup3\n      add\n      mload\n      dup2\n      0x01\n      add\n      sstore\n      0x40\n      dup3\n      add\n      mload\n      dup2\n      0x02\n      add\n      exp(0x0100, 0x00)\n      dup2\n      sload\n      dup2\n      0xff\n      mul\n      not\n      and\n      swap1\n      dup4\n      iszero\n      iszero\n      mul\n      or\n      swap1\n      sstore\n      pop\n      swap1\n      pop\n      pop\n        /* \"contracts/17struct.sol\":193:401  function insert(string memory _name, uint _roll, bool _pass) public{... */\n      pop\n      pop\n      pop\n      jump\t// out\n    tag_31:\n      mload(0x40)\n      dup1\n      0x60\n      add\n      0x40\n      mstore\n      dup1\n      0x60\n      dup2\n      mstore\n      0x20\n      add\n      0x00\n      dup2\n      mstore\n      0x20\n      add\n      iszero(iszero(0x00))\n      dup2\n      mstore\n      pop\n      swap1\n      jump\t// out\n        /* \"#utility.yul\":7:106   */\n    tag_46:\n        /* \"#utility.yul\":59:65   */\n      0x00\n        /* \"#utility.yul\":93:98   */\n      dup2\n        /* \"#utility.yul\":87:99   */\n      mload\n        /* \"#utility.yul\":77:99   */\n      swap1\n      pop\n        /* \"#utility.yul\":7:106   */\n      swap2\n      swap1\n      pop\n      jump\t// out\n        /* \"#utility.yul\":112:281   */\n    tag_47:\n        /* \"#utility.yul\":196:207   */\n      0x00\n        /* \"#utility.yul\":230:236   */\n      dup3\n        /* \"#utility.yul\":225:228   */\n      dup3\n        /* \"#utility.yul\":218:237   */\n      mstore\n        /* \"#utility.yul\":270:274   */\n      0x20\n        /* \"#utility.yul\":265:268   */\n      dup3\n        /* \"#utility.yul\":261:275   */\n      add\n        /* \"#utility.yul\":246:275   */\n      swap1\n      pop\n        /* \"#utility.yul\":112:281   */\n      swap3\n      swap2\n      pop\n      pop\n      jump\t// out\n        /* \"#utility.yul\":287:533   */\n    tag_48:\n        /* \"#utility.yul\":368:369   */\n      0x00\n        /* \"#utility.yul\":378:491   */\n    tag_96:\n        /* \"#utility.yul\":392:398   */\n      dup4\n        /* \"#utility.yul\":389:390   */\n      dup2\n        /* \"#utility.yul\":386:399   */\n      lt\n        /* \"#utility.yul\":378:491   */\n      iszero\n      tag_98\n      jumpi\n        /* \"#utility.yul\":477:478   */\n      dup1\n        /* \"#utility.yul\":472:475   */\n      dup3\n        /* \"#utility.yul\":468:479   */\n      add\n        /* \"#utility.yul\":462:480   */\n      mload\n        /* \"#utility.yul\":458:459   */\n      dup2\n        /* \"#utility.yul\":453:456   */\n      dup5\n        /* \"#utility.yul\":449:460   */\n      add\n        /* \"#utility.yul\":442:481   */\n      mstore\n        /* \"#utility.yul\":414:416   */\n      0x20\n        /* \"#utility.yul\":411:412   */\n      dup2\n        /* \"#utility.yul\":407:417   */\n      add\n        /* \"#utility.yul\":402:417   */\n      swap1\n      pop\n        /* \"#utility.yul\":378:491   */\n      jump(tag_96)\n    tag_98:\n        /* \"#utility.yul\":525:526   */\n      0x00\n        /* \"#utility.yul\":516:522   */\n      dup5\n        /* \"#utility.yul\":511:514   */\n      dup5\n        /* \"#utility.yul\":507:523   */\n      add\n        /* \"#utility.yul\":500:527   */\n      mstore\n        /* \"#utility.yul\":349:533   */\n      pop\n        /* \"#utility.yul\":287:533   */\n      pop\n      pop\n      pop\n      jump\t// out\n        /* \"#utility.yul\":539:641   */\n    tag_49:\n        /* \"#utility.yul\":580:586   */\n      0x00\n        /* \"#utility.yul\":631:633   */\n      0x1f\n        /* \"#utility.yul\":627:634   */\n      not\n        /* \"#utility.yul\":622:624   */\n      0x1f\n        /* \"#utility.yul\":615:620   */\n      dup4\n        /* \"#utility.yul\":611:625   */\n      add\n        /* \"#utility.yul\":607:635   */\n      and\n        /* \"#utility.yul\":597:635   */\n      swap1\n      pop\n        /* \"#utility.yul\":539:641   */\n      swap2\n      swap1\n      pop\n      jump\t// out\n        /* \"#utility.yul\":647:1024   */\n    tag_50:\n        /* \"#utility.yul\":735:738   */\n      0x00\n        /* \"#utility.yul\":763:802   */\n      tag_101\n        /* \"#utility.yul\":796:801   */\n      dup3\n        /* \"#utility.yul\":763:802   */\n      tag_46\n      jump\t// in\n    tag_101:\n        /* \"#utility.yul\":818:889   */\n      tag_102\n        /* \"#utility.yul\":882:888   */\n      dup2\n        /* \"#utility.yul\":877:880   */\n      dup6\n        /* \"#utility.yul\":818:889   */\n      tag_47\n      jump\t// in\n    tag_102:\n        /* \"#utility.yul\":811:889   */\n      swap4\n      pop\n        /* \"#utility.yul\":898:963   */\n      tag_103\n        /* \"#utility.yul\":956:962   */\n      dup2\n        /* \"#utility.yul\":951:954   */\n      dup6\n        /* \"#utility.yul\":944:948   */\n      0x20\n        /* \"#utility.yul\":937:942   */\n      dup7\n        /* \"#utility.yul\":933:949   */\n      add\n        /* \"#utility.yul\":898:963   */\n      tag_48\n      jump\t// in\n    tag_103:\n        /* \"#utility.yul\":988:1017   */\n      tag_104\n        /* \"#utility.yul\":1010:1016   */\n      dup2\n        /* \"#utility.yul\":988:1017   */\n      tag_49\n      jump\t// in\n    tag_104:\n        /* \"#utility.yul\":983:986   */\n      dup5\n        /* \"#utility.yul\":979:1018   */\n      add\n        /* \"#utility.yul\":972:1018   */\n      swap2\n      pop\n        /* \"#utility.yul\":739:1024   */\n      pop\n        /* \"#utility.yul\":647:1024   */\n      swap3\n      swap2\n      pop\n      pop\n      jump\t// out\n        /* \"#utility.yul\":1030:1343   */\n    tag_10:\n        /* \"#utility.yul\":1143:1147   */\n      0x00\n        /* \"#utility.yul\":1181:1183   */\n      0x20\n        /* \"#utility.yul\":1170:1179   */\n      dup3\n        /* \"#utility.yul\":1166:1184   */\n      add\n        /* \"#utility.yul\":1158:1184   */\n      swap1\n      pop\n        /* \"#utility.yul\":1230:1239   */\n      dup2\n        /* \"#utility.yul\":1224:1228   */\n      dup2\n        /* \"#utility.yul\":1220:1240   */\n      sub\n        /* \"#utility.yul\":1216:1217   */\n      0x00\n        /* \"#utility.yul\":1205:1214   */\n      dup4\n        /* \"#utility.yul\":1201:1218   */\n      add\n        /* \"#utility.yul\":1194:1241   */\n      mstore\n        /* \"#utility.yul\":1258:1336   */\n      tag_106\n        /* \"#utility.yul\":1331:1335   */\n      dup2\n        /* \"#utility.yul\":1322:1328   */\n      dup5\n        /* \"#utility.yul\":1258:1336   */\n      tag_50\n      jump\t// in\n    tag_106:\n        /* \"#utility.yul\":1250:1336   */\n      swap1\n      pop\n        /* \"#utility.yul\":1030:1343   */\n      swap3\n      swap2\n      pop\n      pop\n      jump\t// out\n        /* \"#utility.yul\":1349:1508   */\n    tag_51:\n        /* \"#utility.yul\":1423:1434   */\n      0x00\n        /* \"#utility.yul\":1457:1463   */\n      dup3\n        /* \"#utility.yul\":1452:1455   */\n      dup3\n        /* \"#utility.yul\":1445:1464   */\n      mstore\n        /* \"#utility.yul\":1497:1501   */\n      0x20\n        /* \"#utility.yul\":1492:1495   */\n      dup3\n        /* \"#utility.yul\":1488:1502   */\n      add\n        /* \"#utility.yul\":1473:1502   */\n      swap1\n      pop\n        /* \"#utility.yul\":1349:1508   */\n      swap3\n      swap2\n      pop\n      pop\n      jump\t// out\n        /* \"#utility.yul\":1514:1871   */\n    tag_52:\n        /* \"#utility.yul\":1592:1595   */\n      0x00\n        /* \"#utility.yul\":1620:1659   */\n      tag_109\n        /* \"#utility.yul\":1653:1658   */\n      dup3\n        /* \"#utility.yul\":1620:1659   */\n      tag_46\n      jump\t// in\n    tag_109:\n        /* \"#utility.yul\":1675:1736   */\n      tag_110\n        /* \"#utility.yul\":1729:1735   */\n      dup2\n        /* \"#utility.yul\":1724:1727   */\n      dup6\n        /* \"#utility.yul\":1675:1736   */\n      tag_51\n      jump\t// in\n    tag_110:\n        /* \"#utility.yul\":1668:1736   */\n      swap4\n      pop\n        /* \"#utility.yul\":1745:1810   */\n      tag_111\n        /* \"#utility.yul\":1803:1809   */\n      dup2\n        /* \"#utility.yul\":1798:1801   */\n      dup6\n        /* \"#utility.yul\":1791:1795   */\n      0x20\n        /* \"#utility.yul\":1784:1789   */\n      dup7\n        /* \"#utility.yul\":1780:1796   */\n      add\n        /* \"#utility.yul\":1745:1810   */\n      tag_48\n      jump\t// in\n    tag_111:\n        /* \"#utility.yul\":1835:1864   */\n      tag_112\n        /* \"#utility.yul\":1857:1863   */\n      dup2\n        /* \"#utility.yul\":1835:1864   */\n      tag_49\n      jump\t// in\n    tag_112:\n        /* \"#utility.yul\":1830:1833   */\n      dup5\n        /* \"#utility.yul\":1826:1865   */\n      add\n        /* \"#utility.yul\":1819:1865   */\n      swap2\n      pop\n        /* \"#utility.yul\":1596:1871   */\n      pop\n        /* \"#utility.yul\":1514:1871   */\n      swap3\n      swap2\n      pop\n      pop\n      jump\t// out\n        /* \"#utility.yul\":1877:1954   */\n    tag_53:\n        /* \"#utility.yul\":1914:1921   */\n      0x00\n        /* \"#utility.yul\":1943:1948   */\n      dup2\n        /* \"#utility.yul\":1932:1948   */\n      swap1\n      pop\n        /* \"#utility.yul\":1877:1954   */\n      swap2\n      swap1\n      pop\n      jump\t// out\n        /* \"#utility.yul\":1960:2068   */\n    tag_54:\n        /* \"#utility.yul\":2037:2061   */\n      tag_115\n        /* \"#utility.yul\":2055:2060   */\n      dup2\n        /* \"#utility.yul\":2037:2061   */\n      tag_53\n      jump\t// in\n    tag_115:\n        /* \"#utility.yul\":2032:2035   */\n      dup3\n        /* \"#utility.yul\":2025:2062   */\n      mstore\n        /* \"#utility.yul\":1960:2068   */\n      pop\n      pop\n      jump\t// out\n        /* \"#utility.yul\":2074:2164   */\n    tag_55:\n        /* \"#utility.yul\":2108:2115   */\n      0x00\n        /* \"#utility.yul\":2151:2156   */\n      dup2\n        /* \"#utility.yul\":2144:2157   */\n      iszero\n        /* \"#utility.yul\":2137:2158   */\n      iszero\n        /* \"#utility.yul\":2126:2158   */\n      swap1\n      pop\n        /* \"#utility.yul\":2074:2164   */\n      swap2\n      swap1\n      pop\n      jump\t// out\n        /* \"#utility.yul\":2170:2269   */\n    tag_56:\n        /* \"#utility.yul\":2241:2262   */\n      tag_118\n        /* \"#utility.yul\":2256:2261   */\n      dup2\n        /* \"#utility.yul\":2241:2262   */\n      tag_55\n      jump\t// in\n    tag_118:\n        /* \"#utility.yul\":2236:2239   */\n      dup3\n        /* \"#utility.yul\":2229:2263   */\n      mstore\n        /* \"#utility.yul\":2170:2269   */\n      pop\n      pop\n      jump\t// out\n        /* \"#utility.yul\":2325:3093   */\n    tag_57:\n        /* \"#utility.yul\":2438:2441   */\n      0x00\n        /* \"#utility.yul\":2474:2478   */\n      0x60\n        /* \"#utility.yul\":2469:2472   */\n      dup4\n        /* \"#utility.yul\":2465:2479   */\n      add\n        /* \"#utility.yul\":2561:2565   */\n      0x00\n        /* \"#utility.yul\":2554:2559   */\n      dup4\n        /* \"#utility.yul\":2550:2566   */\n      add\n        /* \"#utility.yul\":2544:2567   */\n      mload\n        /* \"#utility.yul\":2614:2617   */\n      dup5\n        /* \"#utility.yul\":2608:2612   */\n      dup3\n        /* \"#utility.yul\":2604:2618   */\n      sub\n        /* \"#utility.yul\":2597:2601   */\n      0x00\n        /* \"#utility.yul\":2592:2595   */\n      dup7\n        /* \"#utility.yul\":2588:2602   */\n      add\n        /* \"#utility.yul\":2581:2619   */\n      mstore\n        /* \"#utility.yul\":2640:2713   */\n      tag_120\n        /* \"#utility.yul\":2708:2712   */\n      dup3\n        /* \"#utility.yul\":2694:2706   */\n      dup3\n        /* \"#utility.yul\":2640:2713   */\n      tag_52\n      jump\t// in\n    tag_120:\n        /* \"#utility.yul\":2632:2713   */\n      swap2\n      pop\n        /* \"#utility.yul\":2489:2724   */\n      pop\n        /* \"#utility.yul\":2806:2810   */\n      0x20\n        /* \"#utility.yul\":2799:2804   */\n      dup4\n        /* \"#utility.yul\":2795:2811   */\n      add\n        /* \"#utility.yul\":2789:2812   */\n      mload\n        /* \"#utility.yul\":2825:2888   */\n      tag_121\n        /* \"#utility.yul\":2882:2886   */\n      0x20\n        /* \"#utility.yul\":2877:2880   */\n      dup7\n        /* \"#utility.yul\":2873:2887   */\n      add\n        /* \"#utility.yul\":2859:2871   */\n      dup3\n        /* \"#utility.yul\":2825:2888   */\n      tag_54\n      jump\t// in\n    tag_121:\n        /* \"#utility.yul\":2734:2898   */\n      pop\n        /* \"#utility.yul\":2980:2984   */\n      0x40\n        /* \"#utility.yul\":2973:2978   */\n      dup4\n        /* \"#utility.yul\":2969:2985   */\n      add\n        /* \"#utility.yul\":2963:2986   */\n      mload\n        /* \"#utility.yul\":2999:3056   */\n      tag_122\n        /* \"#utility.yul\":3050:3054   */\n      0x40\n        /* \"#utility.yul\":3045:3048   */\n      dup7\n        /* \"#utility.yul\":3041:3055   */\n      add\n        /* \"#utility.yul\":3027:3039   */\n      dup3\n        /* \"#utility.yul\":2999:3056   */\n      tag_56\n      jump\t// in\n    tag_122:\n        /* \"#utility.yul\":2908:3066   */\n      pop\n        /* \"#utility.yul\":3083:3087   */\n      dup1\n        /* \"#utility.yul\":3076:3087   */\n      swap2\n      pop\n        /* \"#utility.yul\":2443:3093   */\n      pop\n        /* \"#utility.yul\":2325:3093   */\n      swap3\n      swap2\n      pop\n      pop\n      jump\t// out\n        /* \"#utility.yul\":3099:3460   */\n    tag_14:\n        /* \"#utility.yul\":3236:3240   */\n      0x00\n        /* \"#utility.yul\":3274:3276   */\n      0x20\n        /* \"#utility.yul\":3263:3272   */\n      dup3\n        /* \"#utility.yul\":3259:3277   */\n      add\n        /* \"#utility.yul\":3251:3277   */\n      swap1\n      pop\n        /* \"#utility.yul\":3323:3332   */\n      dup2\n        /* \"#utility.yul\":3317:3321   */\n      dup2\n        /* \"#utility.yul\":3313:3333   */\n      sub\n        /* \"#utility.yul\":3309:3310   */\n      0x00\n        /* \"#utility.yul\":3298:3307   */\n      dup4\n        /* \"#utility.yul\":3294:3311   */\n      add\n        /* \"#utility.yul\":3287:3334   */\n      mstore\n        /* \"#utility.yul\":3351:3453   */\n      tag_124\n        /* \"#utility.yul\":3448:3452   */\n      dup2\n        /* \"#utility.yul\":3439:3445   */\n      dup5\n        /* \"#utility.yul\":3351:3453   */\n      tag_57\n      jump\t// in\n    tag_124:\n        /* \"#utility.yul\":3343:3453   */\n      swap1\n      pop\n        /* \"#utility.yul\":3099:3460   */\n      swap3\n      swap2\n      pop\n      pop\n      jump\t// out\n        /* \"#utility.yul\":3466:3584   */\n    tag_58:\n        /* \"#utility.yul\":3553:3577   */\n      tag_126\n        /* \"#utility.yul\":3571:3576   */\n      dup2\n        /* \"#utility.yul\":3553:3577   */\n      tag_53\n      jump\t// in\n    tag_126:\n        /* \"#utility.yul\":3548:3551   */\n      dup3\n        /* \"#utility.yul\":3541:3578   */\n      mstore\n        /* \"#utility.yul\":3466:3584   */\n      pop\n      pop\n      jump\t// out\n        /* \"#utility.yul\":3590:3699   */\n    tag_59:\n        /* \"#utility.yul\":3671:3692   */\n      tag_128\n        /* \"#utility.yul\":3686:3691   */\n      dup2\n        /* \"#utility.yul\":3671:3692   */\n      tag_55\n      jump\t// in\n    tag_128:\n        /* \"#utility.yul\":3666:3669   */\n      dup3\n        /* \"#utility.yul\":3659:3693   */\n      mstore\n        /* \"#utility.yul\":3590:3699   */\n      pop\n      pop\n      jump\t// out\n        /* \"#utility.yul\":3705:4226   */\n    tag_18:\n        /* \"#utility.yul\":3868:3872   */\n      0x00\n        /* \"#utility.yul\":3906:3908   */\n      0x60\n        /* \"#utility.yul\":3895:3904   */\n      dup3\n        /* \"#utility.yul\":3891:3909   */\n      add\n        /* \"#utility.yul\":3883:3909   */\n      swap1\n      pop\n        /* \"#utility.yul\":3955:3964   */\n      dup2\n        /* \"#utility.yul\":3949:3953   */\n      dup2\n        /* \"#utility.yul\":3945:3965   */\n      sub\n        /* \"#utility.yul\":3941:3942   */\n      0x00\n        /* \"#utility.yul\":3930:3939   */\n      dup4\n        /* \"#utility.yul\":3926:3943   */\n      add\n        /* \"#utility.yul\":3919:3966   */\n      mstore\n        /* \"#utility.yul\":3983:4061   */\n      tag_130\n        /* \"#utility.yul\":4056:4060   */\n      dup2\n        /* \"#utility.yul\":4047:4053   */\n      dup7\n        /* \"#utility.yul\":3983:4061   */\n      tag_50\n      jump\t// in\n    tag_130:\n        /* \"#utility.yul\":3975:4061   */\n      swap1\n      pop\n        /* \"#utility.yul\":4071:4143   */\n      tag_131\n        /* \"#utility.yul\":4139:4141   */\n      0x20\n        /* \"#utility.yul\":4128:4137   */\n      dup4\n        /* \"#utility.yul\":4124:4142   */\n      add\n        /* \"#utility.yul\":4115:4121   */\n      dup6\n        /* \"#utility.yul\":4071:4143   */\n      tag_58\n      jump\t// in\n    tag_131:\n        /* \"#utility.yul\":4153:4219   */\n      tag_132\n        /* \"#utility.yul\":4215:4217   */\n      0x40\n        /* \"#utility.yul\":4204:4213   */\n      dup4\n        /* \"#utility.yul\":4200:4218   */\n      add\n        /* \"#utility.yul\":4191:4197   */\n      dup5\n        /* \"#utility.yul\":4153:4219   */\n      tag_59\n      jump\t// in\n    tag_132:\n        /* \"#utility.yul\":3705:4226   */\n      swap5\n      swap4\n      pop\n      pop\n      pop\n      pop\n      jump\t// out\n        /* \"#utility.yul\":4232:4307   */\n    tag_60:\n        /* \"#utility.yul\":4265:4271   */\n      0x00\n        /* \"#utility.yul\":4298:4300   */\n      0x40\n        /* \"#utility.yul\":4292:4301   */\n      mload\n        /* \"#utility.yul\":4282:4301   */\n      swap1\n      pop\n        /* \"#utility.yul\":4232:4307   */\n      swap1\n      jump\t// out\n        /* \"#utility.yul\":4313:4430   */\n    tag_61:\n        /* \"#utility.yul\":4422:4423   */\n      0x00\n        /* \"#utility.yul\":4419:4420   */\n      dup1\n        /* \"#utility.yul\":4412:4424   */\n      revert\n        /* \"#utility.yul\":4436:4553   */\n    tag_62:\n        /* \"#utility.yul\":4545:4546   */\n      0x00\n        /* \"#utility.yul\":4542:4543   */\n      dup1\n        /* \"#utility.yul\":4535:4547   */\n      revert\n        /* \"#utility.yul\":4559:4676   */\n    tag_63:\n        /* \"#utility.yul\":4668:4669   */\n      0x00\n        /* \"#utility.yul\":4665:4666   */\n      dup1\n        /* \"#utility.yul\":4658:4670   */\n      revert\n        /* \"#utility.yul\":4682:4799   */\n    tag_64:\n        /* \"#utility.yul\":4791:4792   */\n      0x00\n        /* \"#utility.yul\":4788:4789   */\n      dup1\n        /* \"#utility.yul\":4781:4793   */\n      revert\n        /* \"#utility.yul\":4805:4985   */\n    tag_65:\n        /* \"#utility.yul\":4853:4930   */\n      0x4e487b7100000000000000000000000000000000000000000000000000000000\n        /* \"#utility.yul\":4850:4851   */\n      0x00\n        /* \"#utility.yul\":4843:4931   */\n      mstore\n        /* \"#utility.yul\":4950:4954   */\n      0x41\n        /* \"#utility.yul\":4947:4948   */\n      0x04\n        /* \"#utility.yul\":4940:4955   */\n      mstore\n        /* \"#utility.yul\":4974:4978   */\n      0x24\n        /* \"#utility.yul\":4971:4972   */\n      0x00\n        /* \"#utility.yul\":4964:4979   */\n      revert\n        /* \"#utility.yul\":4991:5272   */\n    tag_66:\n        /* \"#utility.yul\":5074:5101   */\n      tag_140\n        /* \"#utility.yul\":5096:5100   */\n      dup3\n        /* \"#utility.yul\":5074:5101   */\n      tag_49\n      jump\t// in\n    tag_140:\n        /* \"#utility.yul\":5066:5072   */\n      dup2\n        /* \"#utility.yul\":5062:5102   */\n      add\n        /* \"#utility.yul\":5204:5210   */\n      dup2\n        /* \"#utility.yul\":5192:5202   */\n      dup2\n        /* \"#utility.yul\":5189:5211   */\n      lt\n        /* \"#utility.yul\":5168:5186   */\n      0xffffffffffffffff\n        /* \"#utility.yul\":5156:5166   */\n      dup3\n        /* \"#utility.yul\":5153:5187   */\n      gt\n        /* \"#utility.yul\":5150:5212   */\n      or\n        /* \"#utility.yul\":5147:5235   */\n      iszero\n      tag_141\n      jumpi\n        /* \"#utility.yul\":5215:5233   */\n      tag_142\n      tag_65\n      jump\t// in\n    tag_142:\n        /* \"#utility.yul\":5147:5235   */\n    tag_141:\n        /* \"#utility.yul\":5255:5265   */\n      dup1\n        /* \"#utility.yul\":5251:5253   */\n      0x40\n        /* \"#utility.yul\":5244:5266   */\n      mstore\n        /* \"#utility.yul\":5034:5272   */\n      pop\n        /* \"#utility.yul\":4991:5272   */\n      pop\n      pop\n      jump\t// out\n        /* \"#utility.yul\":5278:5407   */\n    tag_67:\n        /* \"#utility.yul\":5312:5318   */\n      0x00\n        /* \"#utility.yul\":5339:5359   */\n      tag_144\n      tag_60\n      jump\t// in\n    tag_144:\n        /* \"#utility.yul\":5329:5359   */\n      swap1\n      pop\n        /* \"#utility.yul\":5368:5401   */\n      tag_145\n        /* \"#utility.yul\":5396:5400   */\n      dup3\n        /* \"#utility.yul\":5388:5394   */\n      dup3\n        /* \"#utility.yul\":5368:5401   */\n      tag_66\n      jump\t// in\n    tag_145:\n        /* \"#utility.yul\":5278:5407   */\n      swap2\n      swap1\n      pop\n      jump\t// out\n        /* \"#utility.yul\":5413:5721   */\n    tag_68:\n        /* \"#utility.yul\":5475:5479   */\n      0x00\n        /* \"#utility.yul\":5565:5583   */\n      0xffffffffffffffff\n        /* \"#utility.yul\":5557:5563   */\n      dup3\n        /* \"#utility.yul\":5554:5584   */\n      gt\n        /* \"#utility.yul\":5551:5607   */\n      iszero\n      tag_147\n      jumpi\n        /* \"#utility.yul\":5587:5605   */\n      tag_148\n      tag_65\n      jump\t// in\n    tag_148:\n        /* \"#utility.yul\":5551:5607   */\n    tag_147:\n        /* \"#utility.yul\":5625:5654   */\n      tag_149\n        /* \"#utility.yul\":5647:5653   */\n      dup3\n        /* \"#utility.yul\":5625:5654   */\n      tag_49\n      jump\t// in\n    tag_149:\n        /* \"#utility.yul\":5617:5654   */\n      swap1\n      pop\n        /* \"#utility.yul\":5709:5713   */\n      0x20\n        /* \"#utility.yul\":5703:5707   */\n      dup2\n        /* \"#utility.yul\":5699:5714   */\n      add\n        /* \"#utility.yul\":5691:5714   */\n      swap1\n      pop\n        /* \"#utility.yul\":5413:5721   */\n      swap2\n      swap1\n      pop\n      jump\t// out\n        /* \"#utility.yul\":5727:5873   */\n    tag_69:\n        /* \"#utility.yul\":5824:5830   */\n      dup3\n        /* \"#utility.yul\":5819:5822   */\n      dup2\n        /* \"#utility.yul\":5814:5817   */\n      dup4\n        /* \"#utility.yul\":5801:5831   */\n      calldatacopy\n        /* \"#utility.yul\":5865:5866   */\n      0x00\n        /* \"#utility.yul\":5856:5862   */\n      dup4\n        /* \"#utility.yul\":5851:5854   */\n      dup4\n        /* \"#utility.yul\":5847:5863   */\n      add\n        /* \"#utility.yul\":5840:5867   */\n      mstore\n        /* \"#utility.yul\":5727:5873   */\n      pop\n      pop\n      pop\n      jump\t// out\n        /* \"#utility.yul\":5879:6304   */\n    tag_70:\n        /* \"#utility.yul\":5957:5962   */\n      0x00\n        /* \"#utility.yul\":5982:6048   */\n      tag_152\n        /* \"#utility.yul\":5998:6047   */\n      tag_153\n        /* \"#utility.yul\":6040:6046   */\n      dup5\n        /* \"#utility.yul\":5998:6047   */\n      tag_68\n      jump\t// in\n    tag_153:\n        /* \"#utility.yul\":5982:6048   */\n      tag_67\n      jump\t// in\n    tag_152:\n        /* \"#utility.yul\":5973:6048   */\n      swap1\n      pop\n        /* \"#utility.yul\":6071:6077   */\n      dup3\n        /* \"#utility.yul\":6064:6069   */\n      dup2\n        /* \"#utility.yul\":6057:6078   */\n      mstore\n        /* \"#utility.yul\":6109:6113   */\n      0x20\n        /* \"#utility.yul\":6102:6107   */\n      dup2\n        /* \"#utility.yul\":6098:6114   */\n      add\n        /* \"#utility.yul\":6147:6150   */\n      dup5\n        /* \"#utility.yul\":6138:6144   */\n      dup5\n        /* \"#utility.yul\":6133:6136   */\n      dup5\n        /* \"#utility.yul\":6129:6145   */\n      add\n        /* \"#utility.yul\":6126:6151   */\n      gt\n        /* \"#utility.yul\":6123:6235   */\n      iszero\n      tag_154\n      jumpi\n        /* \"#utility.yul\":6154:6233   */\n      tag_155\n      tag_64\n      jump\t// in\n    tag_155:\n        /* \"#utility.yul\":6123:6235   */\n    tag_154:\n        /* \"#utility.yul\":6244:6298   */\n      tag_156\n        /* \"#utility.yul\":6291:6297   */\n      dup5\n        /* \"#utility.yul\":6286:6289   */\n      dup3\n        /* \"#utility.yul\":6281:6284   */\n      dup6\n        /* \"#utility.yul\":6244:6298   */\n      tag_69\n      jump\t// in\n    tag_156:\n        /* \"#utility.yul\":5963:6304   */\n      pop\n        /* \"#utility.yul\":5879:6304   */\n      swap4\n      swap3\n      pop\n      pop\n      pop\n      jump\t// out\n        /* \"#utility.yul\":6324:6664   */\n    tag_71:\n        /* \"#utility.yul\":6380:6385   */\n      0x00\n        /* \"#utility.yul\":6429:6432   */\n      dup3\n        /* \"#utility.yul\":6422:6426   */\n      0x1f\n        /* \"#utility.yul\":6414:6420   */\n      dup4\n        /* \"#utility.yul\":6410:6427   */\n      add\n        /* \"#utility.yul\":6406:6433   */\n      slt\n        /* \"#utility.yul\":6396:6518   */\n      tag_158\n      jumpi\n        /* \"#utility.yul\":6437:6516   */\n      tag_159\n      tag_63\n      jump\t// in\n    tag_159:\n        /* \"#utility.yul\":6396:6518   */\n    tag_158:\n        /* \"#utility.yul\":6554:6560   */\n      dup2\n        /* \"#utility.yul\":6541:6561   */\n      calldataload\n        /* \"#utility.yul\":6579:6658   */\n      tag_160\n        /* \"#utility.yul\":6654:6657   */\n      dup5\n        /* \"#utility.yul\":6646:6652   */\n      dup3\n        /* \"#utility.yul\":6639:6643   */\n      0x20\n        /* \"#utility.yul\":6631:6637   */\n      dup7\n        /* \"#utility.yul\":6627:6644   */\n      add\n        /* \"#utility.yul\":6579:6658   */\n      tag_70\n      jump\t// in\n    tag_160:\n        /* \"#utility.yul\":6570:6658   */\n      swap2\n      pop\n        /* \"#utility.yul\":6386:6664   */\n      pop\n        /* \"#utility.yul\":6324:6664   */\n      swap3\n      swap2\n      pop\n      pop\n      jump\t// out\n        /* \"#utility.yul\":6670:6792   */\n    tag_72:\n        /* \"#utility.yul\":6743:6767   */\n      tag_162\n        /* \"#utility.yul\":6761:6766   */\n      dup2\n        /* \"#utility.yul\":6743:6767   */\n      tag_53\n      jump\t// in\n    tag_162:\n        /* \"#utility.yul\":6736:6741   */\n      dup2\n        /* \"#utility.yul\":6733:6768   */\n      eq\n        /* \"#utility.yul\":6723:6786   */\n      tag_163\n      jumpi\n        /* \"#utility.yul\":6782:6783   */\n      0x00\n        /* \"#utility.yul\":6779:6780   */\n      dup1\n        /* \"#utility.yul\":6772:6784   */\n      revert\n        /* \"#utility.yul\":6723:6786   */\n    tag_163:\n        /* \"#utility.yul\":6670:6792   */\n      pop\n      jump\t// out\n        /* \"#utility.yul\":6798:6937   */\n    tag_73:\n        /* \"#utility.yul\":6844:6849   */\n      0x00\n        /* \"#utility.yul\":6882:6888   */\n      dup2\n        /* \"#utility.yul\":6869:6889   */\n      calldataload\n        /* \"#utility.yul\":6860:6889   */\n      swap1\n      pop\n        /* \"#utility.yul\":6898:6931   */\n      tag_165\n        /* \"#utility.yul\":6925:6930   */\n      dup2\n        /* \"#utility.yul\":6898:6931   */\n      tag_72\n      jump\t// in\n    tag_165:\n        /* \"#utility.yul\":6798:6937   */\n      swap3\n      swap2\n      pop\n      pop\n      jump\t// out\n        /* \"#utility.yul\":6943:7059   */\n    tag_74:\n        /* \"#utility.yul\":7013:7034   */\n      tag_167\n        /* \"#utility.yul\":7028:7033   */\n      dup2\n        /* \"#utility.yul\":7013:7034   */\n      tag_55\n      jump\t// in\n    tag_167:\n        /* \"#utility.yul\":7006:7011   */\n      dup2\n        /* \"#utility.yul\":7003:7035   */\n      eq\n        /* \"#utility.yul\":6993:7053   */\n      tag_168\n      jumpi\n        /* \"#utility.yul\":7049:7050   */\n      0x00\n        /* \"#utility.yul\":7046:7047   */\n      dup1\n        /* \"#utility.yul\":7039:7051   */\n      revert\n        /* \"#utility.yul\":6993:7053   */\n    tag_168:\n        /* \"#utility.yul\":6943:7059   */\n      pop\n      jump\t// out\n        /* \"#utility.yul\":7065:7198   */\n    tag_75:\n        /* \"#utility.yul\":7108:7113   */\n      0x00\n        /* \"#utility.yul\":7146:7152   */\n      dup2\n        /* \"#utility.yul\":7133:7153   */\n      calldataload\n        /* \"#utility.yul\":7124:7153   */\n      swap1\n      pop\n        /* \"#utility.yul\":7162:7192   */\n      tag_170\n        /* \"#utility.yul\":7186:7191   */\n      dup2\n        /* \"#utility.yul\":7162:7192   */\n      tag_74\n      jump\t// in\n    tag_170:\n        /* \"#utility.yul\":7065:7198   */\n      swap3\n      swap2\n      pop\n      pop\n      jump\t// out\n        /* \"#utility.yul\":7204:7997   */\n    tag_21:\n        /* \"#utility.yul\":7288:7294   */\n      0x00\n        /* \"#utility.yul\":7296:7302   */\n      dup1\n        /* \"#utility.yul\":7304:7310   */\n      0x00\n        /* \"#utility.yul\":7353:7355   */\n      0x60\n        /* \"#utility.yul\":7341:7350   */\n      dup5\n        /* \"#utility.yul\":7332:7339   */\n      dup7\n        /* \"#utility.yul\":7328:7351   */\n      sub\n        /* \"#utility.yul\":7324:7356   */\n      slt\n        /* \"#utility.yul\":7321:7440   */\n      iszero\n      tag_172\n      jumpi\n        /* \"#utility.yul\":7359:7438   */\n      tag_173\n      tag_61\n      jump\t// in\n    tag_173:\n        /* \"#utility.yul\":7321:7440   */\n    tag_172:\n        /* \"#utility.yul\":7507:7508   */\n      0x00\n        /* \"#utility.yul\":7496:7505   */\n      dup5\n        /* \"#utility.yul\":7492:7509   */\n      add\n        /* \"#utility.yul\":7479:7510   */\n      calldataload\n        /* \"#utility.yul\":7537:7555   */\n      0xffffffffffffffff\n        /* \"#utility.yul\":7529:7535   */\n      dup2\n        /* \"#utility.yul\":7526:7556   */\n      gt\n        /* \"#utility.yul\":7523:7640   */\n      iszero\n      tag_174\n      jumpi\n        /* \"#utility.yul\":7559:7638   */\n      tag_175\n      tag_62\n      jump\t// in\n    tag_175:\n        /* \"#utility.yul\":7523:7640   */\n    tag_174:\n        /* \"#utility.yul\":7664:7727   */\n      tag_176\n        /* \"#utility.yul\":7719:7726   */\n      dup7\n        /* \"#utility.yul\":7710:7716   */\n      dup3\n        /* \"#utility.yul\":7699:7708   */\n      dup8\n        /* \"#utility.yul\":7695:7717   */\n      add\n        /* \"#utility.yul\":7664:7727   */\n      tag_71\n      jump\t// in\n    tag_176:\n        /* \"#utility.yul\":7654:7727   */\n      swap4\n      pop\n        /* \"#utility.yul\":7450:7737   */\n      pop\n        /* \"#utility.yul\":7776:7778   */\n      0x20\n        /* \"#utility.yul\":7802:7855   */\n      tag_177\n        /* \"#utility.yul\":7847:7854   */\n      dup7\n        /* \"#utility.yul\":7838:7844   */\n      dup3\n        /* \"#utility.yul\":7827:7836   */\n      dup8\n        /* \"#utility.yul\":7823:7845   */\n      add\n        /* \"#utility.yul\":7802:7855   */\n      tag_73\n      jump\t// in\n    tag_177:\n        /* \"#utility.yul\":7792:7855   */\n      swap3\n      pop\n        /* \"#utility.yul\":7747:7865   */\n      pop\n        /* \"#utility.yul\":7904:7906   */\n      0x40\n        /* \"#utility.yul\":7930:7980   */\n      tag_178\n        /* \"#utility.yul\":7972:7979   */\n      dup7\n        /* \"#utility.yul\":7963:7969   */\n      dup3\n        /* \"#utility.yul\":7952:7961   */\n      dup8\n        /* \"#utility.yul\":7948:7970   */\n      add\n        /* \"#utility.yul\":7930:7980   */\n      tag_75\n      jump\t// in\n    tag_178:\n        /* \"#utility.yul\":7920:7980   */\n      swap2\n      pop\n        /* \"#utility.yul\":7875:7990   */\n      pop\n        /* \"#utility.yul\":7204:7997   */\n      swap3\n      pop\n      swap3\n      pop\n      swap3\n      jump\t// out\n        /* \"#utility.yul\":8003:8183   */\n    tag_76:\n        /* \"#utility.yul\":8051:8128   */\n      0x4e487b7100000000000000000000000000000000000000000000000000000000\n        /* \"#utility.yul\":8048:8049   */\n      0x00\n        /* \"#utility.yul\":8041:8129   */\n      mstore\n        /* \"#utility.yul\":8148:8152   */\n      0x22\n        /* \"#utility.yul\":8145:8146   */\n      0x04\n        /* \"#utility.yul\":8138:8153   */\n      mstore\n        /* \"#utility.yul\":8172:8176   */\n      0x24\n        /* \"#utility.yul\":8169:8170   */\n      0x00\n        /* \"#utility.yul\":8162:8177   */\n      revert\n        /* \"#utility.yul\":8189:8509   */\n    tag_25:\n        /* \"#utility.yul\":8233:8239   */\n      0x00\n        /* \"#utility.yul\":8270:8271   */\n      0x02\n        /* \"#utility.yul\":8264:8268   */\n      dup3\n        /* \"#utility.yul\":8260:8272   */\n      div\n        /* \"#utility.yul\":8250:8272   */\n      swap1\n      pop\n        /* \"#utility.yul\":8317:8318   */\n      0x01\n        /* \"#utility.yul\":8311:8315   */\n      dup3\n        /* \"#utility.yul\":8307:8319   */\n      and\n        /* \"#utility.yul\":8338:8356   */\n      dup1\n        /* \"#utility.yul\":8328:8409   */\n      tag_181\n      jumpi\n        /* \"#utility.yul\":8394:8398   */\n      0x7f\n        /* \"#utility.yul\":8386:8392   */\n      dup3\n        /* \"#utility.yul\":8382:8399   */\n      and\n        /* \"#utility.yul\":8372:8399   */\n      swap2\n      pop\n        /* \"#utility.yul\":8328:8409   */\n    tag_181:\n        /* \"#utility.yul\":8456:8458   */\n      0x20\n        /* \"#utility.yul\":8448:8454   */\n      dup3\n        /* \"#utility.yul\":8445:8459   */\n      lt\n        /* \"#utility.yul\":8425:8443   */\n      dup2\n        /* \"#utility.yul\":8422:8460   */\n      sub\n        /* \"#utility.yul\":8419:8503   */\n      tag_182\n      jumpi\n        /* \"#utility.yul\":8475:8493   */\n      tag_183\n      tag_76\n      jump\t// in\n    tag_183:\n        /* \"#utility.yul\":8419:8503   */\n    tag_182:\n        /* \"#utility.yul\":8240:8509   */\n      pop\n        /* \"#utility.yul\":8189:8509   */\n      swap2\n      swap1\n      pop\n      jump\t// out\n        /* \"#utility.yul\":8515:8656   */\n    tag_77:\n        /* \"#utility.yul\":8564:8568   */\n      0x00\n        /* \"#utility.yul\":8587:8590   */\n      dup2\n        /* \"#utility.yul\":8579:8590   */\n      swap1\n      pop\n        /* \"#utility.yul\":8610:8613   */\n      dup2\n        /* \"#utility.yul\":8607:8608   */\n      0x00\n        /* \"#utility.yul\":8600:8614   */\n      mstore\n        /* \"#utility.yul\":8644:8648   */\n      0x20\n        /* \"#utility.yul\":8641:8642   */\n      0x00\n        /* \"#utility.yul\":8631:8649   */\n      keccak256\n        /* \"#utility.yul\":8623:8649   */\n      swap1\n      pop\n        /* \"#utility.yul\":8515:8656   */\n      swap2\n      swap1\n      pop\n      jump\t// out\n        /* \"#utility.yul\":8662:8755   */\n    tag_78:\n        /* \"#utility.yul\":8699:8705   */\n      0x00\n        /* \"#utility.yul\":8746:8748   */\n      0x20\n        /* \"#utility.yul\":8741:8743   */\n      0x1f\n        /* \"#utility.yul\":8734:8739   */\n      dup4\n        /* \"#utility.yul\":8730:8744   */\n      add\n        /* \"#utility.yul\":8726:8749   */\n      div\n        /* \"#utility.yul\":8716:8749   */\n      swap1\n      pop\n        /* \"#utility.yul\":8662:8755   */\n      swap2\n      swap1\n      pop\n      jump\t// out\n        /* \"#utility.yul\":8761:8868   */\n    tag_79:\n        /* \"#utility.yul\":8805:8813   */\n      0x00\n        /* \"#utility.yul\":8855:8860   */\n      dup3\n        /* \"#utility.yul\":8849:8853   */\n      dup3\n        /* \"#utility.yul\":8845:8861   */\n      shl\n        /* \"#utility.yul\":8824:8861   */\n      swap1\n      pop\n        /* \"#utility.yul\":8761:8868   */\n      swap3\n      swap2\n      pop\n      pop\n      jump\t// out\n        /* \"#utility.yul\":8874:9267   */\n    tag_80:\n        /* \"#utility.yul\":8943:8949   */\n      0x00\n        /* \"#utility.yul\":8993:8994   */\n      0x08\n        /* \"#utility.yul\":8981:8991   */\n      dup4\n        /* \"#utility.yul\":8977:8995   */\n      mul\n        /* \"#utility.yul\":9016:9113   */\n      tag_188\n        /* \"#utility.yul\":9046:9112   */\n      0xffffffffffffffffffffffffffffffffffffffffffffffffffffffffffffffff\n        /* \"#utility.yul\":9035:9044   */\n      dup3\n        /* \"#utility.yul\":9016:9113   */\n      tag_79\n      jump\t// in\n    tag_188:\n        /* \"#utility.yul\":9134:9173   */\n      tag_189\n        /* \"#utility.yul\":9164:9172   */\n      dup7\n        /* \"#utility.yul\":9153:9162   */\n      dup4\n        /* \"#utility.yul\":9134:9173   */\n      tag_79\n      jump\t// in\n    tag_189:\n        /* \"#utility.yul\":9122:9173   */\n      swap6\n      pop\n        /* \"#utility.yul\":9206:9210   */\n      dup1\n        /* \"#utility.yul\":9202:9211   */\n      not\n        /* \"#utility.yul\":9195:9200   */\n      dup5\n        /* \"#utility.yul\":9191:9212   */\n      and\n        /* \"#utility.yul\":9182:9212   */\n      swap4\n      pop\n        /* \"#utility.yul\":9255:9259   */\n      dup1\n        /* \"#utility.yul\":9245:9253   */\n      dup7\n        /* \"#utility.yul\":9241:9260   */\n      and\n        /* \"#utility.yul\":9234:9239   */\n      dup5\n        /* \"#utility.yul\":9231:9261   */\n      or\n        /* \"#utility.yul\":9221:9261   */\n      swap3\n      pop\n        /* \"#utility.yul\":8950:9267   */\n      pop\n      pop\n        /* \"#utility.yul\":8874:9267   */\n      swap4\n      swap3\n      pop\n      pop\n      pop\n      jump\t// out\n        /* \"#utility.yul\":9273:9333   */\n    tag_81:\n        /* \"#utility.yul\":9301:9304   */\n      0x00\n        /* \"#utility.yul\":9322:9327   */\n      dup2\n        /* \"#utility.yul\":9315:9327   */\n      swap1\n      pop\n        /* \"#utility.yul\":9273:9333   */\n      swap2\n      swap1\n      pop\n      jump\t// out\n        /* \"#utility.yul\":9339:9481   */\n    tag_82:\n        /* \"#utility.yul\":9389:9398   */\n      0x00\n        /* \"#utility.yul\":9422:9475   */\n      tag_192\n        /* \"#utility.yul\":9440:9474   */\n      tag_193\n        /* \"#utility.yul\":9449:9473   */\n      tag_194\n        /* \"#utility.yul\":9467:9472   */\n      dup5\n        /* \"#utility.yul\":9449:9473   */\n      tag_53\n      jump\t// in\n    tag_194:\n        /* \"#utility.yul\":9440:9474   */\n      tag_81\n      jump\t// in\n    tag_193:\n        /* \"#utility.yul\":9422:9475   */\n      tag_53\n      jump\t// in\n    tag_192:\n        /* \"#utility.yul\":9409:9475   */\n      swap1\n      pop\n        /* \"#utility.yul\":9339:9481   */\n      swap2\n      swap1\n      pop\n      jump\t// out\n        /* \"#utility.yul\":9487:9562   */\n    tag_83:\n        /* \"#utility.yul\":9530:9533   */\n      0x00\n        /* \"#utility.yul\":9551:9556   */\n      dup2\n        /* \"#utility.yul\":9544:9556   */\n      swap1\n      pop\n        /* \"#utility.yul\":9487:9562   */\n      swap2\n      swap1\n      pop\n      jump\t// out\n        /* \"#utility.yul\":9568:9837   */\n    tag_84:\n        /* \"#utility.yul\":9678:9717   */\n      tag_197\n        /* \"#utility.yul\":9709:9716   */\n      dup4\n        /* \"#utility.yul\":9678:9717   */\n      tag_82\n      jump\t// in\n    tag_197:\n        /* \"#utility.yul\":9739:9830   */\n      tag_198\n        /* \"#utility.yul\":9788:9829   */\n      tag_199\n        /* \"#utility.yul\":9812:9828   */\n      dup3\n        /* \"#utility.yul\":9788:9829   */\n      tag_83\n      jump\t// in\n    tag_199:\n        /* \"#utility.yul\":9780:9786   */\n      dup5\n        /* \"#utility.yul\":9773:9777   */\n      dup5\n        /* \"#utility.yul\":9767:9778   */\n      sload\n        /* \"#utility.yul\":9739:9830   */\n      tag_80\n      jump\t// in\n    tag_198:\n        /* \"#utility.yul\":9733:9737   */\n      dup3\n        /* \"#utility.yul\":9726:9831   */\n      sstore\n        /* \"#utility.yul\":9644:9837   */\n      pop\n        /* \"#utility.yul\":9568:9837   */\n      pop\n      pop\n      pop\n      jump\t// out\n        /* \"#utility.yul\":9843:9916   */\n    tag_85:\n        /* \"#utility.yul\":9888:9891   */\n      0x00\n        /* \"#utility.yul\":9843:9916   */\n      swap1\n      jump\t// out\n        /* \"#utility.yul\":9922:10111   */\n    tag_86:\n        /* \"#utility.yul\":9999:10031   */\n      tag_202\n      tag_85\n      jump\t// in\n    tag_202:\n        /* \"#utility.yul\":10040:10105   */\n      tag_203\n        /* \"#utility.yul\":10098:10104   */\n      dup2\n        /* \"#utility.yul\":10090:10096   */\n      dup5\n        /* \"#utility.yul\":10084:10088   */\n      dup5\n        /* \"#utility.yul\":10040:10105   */\n      tag_84\n      jump\t// in\n    tag_203:\n        /* \"#utility.yul\":9975:10111   */\n      pop\n        /* \"#utility.yul\":9922:10111   */\n      pop\n      pop\n      jump\t// out\n        /* \"#utility.yul\":10117:10303   */\n    tag_87:\n        /* \"#utility.yul\":10177:10297   */\n    tag_205:\n        /* \"#utility.yul\":10194:10197   */\n      dup2\n        /* \"#utility.yul\":10187:10192   */\n      dup2\n        /* \"#utility.yul\":10184:10198   */\n      lt\n        /* \"#utility.yul\":10177:10297   */\n      iszero\n      tag_207\n      jumpi\n        /* \"#utility.yul\":10248:10287   */\n      tag_208\n        /* \"#utility.yul\":10285:10286   */\n      0x00\n        /* \"#utility.yul\":10278:10283   */\n      dup3\n        /* \"#utility.yul\":10248:10287   */\n      tag_86\n      jump\t// in\n    tag_208:\n        /* \"#utility.yul\":10221:10222   */\n      0x01\n        /* \"#utility.yul\":10214:10219   */\n      dup2\n        /* \"#utility.yul\":10210:10223   */\n      add\n        /* \"#utility.yul\":10201:10223   */\n      swap1\n      pop\n        /* \"#utility.yul\":10177:10297   */\n      jump(tag_205)\n    tag_207:\n        /* \"#utility.yul\":10117:10303   */\n      pop\n      pop\n      jump\t// out\n        /* \"#utility.yul\":10309:10852   */\n    tag_88:\n        /* \"#utility.yul\":10410:10412   */\n      0x1f\n        /* \"#utility.yul\":10405:10408   */\n      dup3\n        /* \"#utility.yul\":10402:10413   */\n      gt\n        /* \"#utility.yul\":10399:10845   */\n      iszero\n      tag_210\n      jumpi\n        /* \"#utility.yul\":10444:10482   */\n      tag_211\n        /* \"#utility.yul\":10476:10481   */\n      dup2\n        /* \"#utility.yul\":10444:10482   */\n      tag_77\n      jump\t// in\n    tag_211:\n        /* \"#utility.yul\":10528:10557   */\n      tag_212\n        /* \"#utility.yul\":10546:10556   */\n      dup5\n        /* \"#utility.yul\":10528:10557   */\n      tag_78\n      jump\t// in\n    tag_212:\n        /* \"#utility.yul\":10518:10526   */\n      dup2\n        /* \"#utility.yul\":10514:10558   */\n      add\n        /* \"#utility.yul\":10711:10713   */\n      0x20\n        /* \"#utility.yul\":10699:10709   */\n      dup6\n        /* \"#utility.yul\":10696:10714   */\n      lt\n        /* \"#utility.yul\":10693:10742   */\n      iszero\n      tag_213\n      jumpi\n        /* \"#utility.yul\":10732:10740   */\n      dup2\n        /* \"#utility.yul\":10717:10740   */\n      swap1\n      pop\n        /* \"#utility.yul\":10693:10742   */\n    tag_213:\n        /* \"#utility.yul\":10755:10835   */\n      tag_214\n        /* \"#utility.yul\":10811:10833   */\n      tag_215\n        /* \"#utility.yul\":10829:10832   */\n      dup6\n        /* \"#utility.yul\":10811:10833   */\n      tag_78\n      jump\t// in\n    tag_215:\n        /* \"#utility.yul\":10801:10809   */\n      dup4\n        /* \"#utility.yul\":10797:10834   */\n      add\n        /* \"#utility.yul\":10784:10795   */\n      dup3\n        /* \"#utility.yul\":10755:10835   */\n      tag_87\n      jump\t// in\n    tag_214:\n        /* \"#utility.yul\":10414:10845   */\n      pop\n      pop\n        /* \"#utility.yul\":10399:10845   */\n    tag_210:\n        /* \"#utility.yul\":10309:10852   */\n      pop\n      pop\n      pop\n      jump\t// out\n        /* \"#utility.yul\":10858:10975   */\n    tag_89:\n        /* \"#utility.yul\":10912:10920   */\n      0x00\n        /* \"#utility.yul\":10962:10967   */\n      dup3\n        /* \"#utility.yul\":10956:10960   */\n      dup3\n        /* \"#utility.yul\":10952:10968   */\n      shr\n        /* \"#utility.yul\":10931:10968   */\n      swap1\n      pop\n        /* \"#utility.yul\":10858:10975   */\n      swap3\n      swap2\n      pop\n      pop\n      jump\t// out\n        /* \"#utility.yul\":10981:11150   */\n    tag_90:\n        /* \"#utility.yul\":11025:11031   */\n      0x00\n        /* \"#utility.yul\":11058:11109   */\n      tag_218\n        /* \"#utility.yul\":11106:11107   */\n      0x00\n        /* \"#utility.yul\":11102:11108   */\n      not\n        /* \"#utility.yul\":11094:11099   */\n      dup5\n        /* \"#utility.yul\":11091:11092   */\n      0x08\n        /* \"#utility.yul\":11087:11100   */\n      mul\n        /* \"#utility.yul\":11058:11109   */\n      tag_89\n      jump\t// in\n    tag_218:\n        /* \"#utility.yul\":11054:11110   */\n      not\n        /* \"#utility.yul\":11139:11143   */\n      dup1\n        /* \"#utility.yul\":11133:11137   */\n      dup4\n        /* \"#utility.yul\":11129:11144   */\n      and\n        /* \"#utility.yul\":11119:11144   */\n      swap2\n      pop\n        /* \"#utility.yul\":11032:11150   */\n      pop\n        /* \"#utility.yul\":10981:11150   */\n      swap3\n      swap2\n      pop\n      pop\n      jump\t// out\n        /* \"#utility.yul\":11155:11450   */\n    tag_91:\n        /* \"#utility.yul\":11231:11235   */\n      0x00\n        /* \"#utility.yul\":11377:11406   */\n      tag_220\n        /* \"#utility.yul\":11402:11405   */\n      dup4\n        /* \"#utility.yul\":11396:11400   */\n      dup4\n        /* \"#utility.yul\":11377:11406   */\n      tag_90\n      jump\t// in\n    tag_220:\n        /* \"#utility.yul\":11369:11406   */\n      swap2\n      pop\n        /* \"#utility.yul\":11439:11442   */\n      dup3\n        /* \"#utility.yul\":11436:11437   */\n      0x02\n        /* \"#utility.yul\":11432:11443   */\n      mul\n        /* \"#utility.yul\":11426:11430   */\n      dup3\n        /* \"#utility.yul\":11423:11444   */\n      or\n        /* \"#utility.yul\":11415:11444   */\n      swap1\n      pop\n        /* \"#utility.yul\":11155:11450   */\n      swap3\n      swap2\n      pop\n      pop\n      jump\t// out\n        /* \"#utility.yul\":11455:12850   */\n    tag_45:\n        /* \"#utility.yul\":11572:11609   */\n      tag_222\n        /* \"#utility.yul\":11605:11608   */\n      dup3\n        /* \"#utility.yul\":11572:11609   */\n      tag_46\n      jump\t// in\n    tag_222:\n        /* \"#utility.yul\":11674:11692   */\n      0xffffffffffffffff\n        /* \"#utility.yul\":11666:11672   */\n      dup2\n        /* \"#utility.yul\":11663:11693   */\n      gt\n        /* \"#utility.yul\":11660:11716   */\n      iszero\n      tag_223\n      jumpi\n        /* \"#utility.yul\":11696:11714   */\n      tag_224\n      tag_65\n      jump\t// in\n    tag_224:\n        /* \"#utility.yul\":11660:11716   */\n    tag_223:\n        /* \"#utility.yul\":11740:11778   */\n      tag_225\n        /* \"#utility.yul\":11772:11776   */\n      dup3\n        /* \"#utility.yul\":11766:11777   */\n      sload\n        /* \"#utility.yul\":11740:11778   */\n      tag_25\n      jump\t// in\n    tag_225:\n        /* \"#utility.yul\":11825:11892   */\n      tag_226\n        /* \"#utility.yul\":11885:11891   */\n      dup3\n        /* \"#utility.yul\":11877:11883   */\n      dup3\n        /* \"#utility.yul\":11871:11875   */\n      dup6\n        /* \"#utility.yul\":11825:11892   */\n      tag_88\n      jump\t// in\n    tag_226:\n        /* \"#utility.yul\":11919:11920   */\n      0x00\n        /* \"#utility.yul\":11943:11947   */\n      0x20\n        /* \"#utility.yul\":11930:11947   */\n      swap1\n      pop\n        /* \"#utility.yul\":11975:11977   */\n      0x1f\n        /* \"#utility.yul\":11967:11973   */\n      dup4\n        /* \"#utility.yul\":11964:11978   */\n      gt\n        /* \"#utility.yul\":11992:11993   */\n      0x01\n        /* \"#utility.yul\":11987:12605   */\n      dup2\n      eq\n      tag_228\n      jumpi\n        /* \"#utility.yul\":12649:12650   */\n      0x00\n        /* \"#utility.yul\":12666:12672   */\n      dup5\n        /* \"#utility.yul\":12663:12740   */\n      iszero\n      tag_229\n      jumpi\n        /* \"#utility.yul\":12715:12724   */\n      dup3\n        /* \"#utility.yul\":12710:12713   */\n      dup8\n        /* \"#utility.yul\":12706:12725   */\n      add\n        /* \"#utility.yul\":12700:12726   */\n      mload\n        /* \"#utility.yul\":12691:12726   */\n      swap1\n      pop\n        /* \"#utility.yul\":12663:12740   */\n    tag_229:\n        /* \"#utility.yul\":12766:12833   */\n      tag_230\n        /* \"#utility.yul\":12826:12832   */\n      dup6\n        /* \"#utility.yul\":12819:12824   */\n      dup3\n        /* \"#utility.yul\":12766:12833   */\n      tag_91\n      jump\t// in\n    tag_230:\n        /* \"#utility.yul\":12760:12764   */\n      dup7\n        /* \"#utility.yul\":12753:12834   */\n      sstore\n        /* \"#utility.yul\":12622:12844   */\n      pop\n        /* \"#utility.yul\":11957:12844   */\n      jump(tag_227)\n        /* \"#utility.yul\":11987:12605   */\n    tag_228:\n        /* \"#utility.yul\":12039:12043   */\n      0x1f\n        /* \"#utility.yul\":12035:12044   */\n      not\n        /* \"#utility.yul\":12027:12033   */\n      dup5\n        /* \"#utility.yul\":12023:12045   */\n      and\n        /* \"#utility.yul\":12073:12110   */\n      tag_231\n        /* \"#utility.yul\":12105:12109   */\n      dup7\n        /* \"#utility.yul\":12073:12110   */\n      tag_77\n      jump\t// in\n    tag_231:\n        /* \"#utility.yul\":12132:12133   */\n      0x00\n        /* \"#utility.yul\":12146:12354   */\n    tag_232:\n        /* \"#utility.yul\":12160:12167   */\n      dup3\n        /* \"#utility.yul\":12157:12158   */\n      dup2\n        /* \"#utility.yul\":12154:12168   */\n      lt\n        /* \"#utility.yul\":12146:12354   */\n      iszero\n      tag_234\n      jumpi\n        /* \"#utility.yul\":12239:12248   */\n      dup5\n        /* \"#utility.yul\":12234:12237   */\n      dup10\n        /* \"#utility.yul\":12230:12249   */\n      add\n        /* \"#utility.yul\":12224:12250   */\n      mload\n        /* \"#utility.yul\":12216:12222   */\n      dup3\n        /* \"#utility.yul\":12209:12251   */\n      sstore\n        /* \"#utility.yul\":12290:12291   */\n      0x01\n        /* \"#utility.yul\":12282:12288   */\n      dup3\n        /* \"#utility.yul\":12278:12292   */\n      add\n        /* \"#utility.yul\":12268:12292   */\n      swap2\n      pop\n        /* \"#utility.yul\":12337:12339   */\n      0x20\n        /* \"#utility.yul\":12326:12335   */\n      dup6\n        /* \"#utility.yul\":12322:12340   */\n      add\n        /* \"#utility.yul\":12309:12340   */\n      swap5\n      pop\n        /* \"#utility.yul\":12183:12187   */\n      0x20\n        /* \"#utility.yul\":12180:12181   */\n      dup2\n        /* \"#utility.yul\":12176:12188   */\n      add\n        /* \"#utility.yul\":12171:12188   */\n      swap1\n      pop\n        /* \"#utility.yul\":12146:12354   */\n      jump(tag_232)\n    tag_234:\n        /* \"#utility.yul\":12382:12388   */\n      dup7\n        /* \"#utility.yul\":12373:12380   */\n      dup4\n        /* \"#utility.yul\":12370:12389   */\n      lt\n        /* \"#utility.yul\":12367:12546   */\n      iszero\n      tag_235\n      jumpi\n        /* \"#utility.yul\":12440:12449   */\n      dup5\n        /* \"#utility.yul\":12435:12438   */\n      dup10\n        /* \"#utility.yul\":12431:12450   */\n      add\n        /* \"#utility.yul\":12425:12451   */\n      mload\n        /* \"#utility.yul\":12483:12531   */\n      tag_236\n        /* \"#utility.yul\":12525:12529   */\n      0x1f\n        /* \"#utility.yul\":12517:12523   */\n      dup10\n        /* \"#utility.yul\":12513:12530   */\n      and\n        /* \"#utility.yul\":12502:12511   */\n      dup3\n        /* \"#utility.yul\":12483:12531   */\n      tag_90\n      jump\t// in\n    tag_236:\n        /* \"#utility.yul\":12475:12481   */\n      dup4\n        /* \"#utility.yul\":12468:12532   */\n      sstore\n        /* \"#utility.yul\":12390:12546   */\n      pop\n        /* \"#utility.yul\":12367:12546   */\n    tag_235:\n        /* \"#utility.yul\":12592:12593   */\n      0x01\n        /* \"#utility.yul\":12588:12589   */\n      0x02\n        /* \"#utility.yul\":12580:12586   */\n      dup9\n        /* \"#utility.yul\":12576:12590   */\n      mul\n        /* \"#utility.yul\":12572:12594   */\n      add\n        /* \"#utility.yul\":12566:12570   */\n      dup9\n        /* \"#utility.yul\":12559:12595   */\n      sstore\n        /* \"#utility.yul\":11994:12605   */\n      pop\n      pop\n      pop\n        /* \"#utility.yul\":11957:12844   */\n    tag_227:\n      pop\n        /* \"#utility.yul\":11547:12850   */\n      pop\n      pop\n      pop\n        /* \"#utility.yul\":11455:12850   */\n      pop\n      pop\n      jump\t// out\n\n    auxdata: 0xa2646970667358221220db060ba8365bb2fa1e1d1ae552d3d05f64e67713c6e789d6364dfded5ae6a2a264736f6c63430008120033\n}\n",
				"bytecode": {
					"linkReferences": {},
					"object": "608060405234801561001057600080fd5b50610a86806100206000396000f3fe608060405234801561001057600080fd5b506004361061004c5760003560e01c806306fdde03146100515780633a62251a1461006f5780636cc014de1461008d578063c30655a2146100ad575b600080fd5b6100596100c9565b60405161006691906103f4565b60405180910390f35b61007761015d565b60405161008491906104e4565b60405180910390f35b61009561022e565b6040516100a493929190610524565b60405180910390f35b6100c760048036038101906100c29190610703565b6102db565b005b60606000800180546100da906107a1565b80601f0160208091040260200160405190810160405280929190818152602001828054610106906107a1565b80156101535780601f1061012857610100808354040283529160200191610153565b820191906000526020600020905b81548152906001019060200180831161013657829003601f168201915b5050505050905090565b610165610341565b6000604051806060016040529081600082018054610182906107a1565b80601f01602080910402602001604051908101604052809291908181526020018280546101ae906107a1565b80156101fb5780601f106101d0576101008083540402835291602001916101fb565b820191906000526020600020905b8154815290600101906020018083116101de57829003601f168201915b50505050508152602001600182015481526020016002820160009054906101000a900460ff161515151581525050905090565b600080600001805461023f906107a1565b80601f016020809104026020016040519081016040528092919081815260200182805461026b906107a1565b80156102b85780601f1061028d576101008083540402835291602001916102b8565b820191906000526020600020905b81548152906001019060200180831161029b57829003601f168201915b5050505050908060010154908060020160009054906101000a900460ff16905083565b604051806060016040528084815260200183815260200182151581525060008082015181600001908161030e919061097e565b506020820151816001015560408201518160020160006101000a81548160ff021916908315150217905550905050505050565b604051806060016040528060608152602001600081526020016000151581525090565b600081519050919050565b600082825260208201905092915050565b60005b8381101561039e578082015181840152602081019050610383565b60008484015250505050565b6000601f19601f8301169050919050565b60006103c682610364565b6103d0818561036f565b93506103e0818560208601610380565b6103e9816103aa565b840191505092915050565b6000602082019050818103600083015261040e81846103bb565b905092915050565b600082825260208201905092915050565b600061043282610364565b61043c8185610416565b935061044c818560208601610380565b610455816103aa565b840191505092915050565b6000819050919050565b61047381610460565b82525050565b60008115159050919050565b61048e81610479565b82525050565b600060608301600083015184820360008601526104b18282610427565b91505060208301516104c6602086018261046a565b5060408301516104d96040860182610485565b508091505092915050565b600060208201905081810360008301526104fe8184610494565b905092915050565b61050f81610460565b82525050565b61051e81610479565b82525050565b6000606082019050818103600083015261053e81866103bb565b905061054d6020830185610506565b61055a6040830184610515565b949350505050565b6000604051905090565b600080fd5b600080fd5b600080fd5b600080fd5b7f4e487b7100000000000000000000000000000000000000000000000000000000600052604160045260246000fd5b6105b8826103aa565b810181811067ffffffffffffffff821117156105d7576105d6610580565b5b80604052505050565b60006105ea610562565b90506105f682826105af565b919050565b600067ffffffffffffffff82111561061657610615610580565b5b61061f826103aa565b9050602081019050919050565b82818337600083830152505050565b600061064e610649846105fb565b6105e0565b90508281526020810184848401111561066a5761066961057b565b5b61067584828561062c565b509392505050565b600082601f83011261069257610691610576565b5b81356106a284826020860161063b565b91505092915050565b6106b481610460565b81146106bf57600080fd5b50565b6000813590506106d1816106ab565b92915050565b6106e081610479565b81146106eb57600080fd5b50565b6000813590506106fd816106d7565b92915050565b60008060006060848603121561071c5761071b61056c565b5b600084013567ffffffffffffffff81111561073a57610739610571565b5b6107468682870161067d565b9350506020610757868287016106c2565b9250506040610768868287016106ee565b9150509250925092565b7f4e487b7100000000000000000000000000000000000000000000000000000000600052602260045260246000fd5b600060028204905060018216806107b957607f821691505b6020821081036107cc576107cb610772565b5b50919050565b60008190508160005260206000209050919050565b60006020601f8301049050919050565b600082821b905092915050565b6000600883026108347fffffffffffffffffffffffffffffffffffffffffffffffffffffffffffffffff826107f7565b61083e86836107f7565b95508019841693508086168417925050509392505050565b6000819050919050565b600061087b61087661087184610460565b610856565b610460565b9050919050565b6000819050919050565b61089583610860565b6108a96108a182610882565b848454610804565b825550505050565b600090565b6108be6108b1565b6108c981848461088c565b505050565b5b818110156108ed576108e26000826108b6565b6001810190506108cf565b5050565b601f82111561093257610903816107d2565b61090c846107e7565b8101602085101561091b578190505b61092f610927856107e7565b8301826108ce565b50505b505050565b600082821c905092915050565b600061095560001984600802610937565b1980831691505092915050565b600061096e8383610944565b9150826002028217905092915050565b61098782610364565b67ffffffffffffffff8111156109a05761099f610580565b5b6109aa82546107a1565b6109b58282856108f1565b600060209050601f8311600181146109e857600084156109d6578287015190505b6109e08582610962565b865550610a48565b601f1984166109f6866107d2565b60005b82811015610a1e578489015182556001820191506020850194506020810190506109f9565b86831015610a3b5784890151610a37601f891682610944565b8355505b6001600288020188555050505b50505050505056fea2646970667358221220db060ba8365bb2fa1e1d1ae552d3d05f64e67713c6e789d6364dfded5ae6a2a264736f6c63430008120033",
					"opcodes": "PUSH1 0x80 PUSH1 0x40 MSTORE CALLVALUE DUP1 ISZERO PUSH2 0x10 JUMPI PUSH1 0x0 DUP1 REVERT JUMPDEST POP PUSH2 0xA86 DUP1 PUSH2 0x20 PUSH1 0x0 CODECOPY PUSH1 0x0 RETURN INVALID PUSH1 0x80 PUSH1 0x40 MSTORE CALLVALUE DUP1 ISZERO PUSH2 0x10 JUMPI PUSH1 0x0 DUP1 REVERT JUMPDEST POP PUSH1 0x4 CALLDATASIZE LT PUSH2 0x4C JUMPI PUSH1 0x0 CALLDATALOAD PUSH1 0xE0 SHR DUP1 PUSH4 0x6FDDE03 EQ PUSH2 0x51 JUMPI DUP1 PUSH4 0x3A62251A EQ PUSH2 0x6F JUMPI DUP1 PUSH4 0x6CC014DE EQ PUSH2 0x8D JUMPI DUP1 PUSH4 0xC30655A2 EQ PUSH2 0xAD JUMPI JUMPDEST PUSH1 0x0 DUP1 REVERT JUMPDEST PUSH2 0x59 PUSH2 0xC9 JUMP JUMPDEST PUSH1 0x40 MLOAD PUSH2 0x66 SWAP2 SWAP1 PUSH2 0x3F4 JUMP JUMPDEST PUSH1 0x40 MLOAD DUP1 SWAP2 SUB SWAP1 RETURN JUMPDEST PUSH2 0x77 PUSH2 0x15D JUMP JUMPDEST PUSH1 0x40 MLOAD PUSH2 0x84 SWAP2 SWAP1 PUSH2 0x4E4 JUMP JUMPDEST PUSH1 0x40 MLOAD DUP1 SWAP2 SUB SWAP1 RETURN JUMPDEST PUSH2 0x95 PUSH2 0x22E JUMP JUMPDEST PUSH1 0x40 MLOAD PUSH2 0xA4 SWAP4 SWAP3 SWAP2 SWAP1 PUSH2 0x524 JUMP JUMPDEST PUSH1 0x40 MLOAD DUP1 SWAP2 SUB SWAP1 RETURN JUMPDEST PUSH2 0xC7 PUSH1 0x4 DUP1 CALLDATASIZE SUB DUP2 ADD SWAP1 PUSH2 0xC2 SWAP2 SWAP1 PUSH2 0x703 JUMP JUMPDEST PUSH2 0x2DB JUMP JUMPDEST STOP JUMPDEST PUSH1 0x60 PUSH1 0x0 DUP1 ADD DUP1 SLOAD PUSH2 0xDA SWAP1 PUSH2 0x7A1 JUMP JUMPDEST DUP1 PUSH1 0x1F ADD PUSH1 0x20 DUP1 SWAP2 DIV MUL PUSH1 0x20 ADD PUSH1 0x40 MLOAD SWAP1 DUP2 ADD PUSH1 0x40 MSTORE DUP1 SWAP3 SWAP2 SWAP1 DUP2 DUP2 MSTORE PUSH1 0x20 ADD DUP3 DUP1 SLOAD PUSH2 0x106 SWAP1 PUSH2 0x7A1 JUMP JUMPDEST DUP1 ISZERO PUSH2 0x153 JUMPI DUP1 PUSH1 0x1F LT PUSH2 0x128 JUMPI PUSH2 0x100 DUP1 DUP4 SLOAD DIV MUL DUP4 MSTORE SWAP2 PUSH1 0x20 ADD SWAP2 PUSH2 0x153 JUMP JUMPDEST DUP3 ADD SWAP2 SWAP1 PUSH1 0x0 MSTORE PUSH1 0x20 PUSH1 0x0 KECCAK256 SWAP1 JUMPDEST DUP2 SLOAD DUP2 MSTORE SWAP1 PUSH1 0x1 ADD SWAP1 PUSH1 0x20 ADD DUP1 DUP4 GT PUSH2 0x136 JUMPI DUP3 SWAP1 SUB PUSH1 0x1F AND DUP3 ADD SWAP2 JUMPDEST POP POP POP POP POP SWAP1 POP SWAP1 JUMP JUMPDEST PUSH2 0x165 PUSH2 0x341 JUMP JUMPDEST PUSH1 0x0 PUSH1 0x40 MLOAD DUP1 PUSH1 0x60 ADD PUSH1 0x40 MSTORE SWAP1 DUP2 PUSH1 0x0 DUP3 ADD DUP1 SLOAD PUSH2 0x182 SWAP1 PUSH2 0x7A1 JUMP JUMPDEST DUP1 PUSH1 0x1F ADD PUSH1 0x20 DUP1 SWAP2 DIV MUL PUSH1 0x20 ADD PUSH1 0x40 MLOAD SWAP1 DUP2 ADD PUSH1 0x40 MSTORE DUP1 SWAP3 SWAP2 SWAP1 DUP2 DUP2 MSTORE PUSH1 0x20 ADD DUP3 DUP1 SLOAD PUSH2 0x1AE SWAP1 PUSH2 0x7A1 JUMP JUMPDEST DUP1 ISZERO PUSH2 0x1FB JUMPI DUP1 PUSH1 0x1F LT PUSH2 0x1D0 JUMPI PUSH2 0x100 DUP1 DUP4 SLOAD DIV MUL DUP4 MSTORE SWAP2 PUSH1 0x20 ADD SWAP2 PUSH2 0x1FB JUMP JUMPDEST DUP3 ADD SWAP2 SWAP1 PUSH1 0x0 MSTORE PUSH1 0x20 PUSH1 0x0 KECCAK256 SWAP1 JUMPDEST DUP2 SLOAD DUP2 MSTORE SWAP1 PUSH1 0x1 ADD SWAP1 PUSH1 0x20 ADD DUP1 DUP4 GT PUSH2 0x1DE JUMPI DUP3 SWAP1 SUB PUSH1 0x1F AND DUP3 ADD SWAP2 JUMPDEST POP POP POP POP POP DUP2 MSTORE PUSH1 0x20 ADD PUSH1 0x1 DUP3 ADD SLOAD DUP2 MSTORE PUSH1 0x20 ADD PUSH1 0x2 DUP3 ADD PUSH1 0x0 SWAP1 SLOAD SWAP1 PUSH2 0x100 EXP SWAP1 DIV PUSH1 0xFF AND ISZERO ISZERO ISZERO ISZERO DUP2 MSTORE POP POP SWAP1 POP SWAP1 JUMP JUMPDEST PUSH1 0x0 DUP1 PUSH1 0x0 ADD DUP1 SLOAD PUSH2 0x23F SWAP1 PUSH2 0x7A1 JUMP JUMPDEST DUP1 PUSH1 0x1F ADD PUSH1 0x20 DUP1 SWAP2 DIV MUL PUSH1 0x20 ADD PUSH1 0x40 MLOAD SWAP1 DUP2 ADD PUSH1 0x40 MSTORE DUP1 SWAP3 SWAP2 SWAP1 DUP2 DUP2 MSTORE PUSH1 0x20 ADD DUP3 DUP1 SLOAD PUSH2 0x26B SWAP1 PUSH2 0x7A1 JUMP JUMPDEST DUP1 ISZERO PUSH2 0x2B8 JUMPI DUP1 PUSH1 0x1F LT PUSH2 0x28D JUMPI PUSH2 0x100 DUP1 DUP4 SLOAD DIV MUL DUP4 MSTORE SWAP2 PUSH1 0x20 ADD SWAP2 PUSH2 0x2B8 JUMP JUMPDEST DUP3 ADD SWAP2 SWAP1 PUSH1 0x0 MSTORE PUSH1 0x20 PUSH1 0x0 KECCAK256 SWAP1 JUMPDEST DUP2 SLOAD DUP2 MSTORE SWAP1 PUSH1 0x1 ADD SWAP1 PUSH1 0x20 ADD DUP1 DUP4 GT PUSH2 0x29B JUMPI DUP3 SWAP1 SUB PUSH1 0x1F AND DUP3 ADD SWAP2 JUMPDEST POP POP POP POP POP SWAP1 DUP1 PUSH1 0x1 ADD SLOAD SWAP1 DUP1 PUSH1 0x2 ADD PUSH1 0x0 SWAP1 SLOAD SWAP1 PUSH2 0x100 EXP SWAP1 DIV PUSH1 0xFF AND SWAP1 POP DUP4 JUMP JUMPDEST PUSH1 0x40 MLOAD DUP1 PUSH1 0x60 ADD PUSH1 0x40 MSTORE DUP1 DUP5 DUP2 MSTORE PUSH1 0x20 ADD DUP4 DUP2 MSTORE PUSH1 0x20 ADD DUP3 ISZERO ISZERO DUP2 MSTORE POP PUSH1 0x0 DUP1 DUP3 ADD MLOAD DUP2 PUSH1 0x0 ADD SWAP1 DUP2 PUSH2 0x30E SWAP2 SWAP1 PUSH2 0x97E JUMP JUMPDEST POP PUSH1 0x20 DUP3 ADD MLOAD DUP2 PUSH1 0x1 ADD SSTORE PUSH1 0x40 DUP3 ADD MLOAD DUP2 PUSH1 0x2 ADD PUSH1 0x0 PUSH2 0x100 EXP DUP2 SLOAD DUP2 PUSH1 0xFF MUL NOT AND SWAP1 DUP4 ISZERO ISZERO MUL OR SWAP1 SSTORE POP SWAP1 POP POP POP POP POP JUMP JUMPDEST PUSH1 0x40 MLOAD DUP1 PUSH1 0x60 ADD PUSH1 0x40 MSTORE DUP1 PUSH1 0x60 DUP2 MSTORE PUSH1 0x20 ADD PUSH1 0x0 DUP2 MSTORE PUSH1 0x20 ADD PUSH1 0x0 ISZERO ISZERO DUP2 MSTORE POP SWAP1 JUMP JUMPDEST PUSH1 0x0 DUP2 MLOAD SWAP1 POP SWAP2 SWAP1 POP JUMP JUMPDEST PUSH1 0x0 DUP3 DUP3 MSTORE PUSH1 0x20 DUP3 ADD SWAP1 POP SWAP3 SWAP2 POP POP JUMP JUMPDEST PUSH1 0x0 JUMPDEST DUP4 DUP2 LT ISZERO PUSH2 0x39E JUMPI DUP1 DUP3 ADD MLOAD DUP2 DUP5 ADD MSTORE PUSH1 0x20 DUP2 ADD SWAP1 POP PUSH2 0x383 JUMP JUMPDEST PUSH1 0x0 DUP5 DUP5 ADD MSTORE POP POP POP POP JUMP JUMPDEST PUSH1 0x0 PUSH1 0x1F NOT PUSH1 0x1F DUP4 ADD AND SWAP1 POP SWAP2 SWAP1 POP JUMP JUMPDEST PUSH1 0x0 PUSH2 0x3C6 DUP3 PUSH2 0x364 JUMP JUMPDEST PUSH2 0x3D0 DUP2 DUP6 PUSH2 0x36F JUMP JUMPDEST SWAP4 POP PUSH2 0x3E0 DUP2 DUP6 PUSH1 0x20 DUP7 ADD PUSH2 0x380 JUMP JUMPDEST PUSH2 0x3E9 DUP2 PUSH2 0x3AA JUMP JUMPDEST DUP5 ADD SWAP2 POP POP SWAP3 SWAP2 POP POP JUMP JUMPDEST PUSH1 0x0 PUSH1 0x20 DUP3 ADD SWAP1 POP DUP2 DUP2 SUB PUSH1 0x0 DUP4 ADD MSTORE PUSH2 0x40E DUP2 DUP5 PUSH2 0x3BB JUMP JUMPDEST SWAP1 POP SWAP3 SWAP2 POP POP JUMP JUMPDEST PUSH1 0x0 DUP3 DUP3 MSTORE PUSH1 0x20 DUP3 ADD SWAP1 POP SWAP3 SWAP2 POP POP JUMP JUMPDEST PUSH1 0x0 PUSH2 0x432 DUP3 PUSH2 0x364 JUMP JUMPDEST PUSH2 0x43C DUP2 DUP6 PUSH2 0x416 JUMP JUMPDEST SWAP4 POP PUSH2 0x44C DUP2 DUP6 PUSH1 0x20 DUP7 ADD PUSH2 0x380 JUMP JUMPDEST PUSH2 0x455 DUP2 PUSH2 0x3AA JUMP JUMPDEST DUP5 ADD SWAP2 POP POP SWAP3 SWAP2 POP POP JUMP JUMPDEST PUSH1 0x0 DUP2 SWAP1 POP SWAP2 SWAP1 POP JUMP JUMPDEST PUSH2 0x473 DUP2 PUSH2 0x460 JUMP JUMPDEST DUP3 MSTORE POP POP JUMP JUMPDEST PUSH1 0x0 DUP2 ISZERO ISZERO SWAP1 POP SWAP2 SWAP1 POP JUMP JUMPDEST PUSH2 0x48E DUP2 PUSH2 0x479 JUMP JUMPDEST DUP3 MSTORE POP POP JUMP JUMPDEST PUSH1 0x0 PUSH1 0x60 DUP4 ADD PUSH1 0x0 DUP4 ADD MLOAD DUP5 DUP3 SUB PUSH1 0x0 DUP7 ADD MSTORE PUSH2 0x4B1 DUP3 DUP3 PUSH2 0x427 JUMP JUMPDEST SWAP2 POP POP PUSH1 0x20 DUP4 ADD MLOAD PUSH2 0x4C6 PUSH1 0x20 DUP7 ADD DUP3 PUSH2 0x46A JUMP JUMPDEST POP PUSH1 0x40 DUP4 ADD MLOAD PUSH2 0x4D9 PUSH1 0x40 DUP7 ADD DUP3 PUSH2 0x485 JUMP JUMPDEST POP DUP1 SWAP2 POP POP SWAP3 SWAP2 POP POP JUMP JUMPDEST PUSH1 0x0 PUSH1 0x20 DUP3 ADD SWAP1 POP DUP2 DUP2 SUB PUSH1 0x0 DUP4 ADD MSTORE PUSH2 0x4FE DUP2 DUP5 PUSH2 0x494 JUMP JUMPDEST SWAP1 POP SWAP3 SWAP2 POP POP JUMP JUMPDEST PUSH2 0x50F DUP2 PUSH2 0x460 JUMP JUMPDEST DUP3 MSTORE POP POP JUMP JUMPDEST PUSH2 0x51E DUP2 PUSH2 0x479 JUMP JUMPDEST DUP3 MSTORE POP POP JUMP JUMPDEST PUSH1 0x0 PUSH1 0x60 DUP3 ADD SWAP1 POP DUP2 DUP2 SUB PUSH1 0x0 DUP4 ADD MSTORE PUSH2 0x53E DUP2 DUP7 PUSH2 0x3BB JUMP JUMPDEST SWAP1 POP PUSH2 0x54D PUSH1 0x20 DUP4 ADD DUP6 PUSH2 0x506 JUMP JUMPDEST PUSH2 0x55A PUSH1 0x40 DUP4 ADD DUP5 PUSH2 0x515 JUMP JUMPDEST SWAP5 SWAP4 POP POP POP POP JUMP JUMPDEST PUSH1 0x0 PUSH1 0x40 MLOAD SWAP1 POP SWAP1 JUMP JUMPDEST PUSH1 0x0 DUP1 REVERT JUMPDEST PUSH1 0x0 DUP1 REVERT JUMPDEST PUSH1 0x0 DUP1 REVERT JUMPDEST PUSH1 0x0 DUP1 REVERT JUMPDEST PUSH32 0x4E487B7100000000000000000000000000000000000000000000000000000000 PUSH1 0x0 MSTORE PUSH1 0x41 PUSH1 0x4 MSTORE PUSH1 0x24 PUSH1 0x0 REVERT JUMPDEST PUSH2 0x5B8 DUP3 PUSH2 0x3AA JUMP JUMPDEST DUP2 ADD DUP2 DUP2 LT PUSH8 0xFFFFFFFFFFFFFFFF DUP3 GT OR ISZERO PUSH2 0x5D7 JUMPI PUSH2 0x5D6 PUSH2 0x580 JUMP JUMPDEST JUMPDEST DUP1 PUSH1 0x40 MSTORE POP POP POP JUMP JUMPDEST PUSH1 0x0 PUSH2 0x5EA PUSH2 0x562 JUMP JUMPDEST SWAP1 POP PUSH2 0x5F6 DUP3 DUP3 PUSH2 0x5AF JUMP JUMPDEST SWAP2 SWAP1 POP JUMP JUMPDEST PUSH1 0x0 PUSH8 0xFFFFFFFFFFFFFFFF DUP3 GT ISZERO PUSH2 0x616 JUMPI PUSH2 0x615 PUSH2 0x580 JUMP JUMPDEST JUMPDEST PUSH2 0x61F DUP3 PUSH2 0x3AA JUMP JUMPDEST SWAP1 POP PUSH1 0x20 DUP2 ADD SWAP1 POP SWAP2 SWAP1 POP JUMP JUMPDEST DUP3 DUP2 DUP4 CALLDATACOPY PUSH1 0x0 DUP4 DUP4 ADD MSTORE POP POP POP JUMP JUMPDEST PUSH1 0x0 PUSH2 0x64E PUSH2 0x649 DUP5 PUSH2 0x5FB JUMP JUMPDEST PUSH2 0x5E0 JUMP JUMPDEST SWAP1 POP DUP3 DUP2 MSTORE PUSH1 0x20 DUP2 ADD DUP5 DUP5 DUP5 ADD GT ISZERO PUSH2 0x66A JUMPI PUSH2 0x669 PUSH2 0x57B JUMP JUMPDEST JUMPDEST PUSH2 0x675 DUP5 DUP3 DUP6 PUSH2 0x62C JUMP JUMPDEST POP SWAP4 SWAP3 POP POP POP JUMP JUMPDEST PUSH1 0x0 DUP3 PUSH1 0x1F DUP4 ADD SLT PUSH2 0x692 JUMPI PUSH2 0x691 PUSH2 0x576 JUMP JUMPDEST JUMPDEST DUP2 CALLDATALOAD PUSH2 0x6A2 DUP5 DUP3 PUSH1 0x20 DUP7 ADD PUSH2 0x63B JUMP JUMPDEST SWAP2 POP POP SWAP3 SWAP2 POP POP JUMP JUMPDEST PUSH2 0x6B4 DUP2 PUSH2 0x460 JUMP JUMPDEST DUP2 EQ PUSH2 0x6BF JUMPI PUSH1 0x0 DUP1 REVERT JUMPDEST POP JUMP JUMPDEST PUSH1 0x0 DUP2 CALLDATALOAD SWAP1 POP PUSH2 0x6D1 DUP2 PUSH2 0x6AB JUMP JUMPDEST SWAP3 SWAP2 POP POP JUMP JUMPDEST PUSH2 0x6E0 DUP2 PUSH2 0x479 JUMP JUMPDEST DUP2 EQ PUSH2 0x6EB JUMPI PUSH1 0x0 DUP1 REVERT JUMPDEST POP JUMP JUMPDEST PUSH1 0x0 DUP2 CALLDATALOAD SWAP1 POP PUSH2 0x6FD DUP2 PUSH2 0x6D7 JUMP JUMPDEST SWAP3 SWAP2 POP POP JUMP JUMPDEST PUSH1 0x0 DUP1 PUSH1 0x0 PUSH1 0x60 DUP5 DUP7 SUB SLT ISZERO PUSH2 0x71C JUMPI PUSH2 0x71B PUSH2 0x56C JUMP JUMPDEST JUMPDEST PUSH1 0x0 DUP5 ADD CALLDATALOAD PUSH8 0xFFFFFFFFFFFFFFFF DUP2 GT ISZERO PUSH2 0x73A JUMPI PUSH2 0x739 PUSH2 0x571 JUMP JUMPDEST JUMPDEST PUSH2 0x746 DUP7 DUP3 DUP8 ADD PUSH2 0x67D JUMP JUMPDEST SWAP4 POP POP PUSH1 0x20 PUSH2 0x757 DUP7 DUP3 DUP8 ADD PUSH2 0x6C2 JUMP JUMPDEST SWAP3 POP POP PUSH1 0x40 PUSH2 0x768 DUP7 DUP3 DUP8 ADD PUSH2 0x6EE JUMP JUMPDEST SWAP2 POP POP SWAP3 POP SWAP3 POP SWAP3 JUMP JUMPDEST PUSH32 0x4E487B7100000000000000000000000000000000000000000000000000000000 PUSH1 0x0 MSTORE PUSH1 0x22 PUSH1 0x4 MSTORE PUSH1 0x24 PUSH1 0x0 REVERT JUMPDEST PUSH1 0x0 PUSH1 0x2 DUP3 DIV SWAP1 POP PUSH1 0x1 DUP3 AND DUP1 PUSH2 0x7B9 JUMPI PUSH1 0x7F DUP3 AND SWAP2 POP JUMPDEST PUSH1 0x20 DUP3 LT DUP2 SUB PUSH2 0x7CC JUMPI PUSH2 0x7CB PUSH2 0x772 JUMP JUMPDEST JUMPDEST POP SWAP2 SWAP1 POP JUMP JUMPDEST PUSH1 0x0 DUP2 SWAP1 POP DUP2 PUSH1 0x0 MSTORE PUSH1 0x20 PUSH1 0x0 KECCAK256 SWAP1 POP SWAP2 SWAP1 POP JUMP JUMPDEST PUSH1 0x0 PUSH1 0x20 PUSH1 0x1F DUP4 ADD DIV SWAP1 POP SWAP2 SWAP1 POP JUMP JUMPDEST PUSH1 0x0 DUP3 DUP3 SHL SWAP1 POP SWAP3 SWAP2 POP POP JUMP JUMPDEST PUSH1 0x0 PUSH1 0x8 DUP4 MUL PUSH2 0x834 PUSH32 0xFFFFFFFFFFFFFFFFFFFFFFFFFFFFFFFFFFFFFFFFFFFFFFFFFFFFFFFFFFFFFFFF DUP3 PUSH2 0x7F7 JUMP JUMPDEST PUSH2 0x83E DUP7 DUP4 PUSH2 0x7F7 JUMP JUMPDEST SWAP6 POP DUP1 NOT DUP5 AND SWAP4 POP DUP1 DUP7 AND DUP5 OR SWAP3 POP POP POP SWAP4 SWAP3 POP POP POP JUMP JUMPDEST PUSH1 0x0 DUP2 SWAP1 POP SWAP2 SWAP1 POP JUMP JUMPDEST PUSH1 0x0 PUSH2 0x87B PUSH2 0x876 PUSH2 0x871 DUP5 PUSH2 0x460 JUMP JUMPDEST PUSH2 0x856 JUMP JUMPDEST PUSH2 0x460 JUMP JUMPDEST SWAP1 POP SWAP2 SWAP1 POP JUMP JUMPDEST PUSH1 0x0 DUP2 SWAP1 POP SWAP2 SWAP1 POP JUMP JUMPDEST PUSH2 0x895 DUP4 PUSH2 0x860 JUMP JUMPDEST PUSH2 0x8A9 PUSH2 0x8A1 DUP3 PUSH2 0x882 JUMP JUMPDEST DUP5 DUP5 SLOAD PUSH2 0x804 JUMP JUMPDEST DUP3 SSTORE POP POP POP POP JUMP JUMPDEST PUSH1 0x0 SWAP1 JUMP JUMPDEST PUSH2 0x8BE PUSH2 0x8B1 JUMP JUMPDEST PUSH2 0x8C9 DUP2 DUP5 DUP5 PUSH2 0x88C JUMP JUMPDEST POP POP POP JUMP JUMPDEST JUMPDEST DUP2 DUP2 LT ISZERO PUSH2 0x8ED JUMPI PUSH2 0x8E2 PUSH1 0x0 DUP3 PUSH2 0x8B6 JUMP JUMPDEST PUSH1 0x1 DUP2 ADD SWAP1 POP PUSH2 0x8CF JUMP JUMPDEST POP POP JUMP JUMPDEST PUSH1 0x1F DUP3 GT ISZERO PUSH2 0x932 JUMPI PUSH2 0x903 DUP2 PUSH2 0x7D2 JUMP JUMPDEST PUSH2 0x90C DUP5 PUSH2 0x7E7 JUMP JUMPDEST DUP2 ADD PUSH1 0x20 DUP6 LT ISZERO PUSH2 0x91B JUMPI DUP2 SWAP1 POP JUMPDEST PUSH2 0x92F PUSH2 0x927 DUP6 PUSH2 0x7E7 JUMP JUMPDEST DUP4 ADD DUP3 PUSH2 0x8CE JUMP JUMPDEST POP POP JUMPDEST POP POP POP JUMP JUMPDEST PUSH1 0x0 DUP3 DUP3 SHR SWAP1 POP SWAP3 SWAP2 POP POP JUMP JUMPDEST PUSH1 0x0 PUSH2 0x955 PUSH1 0x0 NOT DUP5 PUSH1 0x8 MUL PUSH2 0x937 JUMP JUMPDEST NOT DUP1 DUP4 AND SWAP2 POP POP SWAP3 SWAP2 POP POP JUMP JUMPDEST PUSH1 0x0 PUSH2 0x96E DUP4 DUP4 PUSH2 0x944 JUMP JUMPDEST SWAP2 POP DUP3 PUSH1 0x2 MUL DUP3 OR SWAP1 POP SWAP3 SWAP2 POP POP JUMP JUMPDEST PUSH2 0x987 DUP3 PUSH2 0x364 JUMP JUMPDEST PUSH8 0xFFFFFFFFFFFFFFFF DUP2 GT ISZERO PUSH2 0x9A0 JUMPI PUSH2 0x99F PUSH2 0x580 JUMP JUMPDEST JUMPDEST PUSH2 0x9AA DUP3 SLOAD PUSH2 0x7A1 JUMP JUMPDEST PUSH2 0x9B5 DUP3 DUP3 DUP6 PUSH2 0x8F1 JUMP JUMPDEST PUSH1 0x0 PUSH1 0x20 SWAP1 POP PUSH1 0x1F DUP4 GT PUSH1 0x1 DUP2 EQ PUSH2 0x9E8 JUMPI PUSH1 0x0 DUP5 ISZERO PUSH2 0x9D6 JUMPI DUP3 DUP8 ADD MLOAD SWAP1 POP JUMPDEST PUSH2 0x9E0 DUP6 DUP3 PUSH2 0x962 JUMP JUMPDEST DUP7 SSTORE POP PUSH2 0xA48 JUMP JUMPDEST PUSH1 0x1F NOT DUP5 AND PUSH2 0x9F6 DUP7 PUSH2 0x7D2 JUMP JUMPDEST PUSH1 0x0 JUMPDEST DUP3 DUP2 LT ISZERO PUSH2 0xA1E JUMPI DUP5 DUP10 ADD MLOAD DUP3 SSTORE PUSH1 0x1 DUP3 ADD SWAP2 POP PUSH1 0x20 DUP6 ADD SWAP5 POP PUSH1 0x20 DUP2 ADD SWAP1 POP PUSH2 0x9F9 JUMP JUMPDEST DUP7 DUP4 LT ISZERO PUSH2 0xA3B JUMPI DUP5 DUP10 ADD MLOAD PUSH2 0xA37 PUSH1 0x1F DUP10 AND DUP3 PUSH2 0x944 JUMP JUMPDEST DUP4 SSTORE POP JUMPDEST PUSH1 0x1 PUSH1 0x2 DUP9 MUL ADD DUP9 SSTORE POP POP POP JUMPDEST POP POP POP POP POP POP JUMP INVALID LOG2 PUSH5 0x6970667358 0x22 SLT KECCAK256 0xDB MOD SIGNEXTEND 0xA8 CALLDATASIZE JUMPDEST 0xB2 STATICCALL 0x1E SAR BYTE 0xE5 MSTORE 0xD3 0xD0 0x5F PUSH5 0xE67713C6E7 DUP10 0xD6 CALLDATASIZE 0x4D REVERT 0xED GAS 0xE6 LOG2 LOG2 PUSH5 0x736F6C6343 STOP ADDMOD SLT STOP CALLER "
				},
				"gasEstimates": {
					"creation": {
						"codeDepositCost": "538800",
						"executionCost": "575",
						"totalCost": "539375"
					},
					"external": {
						"insert(string,uint256,bool)": "infinite",
						"name()": "infinite",
						"s1()": "infinite",
						"structReturns()": "infinite"
					}
				},
				"methodIdentifiers": {
					"insert(string,uint256,bool)": "c30655a2",
					"name()": "06fdde03",
					"s1()": "6cc014de",
					"structReturns()": "3a62251a"
				}
			},
			"storageLayout": {
				"storage": [
					{
						"astId": 11,
						"contract": "contracts/17struct.sol:demo",
						"label": "s1",
						"offset": 0,
						"slot": "0",
						"type": "t_struct(student)8_storage"
					}
				],
				"types": {
					"t_bool": {
						"encoding": "inplace",
						"label": "bool",
						"numberOfBytes": "1"
					},
					"t_string_storage": {
						"encoding": "bytes",
						"label": "string",
						"numberOfBytes": "32"
					},
					"t_struct(student)8_storage": {
						"encoding": "inplace",
						"label": "struct demo.student",
						"members": [
							{
								"astId": 3,
								"contract": "contracts/17struct.sol:demo",
								"label": "name",
								"offset": 0,
								"slot": "0",
								"type": "t_string_storage"
							},
							{
								"astId": 5,
								"contract": "contracts/17struct.sol:demo",
								"label": "roll",
								"offset": 0,
								"slot": "1",
								"type": "t_uint256"
							},
							{
								"astId": 7,
								"contract": "contracts/17struct.sol:demo",
								"label": "pass",
								"offset": 0,
								"slot": "2",
								"type": "t_bool"
							}
						],
						"numberOfBytes": "96"
					},
					"t_uint256": {
						"encoding": "inplace",
						"label": "uint256",
						"numberOfBytes": "32"
					}
				}
			},
			"userdoc": {
				"kind": "user",
				"methods": {},
				"version": 1
			}
		}
	}
}