{
	"contracts/14Referencedatatype.sol": {
		"demo": {
			"abi": [
				{
					"inputs": [
						{
							"internalType": "uint256[5]",
							"name": "brr",
							"type": "uint256[5]"
						}
					],
					"name": "Cal",
					"outputs": [
						{
							"internalType": "uint256[5]",
							"name": "",
							"type": "uint256[5]"
						}
					],
					"stateMutability": "pure",
					"type": "function"
				},
				{
					"inputs": [
						{
							"internalType": "uint256",
							"name": "",
							"type": "uint256"
						}
					],
					"name": "arr",
					"outputs": [
						{
							"internalType": "uint256",
							"name": "",
							"type": "uint256"
						}
					],
					"stateMutability": "view",
					"type": "function"
				},
				{
					"inputs": [
						{
							"internalType": "uint256[5]",
							"name": "brr",
							"type": "uint256[5]"
						}
					],
					"name": "mulBy2",
					"outputs": [
						{
							"internalType": "uint256[5]",
							"name": "",
							"type": "uint256[5]"
						}
					],
					"stateMutability": "pure",
					"type": "function"
				},
				{
					"inputs": [],
					"name": "returnArr",
					"outputs": [
						{
							"internalType": "uint256[5]",
							"name": "",
							"type": "uint256[5]"
						}
					],
					"stateMutability": "view",
					"type": "function"
				}
			],
			"devdoc": {
				"kind": "dev",
				"methods": {},
				"version": 1
			},
			"evm": {
				"assembly": "    /* \"contracts/14Referencedatatype.sol\":72:806  contract demo{... */\n  mstore(0x40, 0x80)\n    /* \"contracts/14Referencedatatype.sol\":92:126  uint[5] public arr = [10,11,3,4,5] */\n  mload(0x40)\n  dup1\n  0xa0\n  add\n  0x40\n  mstore\n  dup1\n    /* \"contracts/14Referencedatatype.sol\":114:116  10 */\n  0x0a\n    /* \"contracts/14Referencedatatype.sol\":92:126  uint[5] public arr = [10,11,3,4,5] */\n  0xff\n  and\n  dup2\n  mstore\n  0x20\n  add\n    /* \"contracts/14Referencedatatype.sol\":117:119  11 */\n  0x0b\n    /* \"contracts/14Referencedatatype.sol\":92:126  uint[5] public arr = [10,11,3,4,5] */\n  0xff\n  and\n  dup2\n  mstore\n  0x20\n  add\n    /* \"contracts/14Referencedatatype.sol\":120:121  3 */\n  0x03\n    /* \"contracts/14Referencedatatype.sol\":92:126  uint[5] public arr = [10,11,3,4,5] */\n  0xff\n  and\n  dup2\n  mstore\n  0x20\n  add\n    /* \"contracts/14Referencedatatype.sol\":122:123  4 */\n  0x04\n    /* \"contracts/14Referencedatatype.sol\":92:126  uint[5] public arr = [10,11,3,4,5] */\n  0xff\n  and\n  dup2\n  mstore\n  0x20\n  add\n    /* \"contracts/14Referencedatatype.sol\":124:125  5 */\n  0x05\n    /* \"contracts/14Referencedatatype.sol\":92:126  uint[5] public arr = [10,11,3,4,5] */\n  0xff\n  and\n  dup2\n  mstore\n  pop\n  0x00\n  swap1\n  0x05\n  tag_1\n  swap3\n  swap2\n  swap1\n  tag_2\n  jump\t// in\ntag_1:\n  pop\n    /* \"contracts/14Referencedatatype.sol\":72:806  contract demo{... */\n  callvalue\n  dup1\n  iszero\n  tag_3\n  jumpi\n  0x00\n  dup1\n  revert\ntag_3:\n  pop\n  jump(tag_4)\ntag_2:\n  dup3\n  0x05\n  dup2\n  add\n  swap3\n  dup3\n  iszero\n  tag_5\n  jumpi\n  swap2\n  0x20\n  mul\n  dup3\n  add\ntag_6:\n  dup3\n  dup2\n  gt\n  iszero\n  tag_7\n  jumpi\n  dup3\n  mload\n  dup3\n  swap1\n  0xff\n  and\n  swap1\n  sstore\n  swap2\n  0x20\n  add\n  swap2\n  swap1\n  0x01\n  add\n  swap1\n  jump(tag_6)\ntag_7:\ntag_5:\n  pop\n  swap1\n  pop\n  tag_8\n  swap2\n  swap1\n  tag_9\n  jump\t// in\ntag_8:\n  pop\n  swap1\n  jump\t// out\ntag_9:\ntag_10:\n  dup1\n  dup3\n  gt\n  iszero\n  tag_11\n  jumpi\n  0x00\n  dup2\n  0x00\n  swap1\n  sstore\n  pop\n  0x01\n  add\n  jump(tag_10)\ntag_11:\n  pop\n  swap1\n  jump\t// out\ntag_4:\n  dataSize(sub_0)\n  dup1\n  dataOffset(sub_0)\n  0x00\n  codecopy\n  0x00\n  return\nstop\n\nsub_0: assembly {\n        /* \"contracts/14Referencedatatype.sol\":72:806  contract demo{... */\n      mstore(0x40, 0x80)\n      callvalue\n      dup1\n      iszero\n      tag_1\n      jumpi\n      0x00\n      dup1\n      revert\n    tag_1:\n      pop\n      jumpi(tag_2, lt(calldatasize, 0x04))\n      shr(0xe0, calldataload(0x00))\n      dup1\n      0x71e5ee5f\n      eq\n      tag_3\n      jumpi\n      dup1\n      0x88046c6a\n      eq\n      tag_4\n      jumpi\n      dup1\n      0x8f8686e6\n      eq\n      tag_5\n      jumpi\n      dup1\n      0xdcaa0936\n      eq\n      tag_6\n      jumpi\n    tag_2:\n      0x00\n      dup1\n      revert\n        /* \"contracts/14Referencedatatype.sol\":92:126  uint[5] public arr = [10,11,3,4,5] */\n    tag_3:\n      tag_7\n      0x04\n      dup1\n      calldatasize\n      sub\n      dup2\n      add\n      swap1\n      tag_8\n      swap2\n      swap1\n      tag_9\n      jump\t// in\n    tag_8:\n      tag_10\n      jump\t// in\n    tag_7:\n      mload(0x40)\n      tag_11\n      swap2\n      swap1\n      tag_12\n      jump\t// in\n    tag_11:\n      mload(0x40)\n      dup1\n      swap2\n      sub\n      swap1\n      return\n        /* \"contracts/14Referencedatatype.sol\":694:787  function returnArr() public view returns(uint[5] memory){... */\n    tag_4:\n      tag_13\n      tag_14\n      jump\t// in\n    tag_13:\n      mload(0x40)\n      tag_15\n      swap2\n      swap1\n      tag_16\n      jump\t// in\n    tag_15:\n      mload(0x40)\n      dup1\n      swap2\n      sub\n      swap1\n      return\n        /* \"contracts/14Referencedatatype.sol\":293:478  function mulBy2(uint[5] memory brr) public pure returns(uint[5] memory) {... */\n    tag_5:\n      tag_17\n      0x04\n      dup1\n      calldatasize\n      sub\n      dup2\n      add\n      swap1\n      tag_18\n      swap2\n      swap1\n      tag_19\n      jump\t// in\n    tag_18:\n      tag_20\n      jump\t// in\n    tag_17:\n      mload(0x40)\n      tag_21\n      swap2\n      swap1\n      tag_16\n      jump\t// in\n    tag_21:\n      mload(0x40)\n      dup1\n      swap2\n      sub\n      swap1\n      return\n        /* \"contracts/14Referencedatatype.sol\":488:684  function Cal(uint[5] calldata brr) public pure returns(uint[5] memory) {... */\n    tag_6:\n      tag_22\n      0x04\n      dup1\n      calldatasize\n      sub\n      dup2\n      add\n      swap1\n      tag_23\n      swap2\n      swap1\n      tag_24\n      jump\t// in\n    tag_23:\n      tag_25\n      jump\t// in\n    tag_22:\n      mload(0x40)\n      tag_26\n      swap2\n      swap1\n      tag_16\n      jump\t// in\n    tag_26:\n      mload(0x40)\n      dup1\n      swap2\n      sub\n      swap1\n      return\n        /* \"contracts/14Referencedatatype.sol\":92:126  uint[5] public arr = [10,11,3,4,5] */\n    tag_10:\n      0x00\n      dup2\n      0x05\n      dup2\n      lt\n      tag_27\n      jumpi\n      0x00\n      dup1\n      revert\n    tag_27:\n      add\n      0x00\n      swap2\n      pop\n      swap1\n      pop\n      sload\n      dup2\n      jump\t// out\n        /* \"contracts/14Referencedatatype.sol\":694:787  function returnArr() public view returns(uint[5] memory){... */\n    tag_14:\n        /* \"contracts/14Referencedatatype.sol\":735:749  uint[5] memory */\n      tag_29\n      tag_30\n      jump\t// in\n    tag_29:\n        /* \"contracts/14Referencedatatype.sol\":772:775  arr */\n      0x00\n        /* \"contracts/14Referencedatatype.sol\":765:775  return arr */\n      0x05\n      dup1\n      0x20\n      mul\n      mload(0x40)\n      swap1\n      dup2\n      add\n      0x40\n      mstore\n      dup1\n      swap3\n      swap2\n      swap1\n      dup3\n      0x05\n      dup1\n      iszero\n      tag_32\n      jumpi\n      0x20\n      mul\n      dup3\n      add\n      swap2\n    tag_33:\n      dup2\n      sload\n      dup2\n      mstore\n      0x20\n      add\n      swap1\n      0x01\n      add\n      swap1\n      dup1\n      dup4\n      gt\n      tag_33\n      jumpi\n    tag_32:\n      pop\n      pop\n      pop\n      pop\n      pop\n      swap1\n      pop\n        /* \"contracts/14Referencedatatype.sol\":694:787  function returnArr() public view returns(uint[5] memory){... */\n      swap1\n      jump\t// out\n        /* \"contracts/14Referencedatatype.sol\":293:478  function mulBy2(uint[5] memory brr) public pure returns(uint[5] memory) {... */\n    tag_20:\n        /* \"contracts/14Referencedatatype.sol\":349:363  uint[5] memory */\n      tag_34\n      tag_30\n      jump\t// in\n    tag_34:\n        /* \"contracts/14Referencedatatype.sol\":376:382  uint i */\n      0x00\n        /* \"contracts/14Referencedatatype.sol\":393:450  for(i= 0; i<5; i++){... */\n    tag_36:\n        /* \"contracts/14Referencedatatype.sol\":405:406  5 */\n      0x05\n        /* \"contracts/14Referencedatatype.sol\":403:404  i */\n      dup2\n        /* \"contracts/14Referencedatatype.sol\":403:406  i<5 */\n      lt\n        /* \"contracts/14Referencedatatype.sol\":393:450  for(i= 0; i<5; i++){... */\n      iszero\n      tag_37\n      jumpi\n        /* \"contracts/14Referencedatatype.sol\":437:438  2 */\n      0x02\n        /* \"contracts/14Referencedatatype.sol\":427:430  brr */\n      dup4\n        /* \"contracts/14Referencedatatype.sol\":431:432  i */\n      dup3\n        /* \"contracts/14Referencedatatype.sol\":427:433  brr[i] */\n      0x05\n      dup2\n      lt\n      tag_39\n      jumpi\n      tag_40\n      tag_41\n      jump\t// in\n    tag_40:\n    tag_39:\n      0x20\n      mul\n      add\n        /* \"contracts/14Referencedatatype.sol\":427:438  brr[i] *= 2 */\n      dup2\n      dup2\n      mload\n      tag_42\n      swap2\n      swap1\n      tag_43\n      jump\t// in\n    tag_42:\n      swap2\n      pop\n      dup2\n      dup2\n      mstore\n      pop\n      pop\n        /* \"contracts/14Referencedatatype.sol\":408:411  i++ */\n      dup1\n      dup1\n      tag_44\n      swap1\n      tag_45\n      jump\t// in\n    tag_44:\n      swap2\n      pop\n      pop\n        /* \"contracts/14Referencedatatype.sol\":393:450  for(i= 0; i<5; i++){... */\n      jump(tag_36)\n    tag_37:\n        /* \"contracts/14Referencedatatype.sol\":467:470  brr */\n      dup3\n        /* \"contracts/14Referencedatatype.sol\":460:470  return brr */\n      swap2\n      pop\n      pop\n        /* \"contracts/14Referencedatatype.sol\":293:478  function mulBy2(uint[5] memory brr) public pure returns(uint[5] memory) {... */\n      swap2\n      swap1\n      pop\n      jump\t// out\n        /* \"contracts/14Referencedatatype.sol\":488:684  function Cal(uint[5] calldata brr) public pure returns(uint[5] memory) {... */\n    tag_25:\n        /* \"contracts/14Referencedatatype.sol\":543:557  uint[5] memory */\n      tag_46\n      tag_30\n      jump\t// in\n    tag_46:\n        /* \"contracts/14Referencedatatype.sol\":673:676  brr */\n      dup2\n        /* \"contracts/14Referencedatatype.sol\":666:676  return brr */\n      0x05\n      dup1\n      0x20\n      mul\n      mload(0x40)\n      swap1\n      dup2\n      add\n      0x40\n      mstore\n      dup1\n      swap3\n      swap2\n      swap1\n      dup3\n      mul(0x20, 0x05)\n      dup1\n      dup3\n      dup5\n      calldatacopy\n      0x00\n      dup2\n      dup5\n      add\n      mstore\n      not(0x1f)\n      0x1f\n      dup3\n      add\n      and\n      swap1\n      pop\n      dup1\n      dup4\n      add\n      swap3\n      pop\n      pop\n      pop\n      pop\n      pop\n      pop\n      swap1\n      pop\n        /* \"contracts/14Referencedatatype.sol\":488:684  function Cal(uint[5] calldata brr) public pure returns(uint[5] memory) {... */\n      swap2\n      swap1\n      pop\n      jump\t// out\n    tag_30:\n      mload(0x40)\n      dup1\n      0xa0\n      add\n      0x40\n      mstore\n      dup1\n      0x05\n      swap1\n      0x20\n      dup3\n      mul\n      dup1\n      calldatasize\n      dup4\n      calldatacopy\n      dup1\n      dup3\n      add\n      swap2\n      pop\n      pop\n      swap1\n      pop\n      pop\n      swap1\n      jump\t// out\n        /* \"#utility.yul\":7:82   */\n    tag_48:\n        /* \"#utility.yul\":40:46   */\n      0x00\n        /* \"#utility.yul\":73:75   */\n      0x40\n        /* \"#utility.yul\":67:76   */\n      mload\n        /* \"#utility.yul\":57:76   */\n      swap1\n      pop\n        /* \"#utility.yul\":7:82   */\n      swap1\n      jump\t// out\n        /* \"#utility.yul\":88:205   */\n    tag_49:\n        /* \"#utility.yul\":197:198   */\n      0x00\n        /* \"#utility.yul\":194:195   */\n      dup1\n        /* \"#utility.yul\":187:199   */\n      revert\n        /* \"#utility.yul\":334:411   */\n    tag_51:\n        /* \"#utility.yul\":371:378   */\n      0x00\n        /* \"#utility.yul\":400:405   */\n      dup2\n        /* \"#utility.yul\":389:405   */\n      swap1\n      pop\n        /* \"#utility.yul\":334:411   */\n      swap2\n      swap1\n      pop\n      jump\t// out\n        /* \"#utility.yul\":417:539   */\n    tag_52:\n        /* \"#utility.yul\":490:514   */\n      tag_79\n        /* \"#utility.yul\":508:513   */\n      dup2\n        /* \"#utility.yul\":490:514   */\n      tag_51\n      jump\t// in\n    tag_79:\n        /* \"#utility.yul\":483:488   */\n      dup2\n        /* \"#utility.yul\":480:515   */\n      eq\n        /* \"#utility.yul\":470:533   */\n      tag_80\n      jumpi\n        /* \"#utility.yul\":529:530   */\n      0x00\n        /* \"#utility.yul\":526:527   */\n      dup1\n        /* \"#utility.yul\":519:531   */\n      revert\n        /* \"#utility.yul\":470:533   */\n    tag_80:\n        /* \"#utility.yul\":417:539   */\n      pop\n      jump\t// out\n        /* \"#utility.yul\":545:684   */\n    tag_53:\n        /* \"#utility.yul\":591:596   */\n      0x00\n        /* \"#utility.yul\":629:635   */\n      dup2\n        /* \"#utility.yul\":616:636   */\n      calldataload\n        /* \"#utility.yul\":607:636   */\n      swap1\n      pop\n        /* \"#utility.yul\":645:678   */\n      tag_82\n        /* \"#utility.yul\":672:677   */\n      dup2\n        /* \"#utility.yul\":645:678   */\n      tag_52\n      jump\t// in\n    tag_82:\n        /* \"#utility.yul\":545:684   */\n      swap3\n      swap2\n      pop\n      pop\n      jump\t// out\n        /* \"#utility.yul\":690:1019   */\n    tag_9:\n        /* \"#utility.yul\":749:755   */\n      0x00\n        /* \"#utility.yul\":798:800   */\n      0x20\n        /* \"#utility.yul\":786:795   */\n      dup3\n        /* \"#utility.yul\":777:784   */\n      dup5\n        /* \"#utility.yul\":773:796   */\n      sub\n        /* \"#utility.yul\":769:801   */\n      slt\n        /* \"#utility.yul\":766:885   */\n      iszero\n      tag_84\n      jumpi\n        /* \"#utility.yul\":804:883   */\n      tag_85\n      tag_49\n      jump\t// in\n    tag_85:\n        /* \"#utility.yul\":766:885   */\n    tag_84:\n        /* \"#utility.yul\":924:925   */\n      0x00\n        /* \"#utility.yul\":949:1002   */\n      tag_86\n        /* \"#utility.yul\":994:1001   */\n      dup5\n        /* \"#utility.yul\":985:991   */\n      dup3\n        /* \"#utility.yul\":974:983   */\n      dup6\n        /* \"#utility.yul\":970:992   */\n      add\n        /* \"#utility.yul\":949:1002   */\n      tag_53\n      jump\t// in\n    tag_86:\n        /* \"#utility.yul\":939:1002   */\n      swap2\n      pop\n        /* \"#utility.yul\":895:1012   */\n      pop\n        /* \"#utility.yul\":690:1019   */\n      swap3\n      swap2\n      pop\n      pop\n      jump\t// out\n        /* \"#utility.yul\":1025:1143   */\n    tag_54:\n        /* \"#utility.yul\":1112:1136   */\n      tag_88\n        /* \"#utility.yul\":1130:1135   */\n      dup2\n        /* \"#utility.yul\":1112:1136   */\n      tag_51\n      jump\t// in\n    tag_88:\n        /* \"#utility.yul\":1107:1110   */\n      dup3\n        /* \"#utility.yul\":1100:1137   */\n      mstore\n        /* \"#utility.yul\":1025:1143   */\n      pop\n      pop\n      jump\t// out\n        /* \"#utility.yul\":1149:1371   */\n    tag_12:\n        /* \"#utility.yul\":1242:1246   */\n      0x00\n        /* \"#utility.yul\":1280:1282   */\n      0x20\n        /* \"#utility.yul\":1269:1278   */\n      dup3\n        /* \"#utility.yul\":1265:1283   */\n      add\n        /* \"#utility.yul\":1257:1283   */\n      swap1\n      pop\n        /* \"#utility.yul\":1293:1364   */\n      tag_90\n        /* \"#utility.yul\":1361:1362   */\n      0x00\n        /* \"#utility.yul\":1350:1359   */\n      dup4\n        /* \"#utility.yul\":1346:1363   */\n      add\n        /* \"#utility.yul\":1337:1343   */\n      dup5\n        /* \"#utility.yul\":1293:1364   */\n      tag_54\n      jump\t// in\n    tag_90:\n        /* \"#utility.yul\":1149:1371   */\n      swap3\n      swap2\n      pop\n      pop\n      jump\t// out\n        /* \"#utility.yul\":1377:1481   */\n    tag_55:\n        /* \"#utility.yul\":1442:1448   */\n      0x00\n        /* \"#utility.yul\":1470:1474   */\n      0x05\n        /* \"#utility.yul\":1460:1474   */\n      swap1\n      pop\n        /* \"#utility.yul\":1377:1481   */\n      swap2\n      swap1\n      pop\n      jump\t// out\n        /* \"#utility.yul\":1487:1630   */\n    tag_56:\n        /* \"#utility.yul\":1584:1595   */\n      0x00\n        /* \"#utility.yul\":1621:1624   */\n      dup2\n        /* \"#utility.yul\":1606:1624   */\n      swap1\n      pop\n        /* \"#utility.yul\":1487:1630   */\n      swap3\n      swap2\n      pop\n      pop\n      jump\t// out\n        /* \"#utility.yul\":1636:1734   */\n    tag_57:\n        /* \"#utility.yul\":1701:1705   */\n      0x00\n        /* \"#utility.yul\":1724:1727   */\n      dup2\n        /* \"#utility.yul\":1716:1727   */\n      swap1\n      pop\n        /* \"#utility.yul\":1636:1734   */\n      swap2\n      swap1\n      pop\n      jump\t// out\n        /* \"#utility.yul\":1740:1848   */\n    tag_58:\n        /* \"#utility.yul\":1817:1841   */\n      tag_95\n        /* \"#utility.yul\":1835:1840   */\n      dup2\n        /* \"#utility.yul\":1817:1841   */\n      tag_51\n      jump\t// in\n    tag_95:\n        /* \"#utility.yul\":1812:1815   */\n      dup3\n        /* \"#utility.yul\":1805:1842   */\n      mstore\n        /* \"#utility.yul\":1740:1848   */\n      pop\n      pop\n      jump\t// out\n        /* \"#utility.yul\":1854:2033   */\n    tag_59:\n        /* \"#utility.yul\":1923:1933   */\n      0x00\n        /* \"#utility.yul\":1944:1990   */\n      tag_97\n        /* \"#utility.yul\":1986:1989   */\n      dup4\n        /* \"#utility.yul\":1978:1984   */\n      dup4\n        /* \"#utility.yul\":1944:1990   */\n      tag_58\n      jump\t// in\n    tag_97:\n        /* \"#utility.yul\":2022:2026   */\n      0x20\n        /* \"#utility.yul\":2017:2020   */\n      dup4\n        /* \"#utility.yul\":2013:2027   */\n      add\n        /* \"#utility.yul\":1999:2027   */\n      swap1\n      pop\n        /* \"#utility.yul\":1854:2033   */\n      swap3\n      swap2\n      pop\n      pop\n      jump\t// out\n        /* \"#utility.yul\":2039:2150   */\n    tag_60:\n        /* \"#utility.yul\":2107:2111   */\n      0x00\n        /* \"#utility.yul\":2139:2143   */\n      0x20\n        /* \"#utility.yul\":2134:2137   */\n      dup3\n        /* \"#utility.yul\":2130:2144   */\n      add\n        /* \"#utility.yul\":2122:2144   */\n      swap1\n      pop\n        /* \"#utility.yul\":2039:2150   */\n      swap2\n      swap1\n      pop\n      jump\t// out\n        /* \"#utility.yul\":2188:2882   */\n    tag_61:\n        /* \"#utility.yul\":2324:2376   */\n      tag_100\n        /* \"#utility.yul\":2370:2375   */\n      dup2\n        /* \"#utility.yul\":2324:2376   */\n      tag_55\n      jump\t// in\n    tag_100:\n        /* \"#utility.yul\":2392:2476   */\n      tag_101\n        /* \"#utility.yul\":2469:2475   */\n      dup2\n        /* \"#utility.yul\":2464:2467   */\n      dup5\n        /* \"#utility.yul\":2392:2476   */\n      tag_56\n      jump\t// in\n    tag_101:\n        /* \"#utility.yul\":2385:2476   */\n      swap3\n      pop\n        /* \"#utility.yul\":2500:2554   */\n      tag_102\n        /* \"#utility.yul\":2548:2553   */\n      dup3\n        /* \"#utility.yul\":2500:2554   */\n      tag_57\n      jump\t// in\n    tag_102:\n        /* \"#utility.yul\":2577:2584   */\n      dup1\n        /* \"#utility.yul\":2608:2609   */\n      0x00\n        /* \"#utility.yul\":2593:2875   */\n    tag_103:\n        /* \"#utility.yul\":2618:2624   */\n      dup4\n        /* \"#utility.yul\":2615:2616   */\n      dup2\n        /* \"#utility.yul\":2612:2625   */\n      lt\n        /* \"#utility.yul\":2593:2875   */\n      iszero\n      tag_105\n      jumpi\n        /* \"#utility.yul\":2694:2700   */\n      dup2\n        /* \"#utility.yul\":2688:2701   */\n      mload\n        /* \"#utility.yul\":2721:2784   */\n      tag_106\n        /* \"#utility.yul\":2780:2783   */\n      dup8\n        /* \"#utility.yul\":2765:2778   */\n      dup3\n        /* \"#utility.yul\":2721:2784   */\n      tag_59\n      jump\t// in\n    tag_106:\n        /* \"#utility.yul\":2714:2784   */\n      swap7\n      pop\n        /* \"#utility.yul\":2807:2865   */\n      tag_107\n        /* \"#utility.yul\":2858:2864   */\n      dup4\n        /* \"#utility.yul\":2807:2865   */\n      tag_60\n      jump\t// in\n    tag_107:\n        /* \"#utility.yul\":2797:2865   */\n      swap3\n      pop\n        /* \"#utility.yul\":2653:2875   */\n      pop\n        /* \"#utility.yul\":2640:2641   */\n      0x01\n        /* \"#utility.yul\":2637:2638   */\n      dup2\n        /* \"#utility.yul\":2633:2642   */\n      add\n        /* \"#utility.yul\":2628:2642   */\n      swap1\n      pop\n        /* \"#utility.yul\":2593:2875   */\n      jump(tag_103)\n    tag_105:\n        /* \"#utility.yul\":2597:2611   */\n      pop\n        /* \"#utility.yul\":2300:2882   */\n      pop\n      pop\n      pop\n        /* \"#utility.yul\":2188:2882   */\n      pop\n      pop\n      jump\t// out\n        /* \"#utility.yul\":2888:3203   */\n    tag_16:\n        /* \"#utility.yul\":3027:3031   */\n      0x00\n        /* \"#utility.yul\":3065:3068   */\n      0xa0\n        /* \"#utility.yul\":3054:3063   */\n      dup3\n        /* \"#utility.yul\":3050:3069   */\n      add\n        /* \"#utility.yul\":3042:3069   */\n      swap1\n      pop\n        /* \"#utility.yul\":3079:3196   */\n      tag_109\n        /* \"#utility.yul\":3193:3194   */\n      0x00\n        /* \"#utility.yul\":3182:3191   */\n      dup4\n        /* \"#utility.yul\":3178:3195   */\n      add\n        /* \"#utility.yul\":3169:3175   */\n      dup5\n        /* \"#utility.yul\":3079:3196   */\n      tag_61\n      jump\t// in\n    tag_109:\n        /* \"#utility.yul\":2888:3203   */\n      swap3\n      swap2\n      pop\n      pop\n      jump\t// out\n        /* \"#utility.yul\":3209:3326   */\n    tag_62:\n        /* \"#utility.yul\":3318:3319   */\n      0x00\n        /* \"#utility.yul\":3315:3316   */\n      dup1\n        /* \"#utility.yul\":3308:3320   */\n      revert\n        /* \"#utility.yul\":3332:3434   */\n    tag_63:\n        /* \"#utility.yul\":3373:3379   */\n      0x00\n        /* \"#utility.yul\":3424:3426   */\n      0x1f\n        /* \"#utility.yul\":3420:3427   */\n      not\n        /* \"#utility.yul\":3415:3417   */\n      0x1f\n        /* \"#utility.yul\":3408:3413   */\n      dup4\n        /* \"#utility.yul\":3404:3418   */\n      add\n        /* \"#utility.yul\":3400:3428   */\n      and\n        /* \"#utility.yul\":3390:3428   */\n      swap1\n      pop\n        /* \"#utility.yul\":3332:3434   */\n      swap2\n      swap1\n      pop\n      jump\t// out\n        /* \"#utility.yul\":3440:3620   */\n    tag_64:\n        /* \"#utility.yul\":3488:3565   */\n      0x4e487b7100000000000000000000000000000000000000000000000000000000\n        /* \"#utility.yul\":3485:3486   */\n      0x00\n        /* \"#utility.yul\":3478:3566   */\n      mstore\n        /* \"#utility.yul\":3585:3589   */\n      0x41\n        /* \"#utility.yul\":3582:3583   */\n      0x04\n        /* \"#utility.yul\":3575:3590   */\n      mstore\n        /* \"#utility.yul\":3609:3613   */\n      0x24\n        /* \"#utility.yul\":3606:3607   */\n      0x00\n        /* \"#utility.yul\":3599:3614   */\n      revert\n        /* \"#utility.yul\":3626:3907   */\n    tag_65:\n        /* \"#utility.yul\":3709:3736   */\n      tag_114\n        /* \"#utility.yul\":3731:3735   */\n      dup3\n        /* \"#utility.yul\":3709:3736   */\n      tag_63\n      jump\t// in\n    tag_114:\n        /* \"#utility.yul\":3701:3707   */\n      dup2\n        /* \"#utility.yul\":3697:3737   */\n      add\n        /* \"#utility.yul\":3839:3845   */\n      dup2\n        /* \"#utility.yul\":3827:3837   */\n      dup2\n        /* \"#utility.yul\":3824:3846   */\n      lt\n        /* \"#utility.yul\":3803:3821   */\n      0xffffffffffffffff\n        /* \"#utility.yul\":3791:3801   */\n      dup3\n        /* \"#utility.yul\":3788:3822   */\n      gt\n        /* \"#utility.yul\":3785:3847   */\n      or\n        /* \"#utility.yul\":3782:3870   */\n      iszero\n      tag_115\n      jumpi\n        /* \"#utility.yul\":3850:3868   */\n      tag_116\n      tag_64\n      jump\t// in\n    tag_116:\n        /* \"#utility.yul\":3782:3870   */\n    tag_115:\n        /* \"#utility.yul\":3890:3900   */\n      dup1\n        /* \"#utility.yul\":3886:3888   */\n      0x40\n        /* \"#utility.yul\":3879:3901   */\n      mstore\n        /* \"#utility.yul\":3669:3907   */\n      pop\n        /* \"#utility.yul\":3626:3907   */\n      pop\n      pop\n      jump\t// out\n        /* \"#utility.yul\":3913:4042   */\n    tag_66:\n        /* \"#utility.yul\":3947:3953   */\n      0x00\n        /* \"#utility.yul\":3974:3994   */\n      tag_118\n      tag_48\n      jump\t// in\n    tag_118:\n        /* \"#utility.yul\":3964:3994   */\n      swap1\n      pop\n        /* \"#utility.yul\":4003:4036   */\n      tag_119\n        /* \"#utility.yul\":4031:4035   */\n      dup3\n        /* \"#utility.yul\":4023:4029   */\n      dup3\n        /* \"#utility.yul\":4003:4036   */\n      tag_65\n      jump\t// in\n    tag_119:\n        /* \"#utility.yul\":3913:4042   */\n      swap2\n      swap1\n      pop\n      jump\t// out\n        /* \"#utility.yul\":4048:4297   */\n    tag_67:\n        /* \"#utility.yul\":4123:4127   */\n      0x00\n        /* \"#utility.yul\":4213:4231   */\n      0xffffffffffffffff\n        /* \"#utility.yul\":4205:4211   */\n      dup3\n        /* \"#utility.yul\":4202:4232   */\n      gt\n        /* \"#utility.yul\":4199:4255   */\n      iszero\n      tag_121\n      jumpi\n        /* \"#utility.yul\":4235:4253   */\n      tag_122\n      tag_64\n      jump\t// in\n    tag_122:\n        /* \"#utility.yul\":4199:4255   */\n    tag_121:\n        /* \"#utility.yul\":4285:4289   */\n      0x20\n        /* \"#utility.yul\":4277:4283   */\n      dup3\n        /* \"#utility.yul\":4273:4290   */\n      mul\n        /* \"#utility.yul\":4265:4290   */\n      swap1\n      pop\n        /* \"#utility.yul\":4048:4297   */\n      swap2\n      swap1\n      pop\n      jump\t// out\n        /* \"#utility.yul\":4303:4420   */\n    tag_68:\n        /* \"#utility.yul\":4412:4413   */\n      0x00\n        /* \"#utility.yul\":4409:4410   */\n      dup1\n        /* \"#utility.yul\":4402:4414   */\n      revert\n        /* \"#utility.yul\":4444:5087   */\n    tag_69:\n        /* \"#utility.yul\":4538:4543   */\n      0x00\n        /* \"#utility.yul\":4563:4642   */\n      tag_125\n        /* \"#utility.yul\":4579:4641   */\n      tag_126\n        /* \"#utility.yul\":4634:4640   */\n      dup5\n        /* \"#utility.yul\":4579:4641   */\n      tag_67\n      jump\t// in\n    tag_126:\n        /* \"#utility.yul\":4563:4642   */\n      tag_66\n      jump\t// in\n    tag_125:\n        /* \"#utility.yul\":4554:4642   */\n      swap1\n      pop\n        /* \"#utility.yul\":4662:4667   */\n      dup1\n        /* \"#utility.yul\":4715:4719   */\n      0x20\n        /* \"#utility.yul\":4707:4713   */\n      dup5\n        /* \"#utility.yul\":4703:4720   */\n      mul\n        /* \"#utility.yul\":4695:4701   */\n      dup4\n        /* \"#utility.yul\":4691:4721   */\n      add\n        /* \"#utility.yul\":4744:4747   */\n      dup6\n        /* \"#utility.yul\":4736:4742   */\n      dup2\n        /* \"#utility.yul\":4733:4748   */\n      gt\n        /* \"#utility.yul\":4730:4852   */\n      iszero\n      tag_127\n      jumpi\n        /* \"#utility.yul\":4763:4842   */\n      tag_128\n      tag_68\n      jump\t// in\n    tag_128:\n        /* \"#utility.yul\":4730:4852   */\n    tag_127:\n        /* \"#utility.yul\":4878:4884   */\n      dup4\n        /* \"#utility.yul\":4861:5081   */\n    tag_129:\n        /* \"#utility.yul\":4895:4901   */\n      dup2\n        /* \"#utility.yul\":4890:4893   */\n      dup2\n        /* \"#utility.yul\":4887:4902   */\n      lt\n        /* \"#utility.yul\":4861:5081   */\n      iszero\n      tag_131\n      jumpi\n        /* \"#utility.yul\":4970:4973   */\n      dup1\n        /* \"#utility.yul\":4999:5036   */\n      tag_132\n        /* \"#utility.yul\":5032:5035   */\n      dup9\n        /* \"#utility.yul\":5020:5030   */\n      dup3\n        /* \"#utility.yul\":4999:5036   */\n      tag_53\n      jump\t// in\n    tag_132:\n        /* \"#utility.yul\":4994:4997   */\n      dup5\n        /* \"#utility.yul\":4987:5037   */\n      mstore\n        /* \"#utility.yul\":5066:5070   */\n      0x20\n        /* \"#utility.yul\":5061:5064   */\n      dup5\n        /* \"#utility.yul\":5057:5071   */\n      add\n        /* \"#utility.yul\":5050:5071   */\n      swap4\n      pop\n        /* \"#utility.yul\":4937:5081   */\n      pop\n        /* \"#utility.yul\":4921:4925   */\n      0x20\n        /* \"#utility.yul\":4916:4919   */\n      dup2\n        /* \"#utility.yul\":4912:4926   */\n      add\n        /* \"#utility.yul\":4905:4926   */\n      swap1\n      pop\n        /* \"#utility.yul\":4861:5081   */\n      jump(tag_129)\n    tag_131:\n        /* \"#utility.yul\":4865:4886   */\n      pop\n        /* \"#utility.yul\":4544:5087   */\n      pop\n      pop\n        /* \"#utility.yul\":4444:5087   */\n      swap4\n      swap3\n      pop\n      pop\n      pop\n      jump\t// out\n        /* \"#utility.yul\":5111:5450   */\n    tag_70:\n        /* \"#utility.yul\":5180:5185   */\n      0x00\n        /* \"#utility.yul\":5229:5232   */\n      dup3\n        /* \"#utility.yul\":5222:5226   */\n      0x1f\n        /* \"#utility.yul\":5214:5220   */\n      dup4\n        /* \"#utility.yul\":5210:5227   */\n      add\n        /* \"#utility.yul\":5206:5233   */\n      slt\n        /* \"#utility.yul\":5196:5318   */\n      tag_134\n      jumpi\n        /* \"#utility.yul\":5237:5316   */\n      tag_135\n      tag_62\n      jump\t// in\n    tag_135:\n        /* \"#utility.yul\":5196:5318   */\n    tag_134:\n        /* \"#utility.yul\":5341:5345   */\n      0x05\n        /* \"#utility.yul\":5363:5444   */\n      tag_136\n        /* \"#utility.yul\":5440:5443   */\n      dup5\n        /* \"#utility.yul\":5432:5438   */\n      dup3\n        /* \"#utility.yul\":5424:5430   */\n      dup6\n        /* \"#utility.yul\":5363:5444   */\n      tag_69\n      jump\t// in\n    tag_136:\n        /* \"#utility.yul\":5354:5444   */\n      swap2\n      pop\n        /* \"#utility.yul\":5186:5450   */\n      pop\n        /* \"#utility.yul\":5111:5450   */\n      swap3\n      swap2\n      pop\n      pop\n      jump\t// out\n        /* \"#utility.yul\":5456:5832   */\n    tag_19:\n        /* \"#utility.yul\":5538:5544   */\n      0x00\n        /* \"#utility.yul\":5587:5590   */\n      0xa0\n        /* \"#utility.yul\":5575:5584   */\n      dup3\n        /* \"#utility.yul\":5566:5573   */\n      dup5\n        /* \"#utility.yul\":5562:5585   */\n      sub\n        /* \"#utility.yul\":5558:5591   */\n      slt\n        /* \"#utility.yul\":5555:5675   */\n      iszero\n      tag_138\n      jumpi\n        /* \"#utility.yul\":5594:5673   */\n      tag_139\n      tag_49\n      jump\t// in\n    tag_139:\n        /* \"#utility.yul\":5555:5675   */\n    tag_138:\n        /* \"#utility.yul\":5714:5715   */\n      0x00\n        /* \"#utility.yul\":5739:5815   */\n      tag_140\n        /* \"#utility.yul\":5807:5814   */\n      dup5\n        /* \"#utility.yul\":5798:5804   */\n      dup3\n        /* \"#utility.yul\":5787:5796   */\n      dup6\n        /* \"#utility.yul\":5783:5805   */\n      add\n        /* \"#utility.yul\":5739:5815   */\n      tag_70\n      jump\t// in\n    tag_140:\n        /* \"#utility.yul\":5729:5815   */\n      swap2\n      pop\n        /* \"#utility.yul\":5685:5825   */\n      pop\n        /* \"#utility.yul\":5456:5832   */\n      swap3\n      swap2\n      pop\n      pop\n      jump\t// out\n        /* \"#utility.yul\":5856:6105   */\n    tag_71:\n        /* \"#utility.yul\":5927:5935   */\n      0x00\n        /* \"#utility.yul\":5958:5964   */\n      dup2\n        /* \"#utility.yul\":5946:5964   */\n      swap1\n      pop\n        /* \"#utility.yul\":6011:6014   */\n      dup3\n        /* \"#utility.yul\":6003:6007   */\n      0x20\n        /* \"#utility.yul\":5997:6001   */\n      0x05\n        /* \"#utility.yul\":5993:6008   */\n      mul\n        /* \"#utility.yul\":5983:5991   */\n      dup3\n        /* \"#utility.yul\":5979:6009   */\n      add\n        /* \"#utility.yul\":5976:6015   */\n      gt\n        /* \"#utility.yul\":5973:6099   */\n      iszero\n      tag_142\n      jumpi\n        /* \"#utility.yul\":6018:6097   */\n      tag_143\n      tag_68\n      jump\t// in\n    tag_143:\n        /* \"#utility.yul\":5973:6099   */\n    tag_142:\n        /* \"#utility.yul\":5856:6105   */\n      swap3\n      swap2\n      pop\n      pop\n      jump\t// out\n        /* \"#utility.yul\":6111:6491   */\n    tag_24:\n        /* \"#utility.yul\":6195:6201   */\n      0x00\n        /* \"#utility.yul\":6244:6247   */\n      0xa0\n        /* \"#utility.yul\":6232:6241   */\n      dup3\n        /* \"#utility.yul\":6223:6230   */\n      dup5\n        /* \"#utility.yul\":6219:6242   */\n      sub\n        /* \"#utility.yul\":6215:6248   */\n      slt\n        /* \"#utility.yul\":6212:6332   */\n      iszero\n      tag_145\n      jumpi\n        /* \"#utility.yul\":6251:6330   */\n      tag_146\n      tag_49\n      jump\t// in\n    tag_146:\n        /* \"#utility.yul\":6212:6332   */\n    tag_145:\n        /* \"#utility.yul\":6371:6372   */\n      0x00\n        /* \"#utility.yul\":6396:6474   */\n      tag_147\n        /* \"#utility.yul\":6466:6473   */\n      dup5\n        /* \"#utility.yul\":6457:6463   */\n      dup3\n        /* \"#utility.yul\":6446:6455   */\n      dup6\n        /* \"#utility.yul\":6442:6464   */\n      add\n        /* \"#utility.yul\":6396:6474   */\n      tag_71\n      jump\t// in\n    tag_147:\n        /* \"#utility.yul\":6386:6474   */\n      swap2\n      pop\n        /* \"#utility.yul\":6342:6484   */\n      pop\n        /* \"#utility.yul\":6111:6491   */\n      swap3\n      swap2\n      pop\n      pop\n      jump\t// out\n        /* \"#utility.yul\":6497:6677   */\n    tag_41:\n        /* \"#utility.yul\":6545:6622   */\n      0x4e487b7100000000000000000000000000000000000000000000000000000000\n        /* \"#utility.yul\":6542:6543   */\n      0x00\n        /* \"#utility.yul\":6535:6623   */\n      mstore\n        /* \"#utility.yul\":6642:6646   */\n      0x32\n        /* \"#utility.yul\":6639:6640   */\n      0x04\n        /* \"#utility.yul\":6632:6647   */\n      mstore\n        /* \"#utility.yul\":6666:6670   */\n      0x24\n        /* \"#utility.yul\":6663:6664   */\n      0x00\n        /* \"#utility.yul\":6656:6671   */\n      revert\n        /* \"#utility.yul\":6683:6863   */\n    tag_72:\n        /* \"#utility.yul\":6731:6808   */\n      0x4e487b7100000000000000000000000000000000000000000000000000000000\n        /* \"#utility.yul\":6728:6729   */\n      0x00\n        /* \"#utility.yul\":6721:6809   */\n      mstore\n        /* \"#utility.yul\":6828:6832   */\n      0x11\n        /* \"#utility.yul\":6825:6826   */\n      0x04\n        /* \"#utility.yul\":6818:6833   */\n      mstore\n        /* \"#utility.yul\":6852:6856   */\n      0x24\n        /* \"#utility.yul\":6849:6850   */\n      0x00\n        /* \"#utility.yul\":6842:6857   */\n      revert\n        /* \"#utility.yul\":6869:7279   */\n    tag_43:\n        /* \"#utility.yul\":6909:6916   */\n      0x00\n        /* \"#utility.yul\":6932:6952   */\n      tag_151\n        /* \"#utility.yul\":6950:6951   */\n      dup3\n        /* \"#utility.yul\":6932:6952   */\n      tag_51\n      jump\t// in\n    tag_151:\n        /* \"#utility.yul\":6927:6952   */\n      swap2\n      pop\n        /* \"#utility.yul\":6966:6986   */\n      tag_152\n        /* \"#utility.yul\":6984:6985   */\n      dup4\n        /* \"#utility.yul\":6966:6986   */\n      tag_51\n      jump\t// in\n    tag_152:\n        /* \"#utility.yul\":6961:6986   */\n      swap3\n      pop\n        /* \"#utility.yul\":7021:7022   */\n      dup3\n        /* \"#utility.yul\":7018:7019   */\n      dup3\n        /* \"#utility.yul\":7014:7023   */\n      mul\n        /* \"#utility.yul\":7043:7073   */\n      tag_153\n        /* \"#utility.yul\":7061:7072   */\n      dup2\n        /* \"#utility.yul\":7043:7073   */\n      tag_51\n      jump\t// in\n    tag_153:\n        /* \"#utility.yul\":7032:7073   */\n      swap2\n      pop\n        /* \"#utility.yul\":7222:7223   */\n      dup3\n        /* \"#utility.yul\":7213:7220   */\n      dup3\n        /* \"#utility.yul\":7209:7224   */\n      div\n        /* \"#utility.yul\":7206:7207   */\n      dup5\n        /* \"#utility.yul\":7203:7225   */\n      eq\n        /* \"#utility.yul\":7183:7184   */\n      dup4\n        /* \"#utility.yul\":7176:7185   */\n      iszero\n        /* \"#utility.yul\":7156:7239   */\n      or\n        /* \"#utility.yul\":7133:7272   */\n      tag_154\n      jumpi\n        /* \"#utility.yul\":7252:7270   */\n      tag_155\n      tag_72\n      jump\t// in\n    tag_155:\n        /* \"#utility.yul\":7133:7272   */\n    tag_154:\n        /* \"#utility.yul\":6917:7279   */\n      pop\n        /* \"#utility.yul\":6869:7279   */\n      swap3\n      swap2\n      pop\n      pop\n      jump\t// out\n        /* \"#utility.yul\":7285:7518   */\n    tag_45:\n        /* \"#utility.yul\":7324:7327   */\n      0x00\n        /* \"#utility.yul\":7347:7371   */\n      tag_157\n        /* \"#utility.yul\":7365:7370   */\n      dup3\n        /* \"#utility.yul\":7347:7371   */\n      tag_51\n      jump\t// in\n    tag_157:\n        /* \"#utility.yul\":7338:7371   */\n      swap2\n      pop\n        /* \"#utility.yul\":7393:7459   */\n      0xffffffffffffffffffffffffffffffffffffffffffffffffffffffffffffffff\n        /* \"#utility.yul\":7386:7391   */\n      dup3\n        /* \"#utility.yul\":7383:7460   */\n      sub\n        /* \"#utility.yul\":7380:7483   */\n      tag_158\n      jumpi\n        /* \"#utility.yul\":7463:7481   */\n      tag_159\n      tag_72\n      jump\t// in\n    tag_159:\n        /* \"#utility.yul\":7380:7483   */\n    tag_158:\n        /* \"#utility.yul\":7510:7511   */\n      0x01\n        /* \"#utility.yul\":7503:7508   */\n      dup3\n        /* \"#utility.yul\":7499:7512   */\n      add\n        /* \"#utility.yul\":7492:7512   */\n      swap1\n      pop\n        /* \"#utility.yul\":7285:7518   */\n      swap2\n      swap1\n      pop\n      jump\t// out\n\n    auxdata: 0xa2646970667358221220346b71d4f2d471b7c5e3ccca96938c438386ea8d829ff19572a1bf2dad14e56064736f6c63430008120033\n}\n",
				"bytecode": {
					"linkReferences": {},
					"object": "60806040526040518060a00160405280600a60ff168152602001600b60ff168152602001600360ff168152602001600460ff168152602001600560ff16815250600090600561004f929190610062565b5034801561005c57600080fd5b506100c4565b8260058101928215610096579160200282015b82811115610095578251829060ff16905591602001919060010190610075565b5b5090506100a391906100a7565b5090565b5b808211156100c05760008160009055506001016100a8565b5090565b61066e806100d36000396000f3fe608060405234801561001057600080fd5b506004361061004c5760003560e01c806371e5ee5f1461005157806388046c6a146100815780638f8686e61461009f578063dcaa0936146100cf575b600080fd5b61006b60048036038101906100669190610270565b6100ff565b60405161007891906102ac565b60405180910390f35b61008961011a565b6040516100969190610372565b60405180910390f35b6100b960048036038101906100b491906104d4565b610165565b6040516100c69190610372565b60405180910390f35b6100e960048036038101906100e49190610523565b6101c2565b6040516100f69190610372565b60405180910390f35b6000816005811061010f57600080fd5b016000915090505481565b610122610209565b600060058060200260405190810160405280929190826005801561015b576020028201915b815481526020019060010190808311610147575b5050505050905090565b61016d610209565b60005b60058110156101b957600283826005811061018e5761018d610550565b5b6020020181815161019f91906105ae565b9150818152505080806101b1906105f0565b915050610170565b82915050919050565b6101ca610209565b816005806020026040519081016040528092919082600560200280828437600081840152601f19601f8201169050808301925050505050509050919050565b6040518060a00160405280600590602082028036833780820191505090505090565b6000604051905090565b600080fd5b6000819050919050565b61024d8161023a565b811461025857600080fd5b50565b60008135905061026a81610244565b92915050565b60006020828403121561028657610285610235565b5b60006102948482850161025b565b91505092915050565b6102a68161023a565b82525050565b60006020820190506102c1600083018461029d565b92915050565b600060059050919050565b600081905092915050565b6000819050919050565b6102f08161023a565b82525050565b600061030283836102e7565b60208301905092915050565b6000602082019050919050565b610324816102c7565b61032e81846102d2565b9250610339826102dd565b8060005b8381101561036a57815161035187826102f6565b965061035c8361030e565b92505060018101905061033d565b505050505050565b600060a082019050610387600083018461031b565b92915050565b600080fd5b6000601f19601f8301169050919050565b7f4e487b7100000000000000000000000000000000000000000000000000000000600052604160045260246000fd5b6103db82610392565b810181811067ffffffffffffffff821117156103fa576103f96103a3565b5b80604052505050565b600061040d61022b565b905061041982826103d2565b919050565b600067ffffffffffffffff821115610439576104386103a3565b5b602082029050919050565b600080fd5b600061045c6104578461041e565b610403565b9050806020840283018581111561047657610475610444565b5b835b8181101561049f578061048b888261025b565b845260208401935050602081019050610478565b5050509392505050565b600082601f8301126104be576104bd61038d565b5b60056104cb848285610449565b91505092915050565b600060a082840312156104ea576104e9610235565b5b60006104f8848285016104a9565b91505092915050565b60008190508260206005028201111561051d5761051c610444565b5b92915050565b600060a0828403121561053957610538610235565b5b600061054784828501610501565b91505092915050565b7f4e487b7100000000000000000000000000000000000000000000000000000000600052603260045260246000fd5b7f4e487b7100000000000000000000000000000000000000000000000000000000600052601160045260246000fd5b60006105b98261023a565b91506105c48361023a565b92508282026105d28161023a565b915082820484148315176105e9576105e861057f565b5b5092915050565b60006105fb8261023a565b91507fffffffffffffffffffffffffffffffffffffffffffffffffffffffffffffffff820361062d5761062c61057f565b5b60018201905091905056fea2646970667358221220346b71d4f2d471b7c5e3ccca96938c438386ea8d829ff19572a1bf2dad14e56064736f6c63430008120033",
					"opcodes": "PUSH1 0x80 PUSH1 0x40 MSTORE PUSH1 0x40 MLOAD DUP1 PUSH1 0xA0 ADD PUSH1 0x40 MSTORE DUP1 PUSH1 0xA PUSH1 0xFF AND DUP2 MSTORE PUSH1 0x20 ADD PUSH1 0xB PUSH1 0xFF AND DUP2 MSTORE PUSH1 0x20 ADD PUSH1 0x3 PUSH1 0xFF AND DUP2 MSTORE PUSH1 0x20 ADD PUSH1 0x4 PUSH1 0xFF AND DUP2 MSTORE PUSH1 0x20 ADD PUSH1 0x5 PUSH1 0xFF AND DUP2 MSTORE POP PUSH1 0x0 SWAP1 PUSH1 0x5 PUSH2 0x4F SWAP3 SWAP2 SWAP1 PUSH2 0x62 JUMP JUMPDEST POP CALLVALUE DUP1 ISZERO PUSH2 0x5C JUMPI PUSH1 0x0 DUP1 REVERT JUMPDEST POP PUSH2 0xC4 JUMP JUMPDEST DUP3 PUSH1 0x5 DUP2 ADD SWAP3 DUP3 ISZERO PUSH2 0x96 JUMPI SWAP2 PUSH1 0x20 MUL DUP3 ADD JUMPDEST DUP3 DUP2 GT ISZERO PUSH2 0x95 JUMPI DUP3 MLOAD DUP3 SWAP1 PUSH1 0xFF AND SWAP1 SSTORE SWAP2 PUSH1 0x20 ADD SWAP2 SWAP1 PUSH1 0x1 ADD SWAP1 PUSH2 0x75 JUMP JUMPDEST JUMPDEST POP SWAP1 POP PUSH2 0xA3 SWAP2 SWAP1 PUSH2 0xA7 JUMP JUMPDEST POP SWAP1 JUMP JUMPDEST JUMPDEST DUP1 DUP3 GT ISZERO PUSH2 0xC0 JUMPI PUSH1 0x0 DUP2 PUSH1 0x0 SWAP1 SSTORE POP PUSH1 0x1 ADD PUSH2 0xA8 JUMP JUMPDEST POP SWAP1 JUMP JUMPDEST PUSH2 0x66E DUP1 PUSH2 0xD3 PUSH1 0x0 CODECOPY PUSH1 0x0 RETURN INVALID PUSH1 0x80 PUSH1 0x40 MSTORE CALLVALUE DUP1 ISZERO PUSH2 0x10 JUMPI PUSH1 0x0 DUP1 REVERT JUMPDEST POP PUSH1 0x4 CALLDATASIZE LT PUSH2 0x4C JUMPI PUSH1 0x0 CALLDATALOAD PUSH1 0xE0 SHR DUP1 PUSH4 0x71E5EE5F EQ PUSH2 0x51 JUMPI DUP1 PUSH4 0x88046C6A EQ PUSH2 0x81 JUMPI DUP1 PUSH4 0x8F8686E6 EQ PUSH2 0x9F JUMPI DUP1 PUSH4 0xDCAA0936 EQ PUSH2 0xCF JUMPI JUMPDEST PUSH1 0x0 DUP1 REVERT JUMPDEST PUSH2 0x6B PUSH1 0x4 DUP1 CALLDATASIZE SUB DUP2 ADD SWAP1 PUSH2 0x66 SWAP2 SWAP1 PUSH2 0x270 JUMP JUMPDEST PUSH2 0xFF JUMP JUMPDEST PUSH1 0x40 MLOAD PUSH2 0x78 SWAP2 SWAP1 PUSH2 0x2AC JUMP JUMPDEST PUSH1 0x40 MLOAD DUP1 SWAP2 SUB SWAP1 RETURN JUMPDEST PUSH2 0x89 PUSH2 0x11A JUMP JUMPDEST PUSH1 0x40 MLOAD PUSH2 0x96 SWAP2 SWAP1 PUSH2 0x372 JUMP JUMPDEST PUSH1 0x40 MLOAD DUP1 SWAP2 SUB SWAP1 RETURN JUMPDEST PUSH2 0xB9 PUSH1 0x4 DUP1 CALLDATASIZE SUB DUP2 ADD SWAP1 PUSH2 0xB4 SWAP2 SWAP1 PUSH2 0x4D4 JUMP JUMPDEST PUSH2 0x165 JUMP JUMPDEST PUSH1 0x40 MLOAD PUSH2 0xC6 SWAP2 SWAP1 PUSH2 0x372 JUMP JUMPDEST PUSH1 0x40 MLOAD DUP1 SWAP2 SUB SWAP1 RETURN JUMPDEST PUSH2 0xE9 PUSH1 0x4 DUP1 CALLDATASIZE SUB DUP2 ADD SWAP1 PUSH2 0xE4 SWAP2 SWAP1 PUSH2 0x523 JUMP JUMPDEST PUSH2 0x1C2 JUMP JUMPDEST PUSH1 0x40 MLOAD PUSH2 0xF6 SWAP2 SWAP1 PUSH2 0x372 JUMP JUMPDEST PUSH1 0x40 MLOAD DUP1 SWAP2 SUB SWAP1 RETURN JUMPDEST PUSH1 0x0 DUP2 PUSH1 0x5 DUP2 LT PUSH2 0x10F JUMPI PUSH1 0x0 DUP1 REVERT JUMPDEST ADD PUSH1 0x0 SWAP2 POP SWAP1 POP SLOAD DUP2 JUMP JUMPDEST PUSH2 0x122 PUSH2 0x209 JUMP JUMPDEST PUSH1 0x0 PUSH1 0x5 DUP1 PUSH1 0x20 MUL PUSH1 0x40 MLOAD SWAP1 DUP2 ADD PUSH1 0x40 MSTORE DUP1 SWAP3 SWAP2 SWAP1 DUP3 PUSH1 0x5 DUP1 ISZERO PUSH2 0x15B JUMPI PUSH1 0x20 MUL DUP3 ADD SWAP2 JUMPDEST DUP2 SLOAD DUP2 MSTORE PUSH1 0x20 ADD SWAP1 PUSH1 0x1 ADD SWAP1 DUP1 DUP4 GT PUSH2 0x147 JUMPI JUMPDEST POP POP POP POP POP SWAP1 POP SWAP1 JUMP JUMPDEST PUSH2 0x16D PUSH2 0x209 JUMP JUMPDEST PUSH1 0x0 JUMPDEST PUSH1 0x5 DUP2 LT ISZERO PUSH2 0x1B9 JUMPI PUSH1 0x2 DUP4 DUP3 PUSH1 0x5 DUP2 LT PUSH2 0x18E JUMPI PUSH2 0x18D PUSH2 0x550 JUMP JUMPDEST JUMPDEST PUSH1 0x20 MUL ADD DUP2 DUP2 MLOAD PUSH2 0x19F SWAP2 SWAP1 PUSH2 0x5AE JUMP JUMPDEST SWAP2 POP DUP2 DUP2 MSTORE POP POP DUP1 DUP1 PUSH2 0x1B1 SWAP1 PUSH2 0x5F0 JUMP JUMPDEST SWAP2 POP POP PUSH2 0x170 JUMP JUMPDEST DUP3 SWAP2 POP POP SWAP2 SWAP1 POP JUMP JUMPDEST PUSH2 0x1CA PUSH2 0x209 JUMP JUMPDEST DUP2 PUSH1 0x5 DUP1 PUSH1 0x20 MUL PUSH1 0x40 MLOAD SWAP1 DUP2 ADD PUSH1 0x40 MSTORE DUP1 SWAP3 SWAP2 SWAP1 DUP3 PUSH1 0x5 PUSH1 0x20 MUL DUP1 DUP3 DUP5 CALLDATACOPY PUSH1 0x0 DUP2 DUP5 ADD MSTORE PUSH1 0x1F NOT PUSH1 0x1F DUP3 ADD AND SWAP1 POP DUP1 DUP4 ADD SWAP3 POP POP POP POP POP POP SWAP1 POP SWAP2 SWAP1 POP JUMP JUMPDEST PUSH1 0x40 MLOAD DUP1 PUSH1 0xA0 ADD PUSH1 0x40 MSTORE DUP1 PUSH1 0x5 SWAP1 PUSH1 0x20 DUP3 MUL DUP1 CALLDATASIZE DUP4 CALLDATACOPY DUP1 DUP3 ADD SWAP2 POP POP SWAP1 POP POP SWAP1 JUMP JUMPDEST PUSH1 0x0 PUSH1 0x40 MLOAD SWAP1 POP SWAP1 JUMP JUMPDEST PUSH1 0x0 DUP1 REVERT JUMPDEST PUSH1 0x0 DUP2 SWAP1 POP SWAP2 SWAP1 POP JUMP JUMPDEST PUSH2 0x24D DUP2 PUSH2 0x23A JUMP JUMPDEST DUP2 EQ PUSH2 0x258 JUMPI PUSH1 0x0 DUP1 REVERT JUMPDEST POP JUMP JUMPDEST PUSH1 0x0 DUP2 CALLDATALOAD SWAP1 POP PUSH2 0x26A DUP2 PUSH2 0x244 JUMP JUMPDEST SWAP3 SWAP2 POP POP JUMP JUMPDEST PUSH1 0x0 PUSH1 0x20 DUP3 DUP5 SUB SLT ISZERO PUSH2 0x286 JUMPI PUSH2 0x285 PUSH2 0x235 JUMP JUMPDEST JUMPDEST PUSH1 0x0 PUSH2 0x294 DUP5 DUP3 DUP6 ADD PUSH2 0x25B JUMP JUMPDEST SWAP2 POP POP SWAP3 SWAP2 POP POP JUMP JUMPDEST PUSH2 0x2A6 DUP2 PUSH2 0x23A JUMP JUMPDEST DUP3 MSTORE POP POP JUMP JUMPDEST PUSH1 0x0 PUSH1 0x20 DUP3 ADD SWAP1 POP PUSH2 0x2C1 PUSH1 0x0 DUP4 ADD DUP5 PUSH2 0x29D JUMP JUMPDEST SWAP3 SWAP2 POP POP JUMP JUMPDEST PUSH1 0x0 PUSH1 0x5 SWAP1 POP SWAP2 SWAP1 POP JUMP JUMPDEST PUSH1 0x0 DUP2 SWAP1 POP SWAP3 SWAP2 POP POP JUMP JUMPDEST PUSH1 0x0 DUP2 SWAP1 POP SWAP2 SWAP1 POP JUMP JUMPDEST PUSH2 0x2F0 DUP2 PUSH2 0x23A JUMP JUMPDEST DUP3 MSTORE POP POP JUMP JUMPDEST PUSH1 0x0 PUSH2 0x302 DUP4 DUP4 PUSH2 0x2E7 JUMP JUMPDEST PUSH1 0x20 DUP4 ADD SWAP1 POP SWAP3 SWAP2 POP POP JUMP JUMPDEST PUSH1 0x0 PUSH1 0x20 DUP3 ADD SWAP1 POP SWAP2 SWAP1 POP JUMP JUMPDEST PUSH2 0x324 DUP2 PUSH2 0x2C7 JUMP JUMPDEST PUSH2 0x32E DUP2 DUP5 PUSH2 0x2D2 JUMP JUMPDEST SWAP3 POP PUSH2 0x339 DUP3 PUSH2 0x2DD JUMP JUMPDEST DUP1 PUSH1 0x0 JUMPDEST DUP4 DUP2 LT ISZERO PUSH2 0x36A JUMPI DUP2 MLOAD PUSH2 0x351 DUP8 DUP3 PUSH2 0x2F6 JUMP JUMPDEST SWAP7 POP PUSH2 0x35C DUP4 PUSH2 0x30E JUMP JUMPDEST SWAP3 POP POP PUSH1 0x1 DUP2 ADD SWAP1 POP PUSH2 0x33D JUMP JUMPDEST POP POP POP POP POP POP JUMP JUMPDEST PUSH1 0x0 PUSH1 0xA0 DUP3 ADD SWAP1 POP PUSH2 0x387 PUSH1 0x0 DUP4 ADD DUP5 PUSH2 0x31B JUMP JUMPDEST SWAP3 SWAP2 POP POP JUMP JUMPDEST PUSH1 0x0 DUP1 REVERT JUMPDEST PUSH1 0x0 PUSH1 0x1F NOT PUSH1 0x1F DUP4 ADD AND SWAP1 POP SWAP2 SWAP1 POP JUMP JUMPDEST PUSH32 0x4E487B7100000000000000000000000000000000000000000000000000000000 PUSH1 0x0 MSTORE PUSH1 0x41 PUSH1 0x4 MSTORE PUSH1 0x24 PUSH1 0x0 REVERT JUMPDEST PUSH2 0x3DB DUP3 PUSH2 0x392 JUMP JUMPDEST DUP2 ADD DUP2 DUP2 LT PUSH8 0xFFFFFFFFFFFFFFFF DUP3 GT OR ISZERO PUSH2 0x3FA JUMPI PUSH2 0x3F9 PUSH2 0x3A3 JUMP JUMPDEST JUMPDEST DUP1 PUSH1 0x40 MSTORE POP POP POP JUMP JUMPDEST PUSH1 0x0 PUSH2 0x40D PUSH2 0x22B JUMP JUMPDEST SWAP1 POP PUSH2 0x419 DUP3 DUP3 PUSH2 0x3D2 JUMP JUMPDEST SWAP2 SWAP1 POP JUMP JUMPDEST PUSH1 0x0 PUSH8 0xFFFFFFFFFFFFFFFF DUP3 GT ISZERO PUSH2 0x439 JUMPI PUSH2 0x438 PUSH2 0x3A3 JUMP JUMPDEST JUMPDEST PUSH1 0x20 DUP3 MUL SWAP1 POP SWAP2 SWAP1 POP JUMP JUMPDEST PUSH1 0x0 DUP1 REVERT JUMPDEST PUSH1 0x0 PUSH2 0x45C PUSH2 0x457 DUP5 PUSH2 0x41E JUMP JUMPDEST PUSH2 0x403 JUMP JUMPDEST SWAP1 POP DUP1 PUSH1 0x20 DUP5 MUL DUP4 ADD DUP6 DUP2 GT ISZERO PUSH2 0x476 JUMPI PUSH2 0x475 PUSH2 0x444 JUMP JUMPDEST JUMPDEST DUP4 JUMPDEST DUP2 DUP2 LT ISZERO PUSH2 0x49F JUMPI DUP1 PUSH2 0x48B DUP9 DUP3 PUSH2 0x25B JUMP JUMPDEST DUP5 MSTORE PUSH1 0x20 DUP5 ADD SWAP4 POP POP PUSH1 0x20 DUP2 ADD SWAP1 POP PUSH2 0x478 JUMP JUMPDEST POP POP POP SWAP4 SWAP3 POP POP POP JUMP JUMPDEST PUSH1 0x0 DUP3 PUSH1 0x1F DUP4 ADD SLT PUSH2 0x4BE JUMPI PUSH2 0x4BD PUSH2 0x38D JUMP JUMPDEST JUMPDEST PUSH1 0x5 PUSH2 0x4CB DUP5 DUP3 DUP6 PUSH2 0x449 JUMP JUMPDEST SWAP2 POP POP SWAP3 SWAP2 POP POP JUMP JUMPDEST PUSH1 0x0 PUSH1 0xA0 DUP3 DUP5 SUB SLT ISZERO PUSH2 0x4EA JUMPI PUSH2 0x4E9 PUSH2 0x235 JUMP JUMPDEST JUMPDEST PUSH1 0x0 PUSH2 0x4F8 DUP5 DUP3 DUP6 ADD PUSH2 0x4A9 JUMP JUMPDEST SWAP2 POP POP SWAP3 SWAP2 POP POP JUMP JUMPDEST PUSH1 0x0 DUP2 SWAP1 POP DUP3 PUSH1 0x20 PUSH1 0x5 MUL DUP3 ADD GT ISZERO PUSH2 0x51D JUMPI PUSH2 0x51C PUSH2 0x444 JUMP JUMPDEST JUMPDEST SWAP3 SWAP2 POP POP JUMP JUMPDEST PUSH1 0x0 PUSH1 0xA0 DUP3 DUP5 SUB SLT ISZERO PUSH2 0x539 JUMPI PUSH2 0x538 PUSH2 0x235 JUMP JUMPDEST JUMPDEST PUSH1 0x0 PUSH2 0x547 DUP5 DUP3 DUP6 ADD PUSH2 0x501 JUMP JUMPDEST SWAP2 POP POP SWAP3 SWAP2 POP POP JUMP JUMPDEST PUSH32 0x4E487B7100000000000000000000000000000000000000000000000000000000 PUSH1 0x0 MSTORE PUSH1 0x32 PUSH1 0x4 MSTORE PUSH1 0x24 PUSH1 0x0 REVERT JUMPDEST PUSH32 0x4E487B7100000000000000000000000000000000000000000000000000000000 PUSH1 0x0 MSTORE PUSH1 0x11 PUSH1 0x4 MSTORE PUSH1 0x24 PUSH1 0x0 REVERT JUMPDEST PUSH1 0x0 PUSH2 0x5B9 DUP3 PUSH2 0x23A JUMP JUMPDEST SWAP2 POP PUSH2 0x5C4 DUP4 PUSH2 0x23A JUMP JUMPDEST SWAP3 POP DUP3 DUP3 MUL PUSH2 0x5D2 DUP2 PUSH2 0x23A JUMP JUMPDEST SWAP2 POP DUP3 DUP3 DIV DUP5 EQ DUP4 ISZERO OR PUSH2 0x5E9 JUMPI PUSH2 0x5E8 PUSH2 0x57F JUMP JUMPDEST JUMPDEST POP SWAP3 SWAP2 POP POP JUMP JUMPDEST PUSH1 0x0 PUSH2 0x5FB DUP3 PUSH2 0x23A JUMP JUMPDEST SWAP2 POP PUSH32 0xFFFFFFFFFFFFFFFFFFFFFFFFFFFFFFFFFFFFFFFFFFFFFFFFFFFFFFFFFFFFFFFF DUP3 SUB PUSH2 0x62D JUMPI PUSH2 0x62C PUSH2 0x57F JUMP JUMPDEST JUMPDEST PUSH1 0x1 DUP3 ADD SWAP1 POP SWAP2 SWAP1 POP JUMP INVALID LOG2 PUSH5 0x6970667358 0x22 SLT KECCAK256 CALLVALUE PUSH12 0x71D4F2D471B7C5E3CCCA9693 DUP13 NUMBER DUP4 DUP7 0xEA DUP14 DUP3 SWAP16 CALL SWAP6 PUSH19 0xA1BF2DAD14E56064736F6C6343000812003300 "
				},
				"gasEstimates": {
					"creation": {
						"codeDepositCost": "329200",
						"executionCost": "infinite",
						"totalCost": "infinite"
					},
					"external": {
						"Cal(uint256[5])": "infinite",
						"arr(uint256)": "infinite",
						"mulBy2(uint256[5])": "infinite",
						"returnArr()": "infinite"
					}
				},
				"methodIdentifiers": {
					"Cal(uint256[5])": "dcaa0936",
					"arr(uint256)": "71e5ee5f",
					"mulBy2(uint256[5])": "8f8686e6",
					"returnArr()": "88046c6a"
				}
			},
			"storageLayout": {
				"storage": [
					{
						"astId": 11,
						"contract": "contracts/14Referencedatatype.sol:demo",
						"label": "arr",
						"offset": 0,
						"slot": "0",
						"type": "t_array(t_uint256)5_storage"
					}
				],
				"types": {
					"t_array(t_uint256)5_storage": {
						"base": "t_uint256",
						"encoding": "inplace",
						"label": "uint256[5]",
						"numberOfBytes": "160"
					},
					"t_uint256": {
						"encoding": "inplace",
						"label": "uint256",
						"numberOfBytes": "32"
					}
				}
			},
			"userdoc": {
				"kind": "user",
				"methods": {},
				"version": 1
			}
		}
	}
}