{
	"contracts/18ArrayOfStruct.sol": {
		"demo": {
			"abi": [
				{
					"inputs": [
						{
							"internalType": "uint256",
							"name": "index",
							"type": "uint256"
						},
						{
							"internalType": "string",
							"name": "_name",
							"type": "string"
						},
						{
							"internalType": "uint256",
							"name": "_roll",
							"type": "uint256"
						},
						{
							"internalType": "bool",
							"name": "_pass",
							"type": "bool"
						}
					],
					"name": "insert",
					"outputs": [],
					"stateMutability": "nonpayable",
					"type": "function"
				},
				{
					"inputs": [
						{
							"internalType": "uint256",
							"name": "index",
							"type": "uint256"
						}
					],
					"name": "name",
					"outputs": [
						{
							"internalType": "string",
							"name": "",
							"type": "string"
						}
					],
					"stateMutability": "view",
					"type": "function"
				},
				{
					"inputs": [
						{
							"internalType": "uint256",
							"name": "",
							"type": "uint256"
						}
					],
					"name": "s",
					"outputs": [
						{
							"internalType": "string",
							"name": "name",
							"type": "string"
						},
						{
							"internalType": "uint256",
							"name": "roll",
							"type": "uint256"
						},
						{
							"internalType": "bool",
							"name": "pass",
							"type": "bool"
						}
					],
					"stateMutability": "view",
					"type": "function"
				},
				{
					"inputs": [],
					"name": "structReturns",
					"outputs": [
						{
							"components": [
								{
									"internalType": "string",
									"name": "name",
									"type": "string"
								},
								{
									"internalType": "uint256",
									"name": "roll",
									"type": "uint256"
								},
								{
									"internalType": "bool",
									"name": "pass",
									"type": "bool"
								}
							],
							"internalType": "struct demo.student[4]",
							"name": "",
							"type": "tuple[4]"
						}
					],
					"stateMutability": "view",
					"type": "function"
				}
			],
			"devdoc": {
				"kind": "dev",
				"methods": {},
				"version": 1
			},
			"evm": {
				"assembly": "    /* \"contracts/18ArrayOfStruct.sol\":72:838  contract demo{... */\n  mstore(0x40, 0x80)\n  callvalue\n  dup1\n  iszero\n  tag_1\n  jumpi\n  0x00\n  dup1\n  revert\ntag_1:\n  pop\n  dataSize(sub_0)\n  dup1\n  dataOffset(sub_0)\n  0x00\n  codecopy\n  0x00\n  return\nstop\n\nsub_0: assembly {\n        /* \"contracts/18ArrayOfStruct.sol\":72:838  contract demo{... */\n      mstore(0x40, 0x80)\n      callvalue\n      dup1\n      iszero\n      tag_1\n      jumpi\n      0x00\n      dup1\n      revert\n    tag_1:\n      pop\n      jumpi(tag_2, lt(calldatasize, 0x04))\n      shr(0xe0, calldataload(0x00))\n      dup1\n      0xad800c\n      eq\n      tag_3\n      jumpi\n      dup1\n      0x3a62251a\n      eq\n      tag_4\n      jumpi\n      dup1\n      0x52efd685\n      eq\n      tag_5\n      jumpi\n      dup1\n      0xe0258db7\n      eq\n      tag_6\n      jumpi\n    tag_2:\n      0x00\n      dup1\n      revert\n        /* \"contracts/18ArrayOfStruct.sol\":532:631  function name(uint index) public view returns(string memory){... */\n    tag_3:\n      tag_7\n      0x04\n      dup1\n      calldatasize\n      sub\n      dup2\n      add\n      swap1\n      tag_8\n      swap2\n      swap1\n      tag_9\n      jump\t// in\n    tag_8:\n      tag_10\n      jump\t// in\n    tag_7:\n      mload(0x40)\n      tag_11\n      swap2\n      swap1\n      tag_12\n      jump\t// in\n    tag_11:\n      mload(0x40)\n      dup1\n      swap2\n      sub\n      swap1\n      return\n        /* \"contracts/18ArrayOfStruct.sol\":638:728  function structReturns() public view returns(student[4] memory){... */\n    tag_4:\n      tag_13\n      tag_14\n      jump\t// in\n    tag_13:\n      mload(0x40)\n      tag_15\n      swap2\n      swap1\n      tag_16\n      jump\t// in\n    tag_15:\n      mload(0x40)\n      dup1\n      swap2\n      sub\n      swap1\n      return\n        /* \"contracts/18ArrayOfStruct.sol\":169:188  student[4] public s */\n    tag_5:\n      tag_17\n      0x04\n      dup1\n      calldatasize\n      sub\n      dup2\n      add\n      swap1\n      tag_18\n      swap2\n      swap1\n      tag_9\n      jump\t// in\n    tag_18:\n      tag_19\n      jump\t// in\n    tag_17:\n      mload(0x40)\n      tag_20\n      swap4\n      swap3\n      swap2\n      swap1\n      tag_21\n      jump\t// in\n    tag_20:\n      mload(0x40)\n      dup1\n      swap2\n      sub\n      swap1\n      return\n        /* \"contracts/18ArrayOfStruct.sol\":195:524  function insert( uint index, string memory _name, uint _roll, bool _pass) public{... */\n    tag_6:\n      tag_22\n      0x04\n      dup1\n      calldatasize\n      sub\n      dup2\n      add\n      swap1\n      tag_23\n      swap2\n      swap1\n      tag_24\n      jump\t// in\n    tag_23:\n      tag_25\n      jump\t// in\n    tag_22:\n      stop\n        /* \"contracts/18ArrayOfStruct.sol\":532:631  function name(uint index) public view returns(string memory){... */\n    tag_10:\n        /* \"contracts/18ArrayOfStruct.sol\":578:591  string memory */\n      0x60\n        /* \"contracts/18ArrayOfStruct.sol\":610:611  s */\n      0x00\n        /* \"contracts/18ArrayOfStruct.sol\":612:617  index */\n      dup3\n        /* \"contracts/18ArrayOfStruct.sol\":610:618  s[index] */\n      0x04\n      dup2\n      lt\n      tag_27\n      jumpi\n      tag_28\n      tag_29\n      jump\t// in\n    tag_28:\n    tag_27:\n      0x03\n      mul\n      add\n        /* \"contracts/18ArrayOfStruct.sol\":610:623  s[index].name */\n      0x00\n      add\n        /* \"contracts/18ArrayOfStruct.sol\":603:623  return s[index].name */\n      dup1\n      sload\n      tag_31\n      swap1\n      tag_32\n      jump\t// in\n    tag_31:\n      dup1\n      0x1f\n      add\n      0x20\n      dup1\n      swap2\n      div\n      mul\n      0x20\n      add\n      mload(0x40)\n      swap1\n      dup2\n      add\n      0x40\n      mstore\n      dup1\n      swap3\n      swap2\n      swap1\n      dup2\n      dup2\n      mstore\n      0x20\n      add\n      dup3\n      dup1\n      sload\n      tag_33\n      swap1\n      tag_32\n      jump\t// in\n    tag_33:\n      dup1\n      iszero\n      tag_34\n      jumpi\n      dup1\n      0x1f\n      lt\n      tag_35\n      jumpi\n      0x0100\n      dup1\n      dup4\n      sload\n      div\n      mul\n      dup4\n      mstore\n      swap2\n      0x20\n      add\n      swap2\n      jump(tag_34)\n    tag_35:\n      dup3\n      add\n      swap2\n      swap1\n      0x00\n      mstore\n      keccak256(0x00, 0x20)\n      swap1\n    tag_36:\n      dup2\n      sload\n      dup2\n      mstore\n      swap1\n      0x01\n      add\n      swap1\n      0x20\n      add\n      dup1\n      dup4\n      gt\n      tag_36\n      jumpi\n      dup3\n      swap1\n      sub\n      0x1f\n      and\n      dup3\n      add\n      swap2\n    tag_34:\n      pop\n      pop\n      pop\n      pop\n      pop\n      swap1\n      pop\n        /* \"contracts/18ArrayOfStruct.sol\":532:631  function name(uint index) public view returns(string memory){... */\n      swap2\n      swap1\n      pop\n      jump\t// out\n        /* \"contracts/18ArrayOfStruct.sol\":638:728  function structReturns() public view returns(student[4] memory){... */\n    tag_14:\n        /* \"contracts/18ArrayOfStruct.sol\":683:700  student[4] memory */\n      tag_37\n      tag_38\n      jump\t// in\n    tag_37:\n        /* \"contracts/18ArrayOfStruct.sol\":719:720  s */\n      0x00\n        /* \"contracts/18ArrayOfStruct.sol\":712:720  return s */\n      0x04\n      dup1\n      0x20\n      mul\n      mload(0x40)\n      swap1\n      dup2\n      add\n      0x40\n      mstore\n      dup1\n      swap3\n      swap2\n      swap1\n      0x00\n      swap1\n    tag_40:\n      dup3\n      dup3\n      lt\n      iszero\n      tag_41\n      jumpi\n      dup4\n      dup3\n      0x03\n      mul\n      add\n      mload(0x40)\n      dup1\n      0x60\n      add\n      0x40\n      mstore\n      swap1\n      dup2\n      0x00\n      dup3\n      add\n      dup1\n      sload\n      tag_43\n      swap1\n      tag_32\n      jump\t// in\n    tag_43:\n      dup1\n      0x1f\n      add\n      0x20\n      dup1\n      swap2\n      div\n      mul\n      0x20\n      add\n      mload(0x40)\n      swap1\n      dup2\n      add\n      0x40\n      mstore\n      dup1\n      swap3\n      swap2\n      swap1\n      dup2\n      dup2\n      mstore\n      0x20\n      add\n      dup3\n      dup1\n      sload\n      tag_44\n      swap1\n      tag_32\n      jump\t// in\n    tag_44:\n      dup1\n      iszero\n      tag_45\n      jumpi\n      dup1\n      0x1f\n      lt\n      tag_46\n      jumpi\n      0x0100\n      dup1\n      dup4\n      sload\n      div\n      mul\n      dup4\n      mstore\n      swap2\n      0x20\n      add\n      swap2\n      jump(tag_45)\n    tag_46:\n      dup3\n      add\n      swap2\n      swap1\n      0x00\n      mstore\n      keccak256(0x00, 0x20)\n      swap1\n    tag_47:\n      dup2\n      sload\n      dup2\n      mstore\n      swap1\n      0x01\n      add\n      swap1\n      0x20\n      add\n      dup1\n      dup4\n      gt\n      tag_47\n      jumpi\n      dup3\n      swap1\n      sub\n      0x1f\n      and\n      dup3\n      add\n      swap2\n    tag_45:\n      pop\n      pop\n      pop\n      pop\n      pop\n      dup2\n      mstore\n      0x20\n      add\n      0x01\n      dup3\n      add\n      sload\n      dup2\n      mstore\n      0x20\n      add\n      0x02\n      dup3\n      add\n      0x00\n      swap1\n      sload\n      swap1\n      0x0100\n      exp\n      swap1\n      div\n      0xff\n      and\n      iszero\n      iszero\n      iszero\n      iszero\n      dup2\n      mstore\n      pop\n      pop\n      dup2\n      mstore\n      0x20\n      add\n      swap1\n      0x01\n      add\n      swap1\n      jump(tag_40)\n    tag_41:\n      pop\n      pop\n      pop\n      pop\n      swap1\n      pop\n        /* \"contracts/18ArrayOfStruct.sol\":638:728  function structReturns() public view returns(student[4] memory){... */\n      swap1\n      jump\t// out\n        /* \"contracts/18ArrayOfStruct.sol\":169:188  student[4] public s */\n    tag_19:\n      0x00\n      dup2\n      0x04\n      dup2\n      lt\n      tag_48\n      jumpi\n      0x00\n      dup1\n      revert\n    tag_48:\n      0x03\n      mul\n      add\n      0x00\n      swap2\n      pop\n      swap1\n      pop\n      dup1\n      0x00\n      add\n      dup1\n      sload\n      tag_50\n      swap1\n      tag_32\n      jump\t// in\n    tag_50:\n      dup1\n      0x1f\n      add\n      0x20\n      dup1\n      swap2\n      div\n      mul\n      0x20\n      add\n      mload(0x40)\n      swap1\n      dup2\n      add\n      0x40\n      mstore\n      dup1\n      swap3\n      swap2\n      swap1\n      dup2\n      dup2\n      mstore\n      0x20\n      add\n      dup3\n      dup1\n      sload\n      tag_51\n      swap1\n      tag_32\n      jump\t// in\n    tag_51:\n      dup1\n      iszero\n      tag_52\n      jumpi\n      dup1\n      0x1f\n      lt\n      tag_53\n      jumpi\n      0x0100\n      dup1\n      dup4\n      sload\n      div\n      mul\n      dup4\n      mstore\n      swap2\n      0x20\n      add\n      swap2\n      jump(tag_52)\n    tag_53:\n      dup3\n      add\n      swap2\n      swap1\n      0x00\n      mstore\n      keccak256(0x00, 0x20)\n      swap1\n    tag_54:\n      dup2\n      sload\n      dup2\n      mstore\n      swap1\n      0x01\n      add\n      swap1\n      0x20\n      add\n      dup1\n      dup4\n      gt\n      tag_54\n      jumpi\n      dup3\n      swap1\n      sub\n      0x1f\n      and\n      dup3\n      add\n      swap2\n    tag_52:\n      pop\n      pop\n      pop\n      pop\n      pop\n      swap1\n      dup1\n      0x01\n      add\n      sload\n      swap1\n      dup1\n      0x02\n      add\n      0x00\n      swap1\n      sload\n      swap1\n      0x0100\n      exp\n      swap1\n      div\n      0xff\n      and\n      swap1\n      pop\n      dup4\n      jump\t// out\n        /* \"contracts/18ArrayOfStruct.sol\":195:524  function insert( uint index, string memory _name, uint _roll, bool _pass) public{... */\n    tag_25:\n        /* \"contracts/18ArrayOfStruct.sol\":302:307  _name */\n      dup3\n        /* \"contracts/18ArrayOfStruct.sol\":286:287  s */\n      0x00\n        /* \"contracts/18ArrayOfStruct.sol\":288:293  index */\n      dup6\n        /* \"contracts/18ArrayOfStruct.sol\":286:294  s[index] */\n      0x04\n      dup2\n      lt\n      tag_56\n      jumpi\n      tag_57\n      tag_29\n      jump\t// in\n    tag_57:\n    tag_56:\n      0x03\n      mul\n      add\n        /* \"contracts/18ArrayOfStruct.sol\":286:299  s[index].name */\n      0x00\n      add\n        /* \"contracts/18ArrayOfStruct.sol\":286:307  s[index].name = _name */\n      swap1\n      dup2\n      tag_59\n      swap2\n      swap1\n      tag_60\n      jump\t// in\n    tag_59:\n      pop\n        /* \"contracts/18ArrayOfStruct.sol\":334:339  _roll */\n      dup2\n        /* \"contracts/18ArrayOfStruct.sol\":318:319  s */\n      0x00\n        /* \"contracts/18ArrayOfStruct.sol\":320:325  index */\n      dup6\n        /* \"contracts/18ArrayOfStruct.sol\":318:326  s[index] */\n      0x04\n      dup2\n      lt\n      tag_61\n      jumpi\n      tag_62\n      tag_29\n      jump\t// in\n    tag_62:\n    tag_61:\n      0x03\n      mul\n      add\n        /* \"contracts/18ArrayOfStruct.sol\":318:331  s[index].roll */\n      0x01\n      add\n        /* \"contracts/18ArrayOfStruct.sol\":318:339  s[index].roll = _roll */\n      dup2\n      swap1\n      sstore\n      pop\n        /* \"contracts/18ArrayOfStruct.sol\":366:371  _pass */\n      dup1\n        /* \"contracts/18ArrayOfStruct.sol\":350:351  s */\n      0x00\n        /* \"contracts/18ArrayOfStruct.sol\":352:357  index */\n      dup6\n        /* \"contracts/18ArrayOfStruct.sol\":350:358  s[index] */\n      0x04\n      dup2\n      lt\n      tag_64\n      jumpi\n      tag_65\n      tag_29\n      jump\t// in\n    tag_65:\n    tag_64:\n      0x03\n      mul\n      add\n        /* \"contracts/18ArrayOfStruct.sol\":350:363  s[index].pass */\n      0x02\n      add\n      0x00\n        /* \"contracts/18ArrayOfStruct.sol\":350:371  s[index].pass = _pass */\n      0x0100\n      exp\n      dup2\n      sload\n      dup2\n      0xff\n      mul\n      not\n      and\n      swap1\n      dup4\n      iszero\n      iszero\n      mul\n      or\n      swap1\n      sstore\n      pop\n        /* \"contracts/18ArrayOfStruct.sol\":195:524  function insert( uint index, string memory _name, uint _roll, bool _pass) public{... */\n      pop\n      pop\n      pop\n      pop\n      jump\t// out\n    tag_38:\n      mload(0x40)\n      dup1\n      0x80\n      add\n      0x40\n      mstore\n      dup1\n      0x04\n      swap1\n    tag_67:\n      tag_68\n      tag_69\n      jump\t// in\n    tag_68:\n      dup2\n      mstore\n      0x20\n      add\n      swap1\n      0x01\n      swap1\n      sub\n      swap1\n      dup2\n      tag_67\n      jumpi\n      swap1\n      pop\n      pop\n      swap1\n      jump\t// out\n    tag_69:\n      mload(0x40)\n      dup1\n      0x60\n      add\n      0x40\n      mstore\n      dup1\n      0x60\n      dup2\n      mstore\n      0x20\n      add\n      0x00\n      dup2\n      mstore\n      0x20\n      add\n      iszero(iszero(0x00))\n      dup2\n      mstore\n      pop\n      swap1\n      jump\t// out\n        /* \"#utility.yul\":7:82   */\n    tag_70:\n        /* \"#utility.yul\":40:46   */\n      0x00\n        /* \"#utility.yul\":73:75   */\n      0x40\n        /* \"#utility.yul\":67:76   */\n      mload\n        /* \"#utility.yul\":57:76   */\n      swap1\n      pop\n        /* \"#utility.yul\":7:82   */\n      swap1\n      jump\t// out\n        /* \"#utility.yul\":88:205   */\n    tag_71:\n        /* \"#utility.yul\":197:198   */\n      0x00\n        /* \"#utility.yul\":194:195   */\n      dup1\n        /* \"#utility.yul\":187:199   */\n      revert\n        /* \"#utility.yul\":211:328   */\n    tag_72:\n        /* \"#utility.yul\":320:321   */\n      0x00\n        /* \"#utility.yul\":317:318   */\n      dup1\n        /* \"#utility.yul\":310:322   */\n      revert\n        /* \"#utility.yul\":334:411   */\n    tag_73:\n        /* \"#utility.yul\":371:378   */\n      0x00\n        /* \"#utility.yul\":400:405   */\n      dup2\n        /* \"#utility.yul\":389:405   */\n      swap1\n      pop\n        /* \"#utility.yul\":334:411   */\n      swap2\n      swap1\n      pop\n      jump\t// out\n        /* \"#utility.yul\":417:539   */\n    tag_74:\n        /* \"#utility.yul\":490:514   */\n      tag_128\n        /* \"#utility.yul\":508:513   */\n      dup2\n        /* \"#utility.yul\":490:514   */\n      tag_73\n      jump\t// in\n    tag_128:\n        /* \"#utility.yul\":483:488   */\n      dup2\n        /* \"#utility.yul\":480:515   */\n      eq\n        /* \"#utility.yul\":470:533   */\n      tag_129\n      jumpi\n        /* \"#utility.yul\":529:530   */\n      0x00\n        /* \"#utility.yul\":526:527   */\n      dup1\n        /* \"#utility.yul\":519:531   */\n      revert\n        /* \"#utility.yul\":470:533   */\n    tag_129:\n        /* \"#utility.yul\":417:539   */\n      pop\n      jump\t// out\n        /* \"#utility.yul\":545:684   */\n    tag_75:\n        /* \"#utility.yul\":591:596   */\n      0x00\n        /* \"#utility.yul\":629:635   */\n      dup2\n        /* \"#utility.yul\":616:636   */\n      calldataload\n        /* \"#utility.yul\":607:636   */\n      swap1\n      pop\n        /* \"#utility.yul\":645:678   */\n      tag_131\n        /* \"#utility.yul\":672:677   */\n      dup2\n        /* \"#utility.yul\":645:678   */\n      tag_74\n      jump\t// in\n    tag_131:\n        /* \"#utility.yul\":545:684   */\n      swap3\n      swap2\n      pop\n      pop\n      jump\t// out\n        /* \"#utility.yul\":690:1019   */\n    tag_9:\n        /* \"#utility.yul\":749:755   */\n      0x00\n        /* \"#utility.yul\":798:800   */\n      0x20\n        /* \"#utility.yul\":786:795   */\n      dup3\n        /* \"#utility.yul\":777:784   */\n      dup5\n        /* \"#utility.yul\":773:796   */\n      sub\n        /* \"#utility.yul\":769:801   */\n      slt\n        /* \"#utility.yul\":766:885   */\n      iszero\n      tag_133\n      jumpi\n        /* \"#utility.yul\":804:883   */\n      tag_134\n      tag_71\n      jump\t// in\n    tag_134:\n        /* \"#utility.yul\":766:885   */\n    tag_133:\n        /* \"#utility.yul\":924:925   */\n      0x00\n        /* \"#utility.yul\":949:1002   */\n      tag_135\n        /* \"#utility.yul\":994:1001   */\n      dup5\n        /* \"#utility.yul\":985:991   */\n      dup3\n        /* \"#utility.yul\":974:983   */\n      dup6\n        /* \"#utility.yul\":970:992   */\n      add\n        /* \"#utility.yul\":949:1002   */\n      tag_75\n      jump\t// in\n    tag_135:\n        /* \"#utility.yul\":939:1002   */\n      swap2\n      pop\n        /* \"#utility.yul\":895:1012   */\n      pop\n        /* \"#utility.yul\":690:1019   */\n      swap3\n      swap2\n      pop\n      pop\n      jump\t// out\n        /* \"#utility.yul\":1025:1124   */\n    tag_76:\n        /* \"#utility.yul\":1077:1083   */\n      0x00\n        /* \"#utility.yul\":1111:1116   */\n      dup2\n        /* \"#utility.yul\":1105:1117   */\n      mload\n        /* \"#utility.yul\":1095:1117   */\n      swap1\n      pop\n        /* \"#utility.yul\":1025:1124   */\n      swap2\n      swap1\n      pop\n      jump\t// out\n        /* \"#utility.yul\":1130:1299   */\n    tag_77:\n        /* \"#utility.yul\":1214:1225   */\n      0x00\n        /* \"#utility.yul\":1248:1254   */\n      dup3\n        /* \"#utility.yul\":1243:1246   */\n      dup3\n        /* \"#utility.yul\":1236:1255   */\n      mstore\n        /* \"#utility.yul\":1288:1292   */\n      0x20\n        /* \"#utility.yul\":1283:1286   */\n      dup3\n        /* \"#utility.yul\":1279:1293   */\n      add\n        /* \"#utility.yul\":1264:1293   */\n      swap1\n      pop\n        /* \"#utility.yul\":1130:1299   */\n      swap3\n      swap2\n      pop\n      pop\n      jump\t// out\n        /* \"#utility.yul\":1305:1551   */\n    tag_78:\n        /* \"#utility.yul\":1386:1387   */\n      0x00\n        /* \"#utility.yul\":1396:1509   */\n    tag_139:\n        /* \"#utility.yul\":1410:1416   */\n      dup4\n        /* \"#utility.yul\":1407:1408   */\n      dup2\n        /* \"#utility.yul\":1404:1417   */\n      lt\n        /* \"#utility.yul\":1396:1509   */\n      iszero\n      tag_141\n      jumpi\n        /* \"#utility.yul\":1495:1496   */\n      dup1\n        /* \"#utility.yul\":1490:1493   */\n      dup3\n        /* \"#utility.yul\":1486:1497   */\n      add\n        /* \"#utility.yul\":1480:1498   */\n      mload\n        /* \"#utility.yul\":1476:1477   */\n      dup2\n        /* \"#utility.yul\":1471:1474   */\n      dup5\n        /* \"#utility.yul\":1467:1478   */\n      add\n        /* \"#utility.yul\":1460:1499   */\n      mstore\n        /* \"#utility.yul\":1432:1434   */\n      0x20\n        /* \"#utility.yul\":1429:1430   */\n      dup2\n        /* \"#utility.yul\":1425:1435   */\n      add\n        /* \"#utility.yul\":1420:1435   */\n      swap1\n      pop\n        /* \"#utility.yul\":1396:1509   */\n      jump(tag_139)\n    tag_141:\n        /* \"#utility.yul\":1543:1544   */\n      0x00\n        /* \"#utility.yul\":1534:1540   */\n      dup5\n        /* \"#utility.yul\":1529:1532   */\n      dup5\n        /* \"#utility.yul\":1525:1541   */\n      add\n        /* \"#utility.yul\":1518:1545   */\n      mstore\n        /* \"#utility.yul\":1367:1551   */\n      pop\n        /* \"#utility.yul\":1305:1551   */\n      pop\n      pop\n      pop\n      jump\t// out\n        /* \"#utility.yul\":1557:1659   */\n    tag_79:\n        /* \"#utility.yul\":1598:1604   */\n      0x00\n        /* \"#utility.yul\":1649:1651   */\n      0x1f\n        /* \"#utility.yul\":1645:1652   */\n      not\n        /* \"#utility.yul\":1640:1642   */\n      0x1f\n        /* \"#utility.yul\":1633:1638   */\n      dup4\n        /* \"#utility.yul\":1629:1643   */\n      add\n        /* \"#utility.yul\":1625:1653   */\n      and\n        /* \"#utility.yul\":1615:1653   */\n      swap1\n      pop\n        /* \"#utility.yul\":1557:1659   */\n      swap2\n      swap1\n      pop\n      jump\t// out\n        /* \"#utility.yul\":1665:2042   */\n    tag_80:\n        /* \"#utility.yul\":1753:1756   */\n      0x00\n        /* \"#utility.yul\":1781:1820   */\n      tag_144\n        /* \"#utility.yul\":1814:1819   */\n      dup3\n        /* \"#utility.yul\":1781:1820   */\n      tag_76\n      jump\t// in\n    tag_144:\n        /* \"#utility.yul\":1836:1907   */\n      tag_145\n        /* \"#utility.yul\":1900:1906   */\n      dup2\n        /* \"#utility.yul\":1895:1898   */\n      dup6\n        /* \"#utility.yul\":1836:1907   */\n      tag_77\n      jump\t// in\n    tag_145:\n        /* \"#utility.yul\":1829:1907   */\n      swap4\n      pop\n        /* \"#utility.yul\":1916:1981   */\n      tag_146\n        /* \"#utility.yul\":1974:1980   */\n      dup2\n        /* \"#utility.yul\":1969:1972   */\n      dup6\n        /* \"#utility.yul\":1962:1966   */\n      0x20\n        /* \"#utility.yul\":1955:1960   */\n      dup7\n        /* \"#utility.yul\":1951:1967   */\n      add\n        /* \"#utility.yul\":1916:1981   */\n      tag_78\n      jump\t// in\n    tag_146:\n        /* \"#utility.yul\":2006:2035   */\n      tag_147\n        /* \"#utility.yul\":2028:2034   */\n      dup2\n        /* \"#utility.yul\":2006:2035   */\n      tag_79\n      jump\t// in\n    tag_147:\n        /* \"#utility.yul\":2001:2004   */\n      dup5\n        /* \"#utility.yul\":1997:2036   */\n      add\n        /* \"#utility.yul\":1990:2036   */\n      swap2\n      pop\n        /* \"#utility.yul\":1757:2042   */\n      pop\n        /* \"#utility.yul\":1665:2042   */\n      swap3\n      swap2\n      pop\n      pop\n      jump\t// out\n        /* \"#utility.yul\":2048:2361   */\n    tag_12:\n        /* \"#utility.yul\":2161:2165   */\n      0x00\n        /* \"#utility.yul\":2199:2201   */\n      0x20\n        /* \"#utility.yul\":2188:2197   */\n      dup3\n        /* \"#utility.yul\":2184:2202   */\n      add\n        /* \"#utility.yul\":2176:2202   */\n      swap1\n      pop\n        /* \"#utility.yul\":2248:2257   */\n      dup2\n        /* \"#utility.yul\":2242:2246   */\n      dup2\n        /* \"#utility.yul\":2238:2258   */\n      sub\n        /* \"#utility.yul\":2234:2235   */\n      0x00\n        /* \"#utility.yul\":2223:2232   */\n      dup4\n        /* \"#utility.yul\":2219:2236   */\n      add\n        /* \"#utility.yul\":2212:2259   */\n      mstore\n        /* \"#utility.yul\":2276:2354   */\n      tag_149\n        /* \"#utility.yul\":2349:2353   */\n      dup2\n        /* \"#utility.yul\":2340:2346   */\n      dup5\n        /* \"#utility.yul\":2276:2354   */\n      tag_80\n      jump\t// in\n    tag_149:\n        /* \"#utility.yul\":2268:2354   */\n      swap1\n      pop\n        /* \"#utility.yul\":2048:2361   */\n      swap3\n      swap2\n      pop\n      pop\n      jump\t// out\n        /* \"#utility.yul\":2367:2493   */\n    tag_81:\n        /* \"#utility.yul\":2454:2460   */\n      0x00\n        /* \"#utility.yul\":2482:2486   */\n      0x04\n        /* \"#utility.yul\":2472:2486   */\n      swap1\n      pop\n        /* \"#utility.yul\":2367:2493   */\n      swap2\n      swap1\n      pop\n      jump\t// out\n        /* \"#utility.yul\":2499:2664   */\n    tag_82:\n        /* \"#utility.yul\":2618:2629   */\n      0x00\n        /* \"#utility.yul\":2655:2658   */\n      dup2\n        /* \"#utility.yul\":2640:2658   */\n      swap1\n      pop\n        /* \"#utility.yul\":2499:2664   */\n      swap3\n      swap2\n      pop\n      pop\n      jump\t// out\n        /* \"#utility.yul\":2670:2790   */\n    tag_83:\n        /* \"#utility.yul\":2757:2761   */\n      0x00\n        /* \"#utility.yul\":2780:2783   */\n      dup2\n        /* \"#utility.yul\":2772:2783   */\n      swap1\n      pop\n        /* \"#utility.yul\":2670:2790   */\n      swap2\n      swap1\n      pop\n      jump\t// out\n        /* \"#utility.yul\":2796:2955   */\n    tag_84:\n        /* \"#utility.yul\":2870:2881   */\n      0x00\n        /* \"#utility.yul\":2904:2910   */\n      dup3\n        /* \"#utility.yul\":2899:2902   */\n      dup3\n        /* \"#utility.yul\":2892:2911   */\n      mstore\n        /* \"#utility.yul\":2944:2948   */\n      0x20\n        /* \"#utility.yul\":2939:2942   */\n      dup3\n        /* \"#utility.yul\":2935:2949   */\n      add\n        /* \"#utility.yul\":2920:2949   */\n      swap1\n      pop\n        /* \"#utility.yul\":2796:2955   */\n      swap3\n      swap2\n      pop\n      pop\n      jump\t// out\n        /* \"#utility.yul\":2961:3318   */\n    tag_85:\n        /* \"#utility.yul\":3039:3042   */\n      0x00\n        /* \"#utility.yul\":3067:3106   */\n      tag_155\n        /* \"#utility.yul\":3100:3105   */\n      dup3\n        /* \"#utility.yul\":3067:3106   */\n      tag_76\n      jump\t// in\n    tag_155:\n        /* \"#utility.yul\":3122:3183   */\n      tag_156\n        /* \"#utility.yul\":3176:3182   */\n      dup2\n        /* \"#utility.yul\":3171:3174   */\n      dup6\n        /* \"#utility.yul\":3122:3183   */\n      tag_84\n      jump\t// in\n    tag_156:\n        /* \"#utility.yul\":3115:3183   */\n      swap4\n      pop\n        /* \"#utility.yul\":3192:3257   */\n      tag_157\n        /* \"#utility.yul\":3250:3256   */\n      dup2\n        /* \"#utility.yul\":3245:3248   */\n      dup6\n        /* \"#utility.yul\":3238:3242   */\n      0x20\n        /* \"#utility.yul\":3231:3236   */\n      dup7\n        /* \"#utility.yul\":3227:3243   */\n      add\n        /* \"#utility.yul\":3192:3257   */\n      tag_78\n      jump\t// in\n    tag_157:\n        /* \"#utility.yul\":3282:3311   */\n      tag_158\n        /* \"#utility.yul\":3304:3310   */\n      dup2\n        /* \"#utility.yul\":3282:3311   */\n      tag_79\n      jump\t// in\n    tag_158:\n        /* \"#utility.yul\":3277:3280   */\n      dup5\n        /* \"#utility.yul\":3273:3312   */\n      add\n        /* \"#utility.yul\":3266:3312   */\n      swap2\n      pop\n        /* \"#utility.yul\":3043:3318   */\n      pop\n        /* \"#utility.yul\":2961:3318   */\n      swap3\n      swap2\n      pop\n      pop\n      jump\t// out\n        /* \"#utility.yul\":3324:3432   */\n    tag_86:\n        /* \"#utility.yul\":3401:3425   */\n      tag_160\n        /* \"#utility.yul\":3419:3424   */\n      dup2\n        /* \"#utility.yul\":3401:3425   */\n      tag_73\n      jump\t// in\n    tag_160:\n        /* \"#utility.yul\":3396:3399   */\n      dup3\n        /* \"#utility.yul\":3389:3426   */\n      mstore\n        /* \"#utility.yul\":3324:3432   */\n      pop\n      pop\n      jump\t// out\n        /* \"#utility.yul\":3438:3528   */\n    tag_87:\n        /* \"#utility.yul\":3472:3479   */\n      0x00\n        /* \"#utility.yul\":3515:3520   */\n      dup2\n        /* \"#utility.yul\":3508:3521   */\n      iszero\n        /* \"#utility.yul\":3501:3522   */\n      iszero\n        /* \"#utility.yul\":3490:3522   */\n      swap1\n      pop\n        /* \"#utility.yul\":3438:3528   */\n      swap2\n      swap1\n      pop\n      jump\t// out\n        /* \"#utility.yul\":3534:3633   */\n    tag_88:\n        /* \"#utility.yul\":3605:3626   */\n      tag_163\n        /* \"#utility.yul\":3620:3625   */\n      dup2\n        /* \"#utility.yul\":3605:3626   */\n      tag_87\n      jump\t// in\n    tag_163:\n        /* \"#utility.yul\":3600:3603   */\n      dup3\n        /* \"#utility.yul\":3593:3627   */\n      mstore\n        /* \"#utility.yul\":3534:3633   */\n      pop\n      pop\n      jump\t// out\n        /* \"#utility.yul\":3689:4447   */\n    tag_89:\n        /* \"#utility.yul\":3792:3795   */\n      0x00\n        /* \"#utility.yul\":3828:3832   */\n      0x60\n        /* \"#utility.yul\":3823:3826   */\n      dup4\n        /* \"#utility.yul\":3819:3833   */\n      add\n        /* \"#utility.yul\":3915:3919   */\n      0x00\n        /* \"#utility.yul\":3908:3913   */\n      dup4\n        /* \"#utility.yul\":3904:3920   */\n      add\n        /* \"#utility.yul\":3898:3921   */\n      mload\n        /* \"#utility.yul\":3968:3971   */\n      dup5\n        /* \"#utility.yul\":3962:3966   */\n      dup3\n        /* \"#utility.yul\":3958:3972   */\n      sub\n        /* \"#utility.yul\":3951:3955   */\n      0x00\n        /* \"#utility.yul\":3946:3949   */\n      dup7\n        /* \"#utility.yul\":3942:3956   */\n      add\n        /* \"#utility.yul\":3935:3973   */\n      mstore\n        /* \"#utility.yul\":3994:4067   */\n      tag_165\n        /* \"#utility.yul\":4062:4066   */\n      dup3\n        /* \"#utility.yul\":4048:4060   */\n      dup3\n        /* \"#utility.yul\":3994:4067   */\n      tag_85\n      jump\t// in\n    tag_165:\n        /* \"#utility.yul\":3986:4067   */\n      swap2\n      pop\n        /* \"#utility.yul\":3843:4078   */\n      pop\n        /* \"#utility.yul\":4160:4164   */\n      0x20\n        /* \"#utility.yul\":4153:4158   */\n      dup4\n        /* \"#utility.yul\":4149:4165   */\n      add\n        /* \"#utility.yul\":4143:4166   */\n      mload\n        /* \"#utility.yul\":4179:4242   */\n      tag_166\n        /* \"#utility.yul\":4236:4240   */\n      0x20\n        /* \"#utility.yul\":4231:4234   */\n      dup7\n        /* \"#utility.yul\":4227:4241   */\n      add\n        /* \"#utility.yul\":4213:4225   */\n      dup3\n        /* \"#utility.yul\":4179:4242   */\n      tag_86\n      jump\t// in\n    tag_166:\n        /* \"#utility.yul\":4088:4252   */\n      pop\n        /* \"#utility.yul\":4334:4338   */\n      0x40\n        /* \"#utility.yul\":4327:4332   */\n      dup4\n        /* \"#utility.yul\":4323:4339   */\n      add\n        /* \"#utility.yul\":4317:4340   */\n      mload\n        /* \"#utility.yul\":4353:4410   */\n      tag_167\n        /* \"#utility.yul\":4404:4408   */\n      0x40\n        /* \"#utility.yul\":4399:4402   */\n      dup7\n        /* \"#utility.yul\":4395:4409   */\n      add\n        /* \"#utility.yul\":4381:4393   */\n      dup3\n        /* \"#utility.yul\":4353:4410   */\n      tag_88\n      jump\t// in\n    tag_167:\n        /* \"#utility.yul\":4262:4420   */\n      pop\n        /* \"#utility.yul\":4437:4441   */\n      dup1\n        /* \"#utility.yul\":4430:4441   */\n      swap2\n      pop\n        /* \"#utility.yul\":3797:4447   */\n      pop\n        /* \"#utility.yul\":3689:4447   */\n      swap3\n      swap2\n      pop\n      pop\n      jump\t// out\n        /* \"#utility.yul\":4453:4697   */\n    tag_90:\n        /* \"#utility.yul\":4566:4576   */\n      0x00\n        /* \"#utility.yul\":4601:4691   */\n      tag_169\n        /* \"#utility.yul\":4687:4690   */\n      dup4\n        /* \"#utility.yul\":4679:4685   */\n      dup4\n        /* \"#utility.yul\":4601:4691   */\n      tag_89\n      jump\t// in\n    tag_169:\n        /* \"#utility.yul\":4587:4691   */\n      swap1\n      pop\n        /* \"#utility.yul\":4453:4697   */\n      swap3\n      swap2\n      pop\n      pop\n      jump\t// out\n        /* \"#utility.yul\":4703:4836   */\n    tag_91:\n        /* \"#utility.yul\":4793:4797   */\n      0x00\n        /* \"#utility.yul\":4825:4829   */\n      0x20\n        /* \"#utility.yul\":4820:4823   */\n      dup3\n        /* \"#utility.yul\":4816:4830   */\n      add\n        /* \"#utility.yul\":4808:4830   */\n      swap1\n      pop\n        /* \"#utility.yul\":4703:4836   */\n      swap2\n      swap1\n      pop\n      jump\t// out\n        /* \"#utility.yul\":4898:5973   */\n    tag_92:\n        /* \"#utility.yul\":5057:5060   */\n      0x00\n        /* \"#utility.yul\":5086:5160   */\n      tag_172\n        /* \"#utility.yul\":5154:5159   */\n      dup3\n        /* \"#utility.yul\":5086:5160   */\n      tag_81\n      jump\t// in\n    tag_172:\n        /* \"#utility.yul\":5176:5282   */\n      tag_173\n        /* \"#utility.yul\":5275:5281   */\n      dup2\n        /* \"#utility.yul\":5270:5273   */\n      dup6\n        /* \"#utility.yul\":5176:5282   */\n      tag_82\n      jump\t// in\n    tag_173:\n        /* \"#utility.yul\":5169:5282   */\n      swap4\n      pop\n        /* \"#utility.yul\":5308:5311   */\n      dup4\n        /* \"#utility.yul\":5353:5357   */\n      0x20\n        /* \"#utility.yul\":5345:5351   */\n      dup3\n        /* \"#utility.yul\":5341:5358   */\n      mul\n        /* \"#utility.yul\":5336:5339   */\n      dup6\n        /* \"#utility.yul\":5332:5359   */\n      add\n        /* \"#utility.yul\":5383:5459   */\n      tag_174\n        /* \"#utility.yul\":5453:5458   */\n      dup6\n        /* \"#utility.yul\":5383:5459   */\n      tag_83\n      jump\t// in\n    tag_174:\n        /* \"#utility.yul\":5482:5489   */\n      dup1\n        /* \"#utility.yul\":5513:5514   */\n      0x00\n        /* \"#utility.yul\":5498:5928   */\n    tag_175:\n        /* \"#utility.yul\":5523:5529   */\n      dup6\n        /* \"#utility.yul\":5520:5521   */\n      dup2\n        /* \"#utility.yul\":5517:5530   */\n      lt\n        /* \"#utility.yul\":5498:5928   */\n      iszero\n      tag_177\n      jumpi\n        /* \"#utility.yul\":5594:5603   */\n      dup5\n        /* \"#utility.yul\":5588:5592   */\n      dup5\n        /* \"#utility.yul\":5584:5604   */\n      sub\n        /* \"#utility.yul\":5579:5582   */\n      dup10\n        /* \"#utility.yul\":5572:5605   */\n      mstore\n        /* \"#utility.yul\":5645:5651   */\n      dup2\n        /* \"#utility.yul\":5639:5652   */\n      mload\n        /* \"#utility.yul\":5673:5781   */\n      tag_178\n        /* \"#utility.yul\":5776:5780   */\n      dup6\n        /* \"#utility.yul\":5761:5774   */\n      dup3\n        /* \"#utility.yul\":5673:5781   */\n      tag_90\n      jump\t// in\n    tag_178:\n        /* \"#utility.yul\":5665:5781   */\n      swap5\n      pop\n        /* \"#utility.yul\":5804:5884   */\n      tag_179\n        /* \"#utility.yul\":5877:5883   */\n      dup4\n        /* \"#utility.yul\":5804:5884   */\n      tag_91\n      jump\t// in\n    tag_179:\n        /* \"#utility.yul\":5794:5884   */\n      swap3\n      pop\n        /* \"#utility.yul\":5913:5917   */\n      0x20\n        /* \"#utility.yul\":5908:5911   */\n      dup11\n        /* \"#utility.yul\":5904:5918   */\n      add\n        /* \"#utility.yul\":5897:5918   */\n      swap10\n      pop\n        /* \"#utility.yul\":5558:5928   */\n      pop\n        /* \"#utility.yul\":5545:5546   */\n      0x01\n        /* \"#utility.yul\":5542:5543   */\n      dup2\n        /* \"#utility.yul\":5538:5547   */\n      add\n        /* \"#utility.yul\":5533:5547   */\n      swap1\n      pop\n        /* \"#utility.yul\":5498:5928   */\n      jump(tag_175)\n    tag_177:\n        /* \"#utility.yul\":5502:5516   */\n      pop\n        /* \"#utility.yul\":5944:5948   */\n      dup3\n        /* \"#utility.yul\":5937:5948   */\n      swap8\n      pop\n        /* \"#utility.yul\":5964:5967   */\n      dup8\n        /* \"#utility.yul\":5957:5967   */\n      swap6\n      pop\n        /* \"#utility.yul\":5062:5973   */\n      pop\n      pop\n      pop\n      pop\n      pop\n        /* \"#utility.yul\":4898:5973   */\n      swap3\n      swap2\n      pop\n      pop\n      jump\t// out\n        /* \"#utility.yul\":5979:6432   */\n    tag_16:\n        /* \"#utility.yul\":6162:6166   */\n      0x00\n        /* \"#utility.yul\":6200:6202   */\n      0x20\n        /* \"#utility.yul\":6189:6198   */\n      dup3\n        /* \"#utility.yul\":6185:6203   */\n      add\n        /* \"#utility.yul\":6177:6203   */\n      swap1\n      pop\n        /* \"#utility.yul\":6249:6258   */\n      dup2\n        /* \"#utility.yul\":6243:6247   */\n      dup2\n        /* \"#utility.yul\":6239:6259   */\n      sub\n        /* \"#utility.yul\":6235:6236   */\n      0x00\n        /* \"#utility.yul\":6224:6233   */\n      dup4\n        /* \"#utility.yul\":6220:6237   */\n      add\n        /* \"#utility.yul\":6213:6260   */\n      mstore\n        /* \"#utility.yul\":6277:6425   */\n      tag_181\n        /* \"#utility.yul\":6420:6424   */\n      dup2\n        /* \"#utility.yul\":6411:6417   */\n      dup5\n        /* \"#utility.yul\":6277:6425   */\n      tag_92\n      jump\t// in\n    tag_181:\n        /* \"#utility.yul\":6269:6425   */\n      swap1\n      pop\n        /* \"#utility.yul\":5979:6432   */\n      swap3\n      swap2\n      pop\n      pop\n      jump\t// out\n        /* \"#utility.yul\":6438:6556   */\n    tag_93:\n        /* \"#utility.yul\":6525:6549   */\n      tag_183\n        /* \"#utility.yul\":6543:6548   */\n      dup2\n        /* \"#utility.yul\":6525:6549   */\n      tag_73\n      jump\t// in\n    tag_183:\n        /* \"#utility.yul\":6520:6523   */\n      dup3\n        /* \"#utility.yul\":6513:6550   */\n      mstore\n        /* \"#utility.yul\":6438:6556   */\n      pop\n      pop\n      jump\t// out\n        /* \"#utility.yul\":6562:6671   */\n    tag_94:\n        /* \"#utility.yul\":6643:6664   */\n      tag_185\n        /* \"#utility.yul\":6658:6663   */\n      dup2\n        /* \"#utility.yul\":6643:6664   */\n      tag_87\n      jump\t// in\n    tag_185:\n        /* \"#utility.yul\":6638:6641   */\n      dup3\n        /* \"#utility.yul\":6631:6665   */\n      mstore\n        /* \"#utility.yul\":6562:6671   */\n      pop\n      pop\n      jump\t// out\n        /* \"#utility.yul\":6677:7198   */\n    tag_21:\n        /* \"#utility.yul\":6840:6844   */\n      0x00\n        /* \"#utility.yul\":6878:6880   */\n      0x60\n        /* \"#utility.yul\":6867:6876   */\n      dup3\n        /* \"#utility.yul\":6863:6881   */\n      add\n        /* \"#utility.yul\":6855:6881   */\n      swap1\n      pop\n        /* \"#utility.yul\":6927:6936   */\n      dup2\n        /* \"#utility.yul\":6921:6925   */\n      dup2\n        /* \"#utility.yul\":6917:6937   */\n      sub\n        /* \"#utility.yul\":6913:6914   */\n      0x00\n        /* \"#utility.yul\":6902:6911   */\n      dup4\n        /* \"#utility.yul\":6898:6915   */\n      add\n        /* \"#utility.yul\":6891:6938   */\n      mstore\n        /* \"#utility.yul\":6955:7033   */\n      tag_187\n        /* \"#utility.yul\":7028:7032   */\n      dup2\n        /* \"#utility.yul\":7019:7025   */\n      dup7\n        /* \"#utility.yul\":6955:7033   */\n      tag_80\n      jump\t// in\n    tag_187:\n        /* \"#utility.yul\":6947:7033   */\n      swap1\n      pop\n        /* \"#utility.yul\":7043:7115   */\n      tag_188\n        /* \"#utility.yul\":7111:7113   */\n      0x20\n        /* \"#utility.yul\":7100:7109   */\n      dup4\n        /* \"#utility.yul\":7096:7114   */\n      add\n        /* \"#utility.yul\":7087:7093   */\n      dup6\n        /* \"#utility.yul\":7043:7115   */\n      tag_93\n      jump\t// in\n    tag_188:\n        /* \"#utility.yul\":7125:7191   */\n      tag_189\n        /* \"#utility.yul\":7187:7189   */\n      0x40\n        /* \"#utility.yul\":7176:7185   */\n      dup4\n        /* \"#utility.yul\":7172:7190   */\n      add\n        /* \"#utility.yul\":7163:7169   */\n      dup5\n        /* \"#utility.yul\":7125:7191   */\n      tag_94\n      jump\t// in\n    tag_189:\n        /* \"#utility.yul\":6677:7198   */\n      swap5\n      swap4\n      pop\n      pop\n      pop\n      pop\n      jump\t// out\n        /* \"#utility.yul\":7204:7321   */\n    tag_95:\n        /* \"#utility.yul\":7313:7314   */\n      0x00\n        /* \"#utility.yul\":7310:7311   */\n      dup1\n        /* \"#utility.yul\":7303:7315   */\n      revert\n        /* \"#utility.yul\":7327:7444   */\n    tag_96:\n        /* \"#utility.yul\":7436:7437   */\n      0x00\n        /* \"#utility.yul\":7433:7434   */\n      dup1\n        /* \"#utility.yul\":7426:7438   */\n      revert\n        /* \"#utility.yul\":7450:7630   */\n    tag_97:\n        /* \"#utility.yul\":7498:7575   */\n      0x4e487b7100000000000000000000000000000000000000000000000000000000\n        /* \"#utility.yul\":7495:7496   */\n      0x00\n        /* \"#utility.yul\":7488:7576   */\n      mstore\n        /* \"#utility.yul\":7595:7599   */\n      0x41\n        /* \"#utility.yul\":7592:7593   */\n      0x04\n        /* \"#utility.yul\":7585:7600   */\n      mstore\n        /* \"#utility.yul\":7619:7623   */\n      0x24\n        /* \"#utility.yul\":7616:7617   */\n      0x00\n        /* \"#utility.yul\":7609:7624   */\n      revert\n        /* \"#utility.yul\":7636:7917   */\n    tag_98:\n        /* \"#utility.yul\":7719:7746   */\n      tag_194\n        /* \"#utility.yul\":7741:7745   */\n      dup3\n        /* \"#utility.yul\":7719:7746   */\n      tag_79\n      jump\t// in\n    tag_194:\n        /* \"#utility.yul\":7711:7717   */\n      dup2\n        /* \"#utility.yul\":7707:7747   */\n      add\n        /* \"#utility.yul\":7849:7855   */\n      dup2\n        /* \"#utility.yul\":7837:7847   */\n      dup2\n        /* \"#utility.yul\":7834:7856   */\n      lt\n        /* \"#utility.yul\":7813:7831   */\n      0xffffffffffffffff\n        /* \"#utility.yul\":7801:7811   */\n      dup3\n        /* \"#utility.yul\":7798:7832   */\n      gt\n        /* \"#utility.yul\":7795:7857   */\n      or\n        /* \"#utility.yul\":7792:7880   */\n      iszero\n      tag_195\n      jumpi\n        /* \"#utility.yul\":7860:7878   */\n      tag_196\n      tag_97\n      jump\t// in\n    tag_196:\n        /* \"#utility.yul\":7792:7880   */\n    tag_195:\n        /* \"#utility.yul\":7900:7910   */\n      dup1\n        /* \"#utility.yul\":7896:7898   */\n      0x40\n        /* \"#utility.yul\":7889:7911   */\n      mstore\n        /* \"#utility.yul\":7679:7917   */\n      pop\n        /* \"#utility.yul\":7636:7917   */\n      pop\n      pop\n      jump\t// out\n        /* \"#utility.yul\":7923:8052   */\n    tag_99:\n        /* \"#utility.yul\":7957:7963   */\n      0x00\n        /* \"#utility.yul\":7984:8004   */\n      tag_198\n      tag_70\n      jump\t// in\n    tag_198:\n        /* \"#utility.yul\":7974:8004   */\n      swap1\n      pop\n        /* \"#utility.yul\":8013:8046   */\n      tag_199\n        /* \"#utility.yul\":8041:8045   */\n      dup3\n        /* \"#utility.yul\":8033:8039   */\n      dup3\n        /* \"#utility.yul\":8013:8046   */\n      tag_98\n      jump\t// in\n    tag_199:\n        /* \"#utility.yul\":7923:8052   */\n      swap2\n      swap1\n      pop\n      jump\t// out\n        /* \"#utility.yul\":8058:8366   */\n    tag_100:\n        /* \"#utility.yul\":8120:8124   */\n      0x00\n        /* \"#utility.yul\":8210:8228   */\n      0xffffffffffffffff\n        /* \"#utility.yul\":8202:8208   */\n      dup3\n        /* \"#utility.yul\":8199:8229   */\n      gt\n        /* \"#utility.yul\":8196:8252   */\n      iszero\n      tag_201\n      jumpi\n        /* \"#utility.yul\":8232:8250   */\n      tag_202\n      tag_97\n      jump\t// in\n    tag_202:\n        /* \"#utility.yul\":8196:8252   */\n    tag_201:\n        /* \"#utility.yul\":8270:8299   */\n      tag_203\n        /* \"#utility.yul\":8292:8298   */\n      dup3\n        /* \"#utility.yul\":8270:8299   */\n      tag_79\n      jump\t// in\n    tag_203:\n        /* \"#utility.yul\":8262:8299   */\n      swap1\n      pop\n        /* \"#utility.yul\":8354:8358   */\n      0x20\n        /* \"#utility.yul\":8348:8352   */\n      dup2\n        /* \"#utility.yul\":8344:8359   */\n      add\n        /* \"#utility.yul\":8336:8359   */\n      swap1\n      pop\n        /* \"#utility.yul\":8058:8366   */\n      swap2\n      swap1\n      pop\n      jump\t// out\n        /* \"#utility.yul\":8372:8518   */\n    tag_101:\n        /* \"#utility.yul\":8469:8475   */\n      dup3\n        /* \"#utility.yul\":8464:8467   */\n      dup2\n        /* \"#utility.yul\":8459:8462   */\n      dup4\n        /* \"#utility.yul\":8446:8476   */\n      calldatacopy\n        /* \"#utility.yul\":8510:8511   */\n      0x00\n        /* \"#utility.yul\":8501:8507   */\n      dup4\n        /* \"#utility.yul\":8496:8499   */\n      dup4\n        /* \"#utility.yul\":8492:8508   */\n      add\n        /* \"#utility.yul\":8485:8512   */\n      mstore\n        /* \"#utility.yul\":8372:8518   */\n      pop\n      pop\n      pop\n      jump\t// out\n        /* \"#utility.yul\":8524:8949   */\n    tag_102:\n        /* \"#utility.yul\":8602:8607   */\n      0x00\n        /* \"#utility.yul\":8627:8693   */\n      tag_206\n        /* \"#utility.yul\":8643:8692   */\n      tag_207\n        /* \"#utility.yul\":8685:8691   */\n      dup5\n        /* \"#utility.yul\":8643:8692   */\n      tag_100\n      jump\t// in\n    tag_207:\n        /* \"#utility.yul\":8627:8693   */\n      tag_99\n      jump\t// in\n    tag_206:\n        /* \"#utility.yul\":8618:8693   */\n      swap1\n      pop\n        /* \"#utility.yul\":8716:8722   */\n      dup3\n        /* \"#utility.yul\":8709:8714   */\n      dup2\n        /* \"#utility.yul\":8702:8723   */\n      mstore\n        /* \"#utility.yul\":8754:8758   */\n      0x20\n        /* \"#utility.yul\":8747:8752   */\n      dup2\n        /* \"#utility.yul\":8743:8759   */\n      add\n        /* \"#utility.yul\":8792:8795   */\n      dup5\n        /* \"#utility.yul\":8783:8789   */\n      dup5\n        /* \"#utility.yul\":8778:8781   */\n      dup5\n        /* \"#utility.yul\":8774:8790   */\n      add\n        /* \"#utility.yul\":8771:8796   */\n      gt\n        /* \"#utility.yul\":8768:8880   */\n      iszero\n      tag_208\n      jumpi\n        /* \"#utility.yul\":8799:8878   */\n      tag_209\n      tag_96\n      jump\t// in\n    tag_209:\n        /* \"#utility.yul\":8768:8880   */\n    tag_208:\n        /* \"#utility.yul\":8889:8943   */\n      tag_210\n        /* \"#utility.yul\":8936:8942   */\n      dup5\n        /* \"#utility.yul\":8931:8934   */\n      dup3\n        /* \"#utility.yul\":8926:8929   */\n      dup6\n        /* \"#utility.yul\":8889:8943   */\n      tag_101\n      jump\t// in\n    tag_210:\n        /* \"#utility.yul\":8608:8949   */\n      pop\n        /* \"#utility.yul\":8524:8949   */\n      swap4\n      swap3\n      pop\n      pop\n      pop\n      jump\t// out\n        /* \"#utility.yul\":8969:9309   */\n    tag_103:\n        /* \"#utility.yul\":9025:9030   */\n      0x00\n        /* \"#utility.yul\":9074:9077   */\n      dup3\n        /* \"#utility.yul\":9067:9071   */\n      0x1f\n        /* \"#utility.yul\":9059:9065   */\n      dup4\n        /* \"#utility.yul\":9055:9072   */\n      add\n        /* \"#utility.yul\":9051:9078   */\n      slt\n        /* \"#utility.yul\":9041:9163   */\n      tag_212\n      jumpi\n        /* \"#utility.yul\":9082:9161   */\n      tag_213\n      tag_95\n      jump\t// in\n    tag_213:\n        /* \"#utility.yul\":9041:9163   */\n    tag_212:\n        /* \"#utility.yul\":9199:9205   */\n      dup2\n        /* \"#utility.yul\":9186:9206   */\n      calldataload\n        /* \"#utility.yul\":9224:9303   */\n      tag_214\n        /* \"#utility.yul\":9299:9302   */\n      dup5\n        /* \"#utility.yul\":9291:9297   */\n      dup3\n        /* \"#utility.yul\":9284:9288   */\n      0x20\n        /* \"#utility.yul\":9276:9282   */\n      dup7\n        /* \"#utility.yul\":9272:9289   */\n      add\n        /* \"#utility.yul\":9224:9303   */\n      tag_102\n      jump\t// in\n    tag_214:\n        /* \"#utility.yul\":9215:9303   */\n      swap2\n      pop\n        /* \"#utility.yul\":9031:9309   */\n      pop\n        /* \"#utility.yul\":8969:9309   */\n      swap3\n      swap2\n      pop\n      pop\n      jump\t// out\n        /* \"#utility.yul\":9315:9431   */\n    tag_104:\n        /* \"#utility.yul\":9385:9406   */\n      tag_216\n        /* \"#utility.yul\":9400:9405   */\n      dup2\n        /* \"#utility.yul\":9385:9406   */\n      tag_87\n      jump\t// in\n    tag_216:\n        /* \"#utility.yul\":9378:9383   */\n      dup2\n        /* \"#utility.yul\":9375:9407   */\n      eq\n        /* \"#utility.yul\":9365:9425   */\n      tag_217\n      jumpi\n        /* \"#utility.yul\":9421:9422   */\n      0x00\n        /* \"#utility.yul\":9418:9419   */\n      dup1\n        /* \"#utility.yul\":9411:9423   */\n      revert\n        /* \"#utility.yul\":9365:9425   */\n    tag_217:\n        /* \"#utility.yul\":9315:9431   */\n      pop\n      jump\t// out\n        /* \"#utility.yul\":9437:9570   */\n    tag_105:\n        /* \"#utility.yul\":9480:9485   */\n      0x00\n        /* \"#utility.yul\":9518:9524   */\n      dup2\n        /* \"#utility.yul\":9505:9525   */\n      calldataload\n        /* \"#utility.yul\":9496:9525   */\n      swap1\n      pop\n        /* \"#utility.yul\":9534:9564   */\n      tag_219\n        /* \"#utility.yul\":9558:9563   */\n      dup2\n        /* \"#utility.yul\":9534:9564   */\n      tag_104\n      jump\t// in\n    tag_219:\n        /* \"#utility.yul\":9437:9570   */\n      swap3\n      swap2\n      pop\n      pop\n      jump\t// out\n        /* \"#utility.yul\":9576:10515   */\n    tag_24:\n        /* \"#utility.yul\":9669:9675   */\n      0x00\n        /* \"#utility.yul\":9677:9683   */\n      dup1\n        /* \"#utility.yul\":9685:9691   */\n      0x00\n        /* \"#utility.yul\":9693:9699   */\n      dup1\n        /* \"#utility.yul\":9742:9745   */\n      0x80\n        /* \"#utility.yul\":9730:9739   */\n      dup6\n        /* \"#utility.yul\":9721:9728   */\n      dup8\n        /* \"#utility.yul\":9717:9740   */\n      sub\n        /* \"#utility.yul\":9713:9746   */\n      slt\n        /* \"#utility.yul\":9710:9830   */\n      iszero\n      tag_221\n      jumpi\n        /* \"#utility.yul\":9749:9828   */\n      tag_222\n      tag_71\n      jump\t// in\n    tag_222:\n        /* \"#utility.yul\":9710:9830   */\n    tag_221:\n        /* \"#utility.yul\":9869:9870   */\n      0x00\n        /* \"#utility.yul\":9894:9947   */\n      tag_223\n        /* \"#utility.yul\":9939:9946   */\n      dup8\n        /* \"#utility.yul\":9930:9936   */\n      dup3\n        /* \"#utility.yul\":9919:9928   */\n      dup9\n        /* \"#utility.yul\":9915:9937   */\n      add\n        /* \"#utility.yul\":9894:9947   */\n      tag_75\n      jump\t// in\n    tag_223:\n        /* \"#utility.yul\":9884:9947   */\n      swap5\n      pop\n        /* \"#utility.yul\":9840:9957   */\n      pop\n        /* \"#utility.yul\":10024:10026   */\n      0x20\n        /* \"#utility.yul\":10013:10022   */\n      dup6\n        /* \"#utility.yul\":10009:10027   */\n      add\n        /* \"#utility.yul\":9996:10028   */\n      calldataload\n        /* \"#utility.yul\":10055:10073   */\n      0xffffffffffffffff\n        /* \"#utility.yul\":10047:10053   */\n      dup2\n        /* \"#utility.yul\":10044:10074   */\n      gt\n        /* \"#utility.yul\":10041:10158   */\n      iszero\n      tag_224\n      jumpi\n        /* \"#utility.yul\":10077:10156   */\n      tag_225\n      tag_72\n      jump\t// in\n    tag_225:\n        /* \"#utility.yul\":10041:10158   */\n    tag_224:\n        /* \"#utility.yul\":10182:10245   */\n      tag_226\n        /* \"#utility.yul\":10237:10244   */\n      dup8\n        /* \"#utility.yul\":10228:10234   */\n      dup3\n        /* \"#utility.yul\":10217:10226   */\n      dup9\n        /* \"#utility.yul\":10213:10235   */\n      add\n        /* \"#utility.yul\":10182:10245   */\n      tag_103\n      jump\t// in\n    tag_226:\n        /* \"#utility.yul\":10172:10245   */\n      swap4\n      pop\n        /* \"#utility.yul\":9967:10255   */\n      pop\n        /* \"#utility.yul\":10294:10296   */\n      0x40\n        /* \"#utility.yul\":10320:10373   */\n      tag_227\n        /* \"#utility.yul\":10365:10372   */\n      dup8\n        /* \"#utility.yul\":10356:10362   */\n      dup3\n        /* \"#utility.yul\":10345:10354   */\n      dup9\n        /* \"#utility.yul\":10341:10363   */\n      add\n        /* \"#utility.yul\":10320:10373   */\n      tag_75\n      jump\t// in\n    tag_227:\n        /* \"#utility.yul\":10310:10373   */\n      swap3\n      pop\n        /* \"#utility.yul\":10265:10383   */\n      pop\n        /* \"#utility.yul\":10422:10424   */\n      0x60\n        /* \"#utility.yul\":10448:10498   */\n      tag_228\n        /* \"#utility.yul\":10490:10497   */\n      dup8\n        /* \"#utility.yul\":10481:10487   */\n      dup3\n        /* \"#utility.yul\":10470:10479   */\n      dup9\n        /* \"#utility.yul\":10466:10488   */\n      add\n        /* \"#utility.yul\":10448:10498   */\n      tag_105\n      jump\t// in\n    tag_228:\n        /* \"#utility.yul\":10438:10498   */\n      swap2\n      pop\n        /* \"#utility.yul\":10393:10508   */\n      pop\n        /* \"#utility.yul\":9576:10515   */\n      swap3\n      swap6\n      swap2\n      swap5\n      pop\n      swap3\n      pop\n      jump\t// out\n        /* \"#utility.yul\":10521:10701   */\n    tag_29:\n        /* \"#utility.yul\":10569:10646   */\n      0x4e487b7100000000000000000000000000000000000000000000000000000000\n        /* \"#utility.yul\":10566:10567   */\n      0x00\n        /* \"#utility.yul\":10559:10647   */\n      mstore\n        /* \"#utility.yul\":10666:10670   */\n      0x32\n        /* \"#utility.yul\":10663:10664   */\n      0x04\n        /* \"#utility.yul\":10656:10671   */\n      mstore\n        /* \"#utility.yul\":10690:10694   */\n      0x24\n        /* \"#utility.yul\":10687:10688   */\n      0x00\n        /* \"#utility.yul\":10680:10695   */\n      revert\n        /* \"#utility.yul\":10707:10887   */\n    tag_106:\n        /* \"#utility.yul\":10755:10832   */\n      0x4e487b7100000000000000000000000000000000000000000000000000000000\n        /* \"#utility.yul\":10752:10753   */\n      0x00\n        /* \"#utility.yul\":10745:10833   */\n      mstore\n        /* \"#utility.yul\":10852:10856   */\n      0x22\n        /* \"#utility.yul\":10849:10850   */\n      0x04\n        /* \"#utility.yul\":10842:10857   */\n      mstore\n        /* \"#utility.yul\":10876:10880   */\n      0x24\n        /* \"#utility.yul\":10873:10874   */\n      0x00\n        /* \"#utility.yul\":10866:10881   */\n      revert\n        /* \"#utility.yul\":10893:11213   */\n    tag_32:\n        /* \"#utility.yul\":10937:10943   */\n      0x00\n        /* \"#utility.yul\":10974:10975   */\n      0x02\n        /* \"#utility.yul\":10968:10972   */\n      dup3\n        /* \"#utility.yul\":10964:10976   */\n      div\n        /* \"#utility.yul\":10954:10976   */\n      swap1\n      pop\n        /* \"#utility.yul\":11021:11022   */\n      0x01\n        /* \"#utility.yul\":11015:11019   */\n      dup3\n        /* \"#utility.yul\":11011:11023   */\n      and\n        /* \"#utility.yul\":11042:11060   */\n      dup1\n        /* \"#utility.yul\":11032:11113   */\n      tag_232\n      jumpi\n        /* \"#utility.yul\":11098:11102   */\n      0x7f\n        /* \"#utility.yul\":11090:11096   */\n      dup3\n        /* \"#utility.yul\":11086:11103   */\n      and\n        /* \"#utility.yul\":11076:11103   */\n      swap2\n      pop\n        /* \"#utility.yul\":11032:11113   */\n    tag_232:\n        /* \"#utility.yul\":11160:11162   */\n      0x20\n        /* \"#utility.yul\":11152:11158   */\n      dup3\n        /* \"#utility.yul\":11149:11163   */\n      lt\n        /* \"#utility.yul\":11129:11147   */\n      dup2\n        /* \"#utility.yul\":11126:11164   */\n      sub\n        /* \"#utility.yul\":11123:11207   */\n      tag_233\n      jumpi\n        /* \"#utility.yul\":11179:11197   */\n      tag_234\n      tag_106\n      jump\t// in\n    tag_234:\n        /* \"#utility.yul\":11123:11207   */\n    tag_233:\n        /* \"#utility.yul\":10944:11213   */\n      pop\n        /* \"#utility.yul\":10893:11213   */\n      swap2\n      swap1\n      pop\n      jump\t// out\n        /* \"#utility.yul\":11219:11360   */\n    tag_107:\n        /* \"#utility.yul\":11268:11272   */\n      0x00\n        /* \"#utility.yul\":11291:11294   */\n      dup2\n        /* \"#utility.yul\":11283:11294   */\n      swap1\n      pop\n        /* \"#utility.yul\":11314:11317   */\n      dup2\n        /* \"#utility.yul\":11311:11312   */\n      0x00\n        /* \"#utility.yul\":11304:11318   */\n      mstore\n        /* \"#utility.yul\":11348:11352   */\n      0x20\n        /* \"#utility.yul\":11345:11346   */\n      0x00\n        /* \"#utility.yul\":11335:11353   */\n      keccak256\n        /* \"#utility.yul\":11327:11353   */\n      swap1\n      pop\n        /* \"#utility.yul\":11219:11360   */\n      swap2\n      swap1\n      pop\n      jump\t// out\n        /* \"#utility.yul\":11366:11459   */\n    tag_108:\n        /* \"#utility.yul\":11403:11409   */\n      0x00\n        /* \"#utility.yul\":11450:11452   */\n      0x20\n        /* \"#utility.yul\":11445:11447   */\n      0x1f\n        /* \"#utility.yul\":11438:11443   */\n      dup4\n        /* \"#utility.yul\":11434:11448   */\n      add\n        /* \"#utility.yul\":11430:11453   */\n      div\n        /* \"#utility.yul\":11420:11453   */\n      swap1\n      pop\n        /* \"#utility.yul\":11366:11459   */\n      swap2\n      swap1\n      pop\n      jump\t// out\n        /* \"#utility.yul\":11465:11572   */\n    tag_109:\n        /* \"#utility.yul\":11509:11517   */\n      0x00\n        /* \"#utility.yul\":11559:11564   */\n      dup3\n        /* \"#utility.yul\":11553:11557   */\n      dup3\n        /* \"#utility.yul\":11549:11565   */\n      shl\n        /* \"#utility.yul\":11528:11565   */\n      swap1\n      pop\n        /* \"#utility.yul\":11465:11572   */\n      swap3\n      swap2\n      pop\n      pop\n      jump\t// out\n        /* \"#utility.yul\":11578:11971   */\n    tag_110:\n        /* \"#utility.yul\":11647:11653   */\n      0x00\n        /* \"#utility.yul\":11697:11698   */\n      0x08\n        /* \"#utility.yul\":11685:11695   */\n      dup4\n        /* \"#utility.yul\":11681:11699   */\n      mul\n        /* \"#utility.yul\":11720:11817   */\n      tag_239\n        /* \"#utility.yul\":11750:11816   */\n      0xffffffffffffffffffffffffffffffffffffffffffffffffffffffffffffffff\n        /* \"#utility.yul\":11739:11748   */\n      dup3\n        /* \"#utility.yul\":11720:11817   */\n      tag_109\n      jump\t// in\n    tag_239:\n        /* \"#utility.yul\":11838:11877   */\n      tag_240\n        /* \"#utility.yul\":11868:11876   */\n      dup7\n        /* \"#utility.yul\":11857:11866   */\n      dup4\n        /* \"#utility.yul\":11838:11877   */\n      tag_109\n      jump\t// in\n    tag_240:\n        /* \"#utility.yul\":11826:11877   */\n      swap6\n      pop\n        /* \"#utility.yul\":11910:11914   */\n      dup1\n        /* \"#utility.yul\":11906:11915   */\n      not\n        /* \"#utility.yul\":11899:11904   */\n      dup5\n        /* \"#utility.yul\":11895:11916   */\n      and\n        /* \"#utility.yul\":11886:11916   */\n      swap4\n      pop\n        /* \"#utility.yul\":11959:11963   */\n      dup1\n        /* \"#utility.yul\":11949:11957   */\n      dup7\n        /* \"#utility.yul\":11945:11964   */\n      and\n        /* \"#utility.yul\":11938:11943   */\n      dup5\n        /* \"#utility.yul\":11935:11965   */\n      or\n        /* \"#utility.yul\":11925:11965   */\n      swap3\n      pop\n        /* \"#utility.yul\":11654:11971   */\n      pop\n      pop\n        /* \"#utility.yul\":11578:11971   */\n      swap4\n      swap3\n      pop\n      pop\n      pop\n      jump\t// out\n        /* \"#utility.yul\":11977:12037   */\n    tag_111:\n        /* \"#utility.yul\":12005:12008   */\n      0x00\n        /* \"#utility.yul\":12026:12031   */\n      dup2\n        /* \"#utility.yul\":12019:12031   */\n      swap1\n      pop\n        /* \"#utility.yul\":11977:12037   */\n      swap2\n      swap1\n      pop\n      jump\t// out\n        /* \"#utility.yul\":12043:12185   */\n    tag_112:\n        /* \"#utility.yul\":12093:12102   */\n      0x00\n        /* \"#utility.yul\":12126:12179   */\n      tag_243\n        /* \"#utility.yul\":12144:12178   */\n      tag_244\n        /* \"#utility.yul\":12153:12177   */\n      tag_245\n        /* \"#utility.yul\":12171:12176   */\n      dup5\n        /* \"#utility.yul\":12153:12177   */\n      tag_73\n      jump\t// in\n    tag_245:\n        /* \"#utility.yul\":12144:12178   */\n      tag_111\n      jump\t// in\n    tag_244:\n        /* \"#utility.yul\":12126:12179   */\n      tag_73\n      jump\t// in\n    tag_243:\n        /* \"#utility.yul\":12113:12179   */\n      swap1\n      pop\n        /* \"#utility.yul\":12043:12185   */\n      swap2\n      swap1\n      pop\n      jump\t// out\n        /* \"#utility.yul\":12191:12266   */\n    tag_113:\n        /* \"#utility.yul\":12234:12237   */\n      0x00\n        /* \"#utility.yul\":12255:12260   */\n      dup2\n        /* \"#utility.yul\":12248:12260   */\n      swap1\n      pop\n        /* \"#utility.yul\":12191:12266   */\n      swap2\n      swap1\n      pop\n      jump\t// out\n        /* \"#utility.yul\":12272:12541   */\n    tag_114:\n        /* \"#utility.yul\":12382:12421   */\n      tag_248\n        /* \"#utility.yul\":12413:12420   */\n      dup4\n        /* \"#utility.yul\":12382:12421   */\n      tag_112\n      jump\t// in\n    tag_248:\n        /* \"#utility.yul\":12443:12534   */\n      tag_249\n        /* \"#utility.yul\":12492:12533   */\n      tag_250\n        /* \"#utility.yul\":12516:12532   */\n      dup3\n        /* \"#utility.yul\":12492:12533   */\n      tag_113\n      jump\t// in\n    tag_250:\n        /* \"#utility.yul\":12484:12490   */\n      dup5\n        /* \"#utility.yul\":12477:12481   */\n      dup5\n        /* \"#utility.yul\":12471:12482   */\n      sload\n        /* \"#utility.yul\":12443:12534   */\n      tag_110\n      jump\t// in\n    tag_249:\n        /* \"#utility.yul\":12437:12441   */\n      dup3\n        /* \"#utility.yul\":12430:12535   */\n      sstore\n        /* \"#utility.yul\":12348:12541   */\n      pop\n        /* \"#utility.yul\":12272:12541   */\n      pop\n      pop\n      pop\n      jump\t// out\n        /* \"#utility.yul\":12547:12620   */\n    tag_115:\n        /* \"#utility.yul\":12592:12595   */\n      0x00\n        /* \"#utility.yul\":12547:12620   */\n      swap1\n      jump\t// out\n        /* \"#utility.yul\":12626:12815   */\n    tag_116:\n        /* \"#utility.yul\":12703:12735   */\n      tag_253\n      tag_115\n      jump\t// in\n    tag_253:\n        /* \"#utility.yul\":12744:12809   */\n      tag_254\n        /* \"#utility.yul\":12802:12808   */\n      dup2\n        /* \"#utility.yul\":12794:12800   */\n      dup5\n        /* \"#utility.yul\":12788:12792   */\n      dup5\n        /* \"#utility.yul\":12744:12809   */\n      tag_114\n      jump\t// in\n    tag_254:\n        /* \"#utility.yul\":12679:12815   */\n      pop\n        /* \"#utility.yul\":12626:12815   */\n      pop\n      pop\n      jump\t// out\n        /* \"#utility.yul\":12821:13007   */\n    tag_117:\n        /* \"#utility.yul\":12881:13001   */\n    tag_256:\n        /* \"#utility.yul\":12898:12901   */\n      dup2\n        /* \"#utility.yul\":12891:12896   */\n      dup2\n        /* \"#utility.yul\":12888:12902   */\n      lt\n        /* \"#utility.yul\":12881:13001   */\n      iszero\n      tag_258\n      jumpi\n        /* \"#utility.yul\":12952:12991   */\n      tag_259\n        /* \"#utility.yul\":12989:12990   */\n      0x00\n        /* \"#utility.yul\":12982:12987   */\n      dup3\n        /* \"#utility.yul\":12952:12991   */\n      tag_116\n      jump\t// in\n    tag_259:\n        /* \"#utility.yul\":12925:12926   */\n      0x01\n        /* \"#utility.yul\":12918:12923   */\n      dup2\n        /* \"#utility.yul\":12914:12927   */\n      add\n        /* \"#utility.yul\":12905:12927   */\n      swap1\n      pop\n        /* \"#utility.yul\":12881:13001   */\n      jump(tag_256)\n    tag_258:\n        /* \"#utility.yul\":12821:13007   */\n      pop\n      pop\n      jump\t// out\n        /* \"#utility.yul\":13013:13556   */\n    tag_118:\n        /* \"#utility.yul\":13114:13116   */\n      0x1f\n        /* \"#utility.yul\":13109:13112   */\n      dup3\n        /* \"#utility.yul\":13106:13117   */\n      gt\n        /* \"#utility.yul\":13103:13549   */\n      iszero\n      tag_261\n      jumpi\n        /* \"#utility.yul\":13148:13186   */\n      tag_262\n        /* \"#utility.yul\":13180:13185   */\n      dup2\n        /* \"#utility.yul\":13148:13186   */\n      tag_107\n      jump\t// in\n    tag_262:\n        /* \"#utility.yul\":13232:13261   */\n      tag_263\n        /* \"#utility.yul\":13250:13260   */\n      dup5\n        /* \"#utility.yul\":13232:13261   */\n      tag_108\n      jump\t// in\n    tag_263:\n        /* \"#utility.yul\":13222:13230   */\n      dup2\n        /* \"#utility.yul\":13218:13262   */\n      add\n        /* \"#utility.yul\":13415:13417   */\n      0x20\n        /* \"#utility.yul\":13403:13413   */\n      dup6\n        /* \"#utility.yul\":13400:13418   */\n      lt\n        /* \"#utility.yul\":13397:13446   */\n      iszero\n      tag_264\n      jumpi\n        /* \"#utility.yul\":13436:13444   */\n      dup2\n        /* \"#utility.yul\":13421:13444   */\n      swap1\n      pop\n        /* \"#utility.yul\":13397:13446   */\n    tag_264:\n        /* \"#utility.yul\":13459:13539   */\n      tag_265\n        /* \"#utility.yul\":13515:13537   */\n      tag_266\n        /* \"#utility.yul\":13533:13536   */\n      dup6\n        /* \"#utility.yul\":13515:13537   */\n      tag_108\n      jump\t// in\n    tag_266:\n        /* \"#utility.yul\":13505:13513   */\n      dup4\n        /* \"#utility.yul\":13501:13538   */\n      add\n        /* \"#utility.yul\":13488:13499   */\n      dup3\n        /* \"#utility.yul\":13459:13539   */\n      tag_117\n      jump\t// in\n    tag_265:\n        /* \"#utility.yul\":13118:13549   */\n      pop\n      pop\n        /* \"#utility.yul\":13103:13549   */\n    tag_261:\n        /* \"#utility.yul\":13013:13556   */\n      pop\n      pop\n      pop\n      jump\t// out\n        /* \"#utility.yul\":13562:13679   */\n    tag_119:\n        /* \"#utility.yul\":13616:13624   */\n      0x00\n        /* \"#utility.yul\":13666:13671   */\n      dup3\n        /* \"#utility.yul\":13660:13664   */\n      dup3\n        /* \"#utility.yul\":13656:13672   */\n      shr\n        /* \"#utility.yul\":13635:13672   */\n      swap1\n      pop\n        /* \"#utility.yul\":13562:13679   */\n      swap3\n      swap2\n      pop\n      pop\n      jump\t// out\n        /* \"#utility.yul\":13685:13854   */\n    tag_120:\n        /* \"#utility.yul\":13729:13735   */\n      0x00\n        /* \"#utility.yul\":13762:13813   */\n      tag_269\n        /* \"#utility.yul\":13810:13811   */\n      0x00\n        /* \"#utility.yul\":13806:13812   */\n      not\n        /* \"#utility.yul\":13798:13803   */\n      dup5\n        /* \"#utility.yul\":13795:13796   */\n      0x08\n        /* \"#utility.yul\":13791:13804   */\n      mul\n        /* \"#utility.yul\":13762:13813   */\n      tag_119\n      jump\t// in\n    tag_269:\n        /* \"#utility.yul\":13758:13814   */\n      not\n        /* \"#utility.yul\":13843:13847   */\n      dup1\n        /* \"#utility.yul\":13837:13841   */\n      dup4\n        /* \"#utility.yul\":13833:13848   */\n      and\n        /* \"#utility.yul\":13823:13848   */\n      swap2\n      pop\n        /* \"#utility.yul\":13736:13854   */\n      pop\n        /* \"#utility.yul\":13685:13854   */\n      swap3\n      swap2\n      pop\n      pop\n      jump\t// out\n        /* \"#utility.yul\":13859:14154   */\n    tag_121:\n        /* \"#utility.yul\":13935:13939   */\n      0x00\n        /* \"#utility.yul\":14081:14110   */\n      tag_271\n        /* \"#utility.yul\":14106:14109   */\n      dup4\n        /* \"#utility.yul\":14100:14104   */\n      dup4\n        /* \"#utility.yul\":14081:14110   */\n      tag_120\n      jump\t// in\n    tag_271:\n        /* \"#utility.yul\":14073:14110   */\n      swap2\n      pop\n        /* \"#utility.yul\":14143:14146   */\n      dup3\n        /* \"#utility.yul\":14140:14141   */\n      0x02\n        /* \"#utility.yul\":14136:14147   */\n      mul\n        /* \"#utility.yul\":14130:14134   */\n      dup3\n        /* \"#utility.yul\":14127:14148   */\n      or\n        /* \"#utility.yul\":14119:14148   */\n      swap1\n      pop\n        /* \"#utility.yul\":13859:14154   */\n      swap3\n      swap2\n      pop\n      pop\n      jump\t// out\n        /* \"#utility.yul\":14159:15554   */\n    tag_60:\n        /* \"#utility.yul\":14276:14313   */\n      tag_273\n        /* \"#utility.yul\":14309:14312   */\n      dup3\n        /* \"#utility.yul\":14276:14313   */\n      tag_76\n      jump\t// in\n    tag_273:\n        /* \"#utility.yul\":14378:14396   */\n      0xffffffffffffffff\n        /* \"#utility.yul\":14370:14376   */\n      dup2\n        /* \"#utility.yul\":14367:14397   */\n      gt\n        /* \"#utility.yul\":14364:14420   */\n      iszero\n      tag_274\n      jumpi\n        /* \"#utility.yul\":14400:14418   */\n      tag_275\n      tag_97\n      jump\t// in\n    tag_275:\n        /* \"#utility.yul\":14364:14420   */\n    tag_274:\n        /* \"#utility.yul\":14444:14482   */\n      tag_276\n        /* \"#utility.yul\":14476:14480   */\n      dup3\n        /* \"#utility.yul\":14470:14481   */\n      sload\n        /* \"#utility.yul\":14444:14482   */\n      tag_32\n      jump\t// in\n    tag_276:\n        /* \"#utility.yul\":14529:14596   */\n      tag_277\n        /* \"#utility.yul\":14589:14595   */\n      dup3\n        /* \"#utility.yul\":14581:14587   */\n      dup3\n        /* \"#utility.yul\":14575:14579   */\n      dup6\n        /* \"#utility.yul\":14529:14596   */\n      tag_118\n      jump\t// in\n    tag_277:\n        /* \"#utility.yul\":14623:14624   */\n      0x00\n        /* \"#utility.yul\":14647:14651   */\n      0x20\n        /* \"#utility.yul\":14634:14651   */\n      swap1\n      pop\n        /* \"#utility.yul\":14679:14681   */\n      0x1f\n        /* \"#utility.yul\":14671:14677   */\n      dup4\n        /* \"#utility.yul\":14668:14682   */\n      gt\n        /* \"#utility.yul\":14696:14697   */\n      0x01\n        /* \"#utility.yul\":14691:15309   */\n      dup2\n      eq\n      tag_279\n      jumpi\n        /* \"#utility.yul\":15353:15354   */\n      0x00\n        /* \"#utility.yul\":15370:15376   */\n      dup5\n        /* \"#utility.yul\":15367:15444   */\n      iszero\n      tag_280\n      jumpi\n        /* \"#utility.yul\":15419:15428   */\n      dup3\n        /* \"#utility.yul\":15414:15417   */\n      dup8\n        /* \"#utility.yul\":15410:15429   */\n      add\n        /* \"#utility.yul\":15404:15430   */\n      mload\n        /* \"#utility.yul\":15395:15430   */\n      swap1\n      pop\n        /* \"#utility.yul\":15367:15444   */\n    tag_280:\n        /* \"#utility.yul\":15470:15537   */\n      tag_281\n        /* \"#utility.yul\":15530:15536   */\n      dup6\n        /* \"#utility.yul\":15523:15528   */\n      dup3\n        /* \"#utility.yul\":15470:15537   */\n      tag_121\n      jump\t// in\n    tag_281:\n        /* \"#utility.yul\":15464:15468   */\n      dup7\n        /* \"#utility.yul\":15457:15538   */\n      sstore\n        /* \"#utility.yul\":15326:15548   */\n      pop\n        /* \"#utility.yul\":14661:15548   */\n      jump(tag_278)\n        /* \"#utility.yul\":14691:15309   */\n    tag_279:\n        /* \"#utility.yul\":14743:14747   */\n      0x1f\n        /* \"#utility.yul\":14739:14748   */\n      not\n        /* \"#utility.yul\":14731:14737   */\n      dup5\n        /* \"#utility.yul\":14727:14749   */\n      and\n        /* \"#utility.yul\":14777:14814   */\n      tag_282\n        /* \"#utility.yul\":14809:14813   */\n      dup7\n        /* \"#utility.yul\":14777:14814   */\n      tag_107\n      jump\t// in\n    tag_282:\n        /* \"#utility.yul\":14836:14837   */\n      0x00\n        /* \"#utility.yul\":14850:15058   */\n    tag_283:\n        /* \"#utility.yul\":14864:14871   */\n      dup3\n        /* \"#utility.yul\":14861:14862   */\n      dup2\n        /* \"#utility.yul\":14858:14872   */\n      lt\n        /* \"#utility.yul\":14850:15058   */\n      iszero\n      tag_285\n      jumpi\n        /* \"#utility.yul\":14943:14952   */\n      dup5\n        /* \"#utility.yul\":14938:14941   */\n      dup10\n        /* \"#utility.yul\":14934:14953   */\n      add\n        /* \"#utility.yul\":14928:14954   */\n      mload\n        /* \"#utility.yul\":14920:14926   */\n      dup3\n        /* \"#utility.yul\":14913:14955   */\n      sstore\n        /* \"#utility.yul\":14994:14995   */\n      0x01\n        /* \"#utility.yul\":14986:14992   */\n      dup3\n        /* \"#utility.yul\":14982:14996   */\n      add\n        /* \"#utility.yul\":14972:14996   */\n      swap2\n      pop\n        /* \"#utility.yul\":15041:15043   */\n      0x20\n        /* \"#utility.yul\":15030:15039   */\n      dup6\n        /* \"#utility.yul\":15026:15044   */\n      add\n        /* \"#utility.yul\":15013:15044   */\n      swap5\n      pop\n        /* \"#utility.yul\":14887:14891   */\n      0x20\n        /* \"#utility.yul\":14884:14885   */\n      dup2\n        /* \"#utility.yul\":14880:14892   */\n      add\n        /* \"#utility.yul\":14875:14892   */\n      swap1\n      pop\n        /* \"#utility.yul\":14850:15058   */\n      jump(tag_283)\n    tag_285:\n        /* \"#utility.yul\":15086:15092   */\n      dup7\n        /* \"#utility.yul\":15077:15084   */\n      dup4\n        /* \"#utility.yul\":15074:15093   */\n      lt\n        /* \"#utility.yul\":15071:15250   */\n      iszero\n      tag_286\n      jumpi\n        /* \"#utility.yul\":15144:15153   */\n      dup5\n        /* \"#utility.yul\":15139:15142   */\n      dup10\n        /* \"#utility.yul\":15135:15154   */\n      add\n        /* \"#utility.yul\":15129:15155   */\n      mload\n        /* \"#utility.yul\":15187:15235   */\n      tag_287\n        /* \"#utility.yul\":15229:15233   */\n      0x1f\n        /* \"#utility.yul\":15221:15227   */\n      dup10\n        /* \"#utility.yul\":15217:15234   */\n      and\n        /* \"#utility.yul\":15206:15215   */\n      dup3\n        /* \"#utility.yul\":15187:15235   */\n      tag_120\n      jump\t// in\n    tag_287:\n        /* \"#utility.yul\":15179:15185   */\n      dup4\n        /* \"#utility.yul\":15172:15236   */\n      sstore\n        /* \"#utility.yul\":15094:15250   */\n      pop\n        /* \"#utility.yul\":15071:15250   */\n    tag_286:\n        /* \"#utility.yul\":15296:15297   */\n      0x01\n        /* \"#utility.yul\":15292:15293   */\n      0x02\n        /* \"#utility.yul\":15284:15290   */\n      dup9\n        /* \"#utility.yul\":15280:15294   */\n      mul\n        /* \"#utility.yul\":15276:15298   */\n      add\n        /* \"#utility.yul\":15270:15274   */\n      dup9\n        /* \"#utility.yul\":15263:15299   */\n      sstore\n        /* \"#utility.yul\":14698:15309   */\n      pop\n      pop\n      pop\n        /* \"#utility.yul\":14661:15548   */\n    tag_278:\n      pop\n        /* \"#utility.yul\":14251:15554   */\n      pop\n      pop\n      pop\n        /* \"#utility.yul\":14159:15554   */\n      pop\n      pop\n      jump\t// out\n\n    auxdata: 0xa264697066735822122019e34e2572b856df022211dbfe7680cdf04395b3d6c26222b9cf8db597e3edda64736f6c63430008120033\n}\n",
				"bytecode": {
					"linkReferences": {},
					"object": "608060405234801561001057600080fd5b50610c81806100206000396000f3fe608060405234801561001057600080fd5b506004361061004b5760003560e01c8062ad800c146100505780633a62251a1461008057806352efd6851461009e578063e0258db7146100d0575b600080fd5b61006a60048036038101906100659190610483565b6100ec565b6040516100779190610540565b60405180910390f35b610088610199565b60405161009591906106dc565b60405180910390f35b6100b860048036038101906100b39190610483565b6102a2565b6040516100c79392919061071c565b60405180910390f35b6100ea60048036038101906100e591906108bb565b610367565b005b6060600082600481106101025761010161093e565b5b6003020160000180546101149061099c565b80601f01602080910402602001604051908101604052809291908181526020018280546101409061099c565b801561018d5780601f106101625761010080835404028352916020019161018d565b820191906000526020600020905b81548152906001019060200180831161017057829003601f168201915b50505050509050919050565b6101a16103e9565b6000600480602002604051908101604052809291906000905b82821015610299578382600302016040518060600160405290816000820180546101e39061099c565b80601f016020809104026020016040519081016040528092919081815260200182805461020f9061099c565b801561025c5780601f106102315761010080835404028352916020019161025c565b820191906000526020600020905b81548152906001019060200180831161023f57829003601f168201915b50505050508152602001600182015481526020016002820160009054906101000a900460ff161515151581525050815260200190600101906101ba565b50505050905090565b600081600481106102b257600080fd5b600302016000915090508060000180546102cb9061099c565b80601f01602080910402602001604051908101604052809291908181526020018280546102f79061099c565b80156103445780601f1061031957610100808354040283529160200191610344565b820191906000526020600020905b81548152906001019060200180831161032757829003601f168201915b5050505050908060010154908060020160009054906101000a900460ff16905083565b826000856004811061037c5761037b61093e565b5b60030201600001908161038f9190610b79565b5081600085600481106103a5576103a461093e565b5b600302016001018190555080600085600481106103c5576103c461093e565b5b6003020160020160006101000a81548160ff02191690831515021790555050505050565b60405180608001604052806004905b610400610416565b8152602001906001900390816103f85790505090565b604051806060016040528060608152602001600081526020016000151581525090565b6000604051905090565b600080fd5b600080fd5b6000819050919050565b6104608161044d565b811461046b57600080fd5b50565b60008135905061047d81610457565b92915050565b60006020828403121561049957610498610443565b5b60006104a78482850161046e565b91505092915050565b600081519050919050565b600082825260208201905092915050565b60005b838110156104ea5780820151818401526020810190506104cf565b60008484015250505050565b6000601f19601f8301169050919050565b6000610512826104b0565b61051c81856104bb565b935061052c8185602086016104cc565b610535816104f6565b840191505092915050565b6000602082019050818103600083015261055a8184610507565b905092915050565b600060049050919050565b600081905092915050565b6000819050919050565b600082825260208201905092915050565b600061059e826104b0565b6105a88185610582565b93506105b88185602086016104cc565b6105c1816104f6565b840191505092915050565b6105d58161044d565b82525050565b60008115159050919050565b6105f0816105db565b82525050565b600060608301600083015184820360008601526106138282610593565b915050602083015161062860208601826105cc565b50604083015161063b60408601826105e7565b508091505092915050565b600061065283836105f6565b905092915050565b6000602082019050919050565b600061067282610562565b61067c818561056d565b93508360208202850161068e85610578565b8060005b858110156106ca57848403895281516106ab8582610646565b94506106b68361065a565b925060208a01995050600181019050610692565b50829750879550505050505092915050565b600060208201905081810360008301526106f68184610667565b905092915050565b6107078161044d565b82525050565b610716816105db565b82525050565b600060608201905081810360008301526107368186610507565b905061074560208301856106fe565b610752604083018461070d565b949350505050565b600080fd5b600080fd5b7f4e487b7100000000000000000000000000000000000000000000000000000000600052604160045260246000fd5b61079c826104f6565b810181811067ffffffffffffffff821117156107bb576107ba610764565b5b80604052505050565b60006107ce610439565b90506107da8282610793565b919050565b600067ffffffffffffffff8211156107fa576107f9610764565b5b610803826104f6565b9050602081019050919050565b82818337600083830152505050565b600061083261082d846107df565b6107c4565b90508281526020810184848401111561084e5761084d61075f565b5b610859848285610810565b509392505050565b600082601f8301126108765761087561075a565b5b813561088684826020860161081f565b91505092915050565b610898816105db565b81146108a357600080fd5b50565b6000813590506108b58161088f565b92915050565b600080600080608085870312156108d5576108d4610443565b5b60006108e38782880161046e565b945050602085013567ffffffffffffffff81111561090457610903610448565b5b61091087828801610861565b93505060406109218782880161046e565b9250506060610932878288016108a6565b91505092959194509250565b7f4e487b7100000000000000000000000000000000000000000000000000000000600052603260045260246000fd5b7f4e487b7100000000000000000000000000000000000000000000000000000000600052602260045260246000fd5b600060028204905060018216806109b457607f821691505b6020821081036109c7576109c661096d565b5b50919050565b60008190508160005260206000209050919050565b60006020601f8301049050919050565b600082821b905092915050565b600060088302610a2f7fffffffffffffffffffffffffffffffffffffffffffffffffffffffffffffffff826109f2565b610a3986836109f2565b95508019841693508086168417925050509392505050565b6000819050919050565b6000610a76610a71610a6c8461044d565b610a51565b61044d565b9050919050565b6000819050919050565b610a9083610a5b565b610aa4610a9c82610a7d565b8484546109ff565b825550505050565b600090565b610ab9610aac565b610ac4818484610a87565b505050565b5b81811015610ae857610add600082610ab1565b600181019050610aca565b5050565b601f821115610b2d57610afe816109cd565b610b07846109e2565b81016020851015610b16578190505b610b2a610b22856109e2565b830182610ac9565b50505b505050565b600082821c905092915050565b6000610b5060001984600802610b32565b1980831691505092915050565b6000610b698383610b3f565b9150826002028217905092915050565b610b82826104b0565b67ffffffffffffffff811115610b9b57610b9a610764565b5b610ba5825461099c565b610bb0828285610aec565b600060209050601f831160018114610be35760008415610bd1578287015190505b610bdb8582610b5d565b865550610c43565b601f198416610bf1866109cd565b60005b82811015610c1957848901518255600182019150602085019450602081019050610bf4565b86831015610c365784890151610c32601f891682610b3f565b8355505b6001600288020188555050505b50505050505056fea264697066735822122019e34e2572b856df022211dbfe7680cdf04395b3d6c26222b9cf8db597e3edda64736f6c63430008120033",
					"opcodes": "PUSH1 0x80 PUSH1 0x40 MSTORE CALLVALUE DUP1 ISZERO PUSH2 0x10 JUMPI PUSH1 0x0 DUP1 REVERT JUMPDEST POP PUSH2 0xC81 DUP1 PUSH2 0x20 PUSH1 0x0 CODECOPY PUSH1 0x0 RETURN INVALID PUSH1 0x80 PUSH1 0x40 MSTORE CALLVALUE DUP1 ISZERO PUSH2 0x10 JUMPI PUSH1 0x0 DUP1 REVERT JUMPDEST POP PUSH1 0x4 CALLDATASIZE LT PUSH2 0x4B JUMPI PUSH1 0x0 CALLDATALOAD PUSH1 0xE0 SHR DUP1 PUSH3 0xAD800C EQ PUSH2 0x50 JUMPI DUP1 PUSH4 0x3A62251A EQ PUSH2 0x80 JUMPI DUP1 PUSH4 0x52EFD685 EQ PUSH2 0x9E JUMPI DUP1 PUSH4 0xE0258DB7 EQ PUSH2 0xD0 JUMPI JUMPDEST PUSH1 0x0 DUP1 REVERT JUMPDEST PUSH2 0x6A PUSH1 0x4 DUP1 CALLDATASIZE SUB DUP2 ADD SWAP1 PUSH2 0x65 SWAP2 SWAP1 PUSH2 0x483 JUMP JUMPDEST PUSH2 0xEC JUMP JUMPDEST PUSH1 0x40 MLOAD PUSH2 0x77 SWAP2 SWAP1 PUSH2 0x540 JUMP JUMPDEST PUSH1 0x40 MLOAD DUP1 SWAP2 SUB SWAP1 RETURN JUMPDEST PUSH2 0x88 PUSH2 0x199 JUMP JUMPDEST PUSH1 0x40 MLOAD PUSH2 0x95 SWAP2 SWAP1 PUSH2 0x6DC JUMP JUMPDEST PUSH1 0x40 MLOAD DUP1 SWAP2 SUB SWAP1 RETURN JUMPDEST PUSH2 0xB8 PUSH1 0x4 DUP1 CALLDATASIZE SUB DUP2 ADD SWAP1 PUSH2 0xB3 SWAP2 SWAP1 PUSH2 0x483 JUMP JUMPDEST PUSH2 0x2A2 JUMP JUMPDEST PUSH1 0x40 MLOAD PUSH2 0xC7 SWAP4 SWAP3 SWAP2 SWAP1 PUSH2 0x71C JUMP JUMPDEST PUSH1 0x40 MLOAD DUP1 SWAP2 SUB SWAP1 RETURN JUMPDEST PUSH2 0xEA PUSH1 0x4 DUP1 CALLDATASIZE SUB DUP2 ADD SWAP1 PUSH2 0xE5 SWAP2 SWAP1 PUSH2 0x8BB JUMP JUMPDEST PUSH2 0x367 JUMP JUMPDEST STOP JUMPDEST PUSH1 0x60 PUSH1 0x0 DUP3 PUSH1 0x4 DUP2 LT PUSH2 0x102 JUMPI PUSH2 0x101 PUSH2 0x93E JUMP JUMPDEST JUMPDEST PUSH1 0x3 MUL ADD PUSH1 0x0 ADD DUP1 SLOAD PUSH2 0x114 SWAP1 PUSH2 0x99C JUMP JUMPDEST DUP1 PUSH1 0x1F ADD PUSH1 0x20 DUP1 SWAP2 DIV MUL PUSH1 0x20 ADD PUSH1 0x40 MLOAD SWAP1 DUP2 ADD PUSH1 0x40 MSTORE DUP1 SWAP3 SWAP2 SWAP1 DUP2 DUP2 MSTORE PUSH1 0x20 ADD DUP3 DUP1 SLOAD PUSH2 0x140 SWAP1 PUSH2 0x99C JUMP JUMPDEST DUP1 ISZERO PUSH2 0x18D JUMPI DUP1 PUSH1 0x1F LT PUSH2 0x162 JUMPI PUSH2 0x100 DUP1 DUP4 SLOAD DIV MUL DUP4 MSTORE SWAP2 PUSH1 0x20 ADD SWAP2 PUSH2 0x18D JUMP JUMPDEST DUP3 ADD SWAP2 SWAP1 PUSH1 0x0 MSTORE PUSH1 0x20 PUSH1 0x0 KECCAK256 SWAP1 JUMPDEST DUP2 SLOAD DUP2 MSTORE SWAP1 PUSH1 0x1 ADD SWAP1 PUSH1 0x20 ADD DUP1 DUP4 GT PUSH2 0x170 JUMPI DUP3 SWAP1 SUB PUSH1 0x1F AND DUP3 ADD SWAP2 JUMPDEST POP POP POP POP POP SWAP1 POP SWAP2 SWAP1 POP JUMP JUMPDEST PUSH2 0x1A1 PUSH2 0x3E9 JUMP JUMPDEST PUSH1 0x0 PUSH1 0x4 DUP1 PUSH1 0x20 MUL PUSH1 0x40 MLOAD SWAP1 DUP2 ADD PUSH1 0x40 MSTORE DUP1 SWAP3 SWAP2 SWAP1 PUSH1 0x0 SWAP1 JUMPDEST DUP3 DUP3 LT ISZERO PUSH2 0x299 JUMPI DUP4 DUP3 PUSH1 0x3 MUL ADD PUSH1 0x40 MLOAD DUP1 PUSH1 0x60 ADD PUSH1 0x40 MSTORE SWAP1 DUP2 PUSH1 0x0 DUP3 ADD DUP1 SLOAD PUSH2 0x1E3 SWAP1 PUSH2 0x99C JUMP JUMPDEST DUP1 PUSH1 0x1F ADD PUSH1 0x20 DUP1 SWAP2 DIV MUL PUSH1 0x20 ADD PUSH1 0x40 MLOAD SWAP1 DUP2 ADD PUSH1 0x40 MSTORE DUP1 SWAP3 SWAP2 SWAP1 DUP2 DUP2 MSTORE PUSH1 0x20 ADD DUP3 DUP1 SLOAD PUSH2 0x20F SWAP1 PUSH2 0x99C JUMP JUMPDEST DUP1 ISZERO PUSH2 0x25C JUMPI DUP1 PUSH1 0x1F LT PUSH2 0x231 JUMPI PUSH2 0x100 DUP1 DUP4 SLOAD DIV MUL DUP4 MSTORE SWAP2 PUSH1 0x20 ADD SWAP2 PUSH2 0x25C JUMP JUMPDEST DUP3 ADD SWAP2 SWAP1 PUSH1 0x0 MSTORE PUSH1 0x20 PUSH1 0x0 KECCAK256 SWAP1 JUMPDEST DUP2 SLOAD DUP2 MSTORE SWAP1 PUSH1 0x1 ADD SWAP1 PUSH1 0x20 ADD DUP1 DUP4 GT PUSH2 0x23F JUMPI DUP3 SWAP1 SUB PUSH1 0x1F AND DUP3 ADD SWAP2 JUMPDEST POP POP POP POP POP DUP2 MSTORE PUSH1 0x20 ADD PUSH1 0x1 DUP3 ADD SLOAD DUP2 MSTORE PUSH1 0x20 ADD PUSH1 0x2 DUP3 ADD PUSH1 0x0 SWAP1 SLOAD SWAP1 PUSH2 0x100 EXP SWAP1 DIV PUSH1 0xFF AND ISZERO ISZERO ISZERO ISZERO DUP2 MSTORE POP POP DUP2 MSTORE PUSH1 0x20 ADD SWAP1 PUSH1 0x1 ADD SWAP1 PUSH2 0x1BA JUMP JUMPDEST POP POP POP POP SWAP1 POP SWAP1 JUMP JUMPDEST PUSH1 0x0 DUP2 PUSH1 0x4 DUP2 LT PUSH2 0x2B2 JUMPI PUSH1 0x0 DUP1 REVERT JUMPDEST PUSH1 0x3 MUL ADD PUSH1 0x0 SWAP2 POP SWAP1 POP DUP1 PUSH1 0x0 ADD DUP1 SLOAD PUSH2 0x2CB SWAP1 PUSH2 0x99C JUMP JUMPDEST DUP1 PUSH1 0x1F ADD PUSH1 0x20 DUP1 SWAP2 DIV MUL PUSH1 0x20 ADD PUSH1 0x40 MLOAD SWAP1 DUP2 ADD PUSH1 0x40 MSTORE DUP1 SWAP3 SWAP2 SWAP1 DUP2 DUP2 MSTORE PUSH1 0x20 ADD DUP3 DUP1 SLOAD PUSH2 0x2F7 SWAP1 PUSH2 0x99C JUMP JUMPDEST DUP1 ISZERO PUSH2 0x344 JUMPI DUP1 PUSH1 0x1F LT PUSH2 0x319 JUMPI PUSH2 0x100 DUP1 DUP4 SLOAD DIV MUL DUP4 MSTORE SWAP2 PUSH1 0x20 ADD SWAP2 PUSH2 0x344 JUMP JUMPDEST DUP3 ADD SWAP2 SWAP1 PUSH1 0x0 MSTORE PUSH1 0x20 PUSH1 0x0 KECCAK256 SWAP1 JUMPDEST DUP2 SLOAD DUP2 MSTORE SWAP1 PUSH1 0x1 ADD SWAP1 PUSH1 0x20 ADD DUP1 DUP4 GT PUSH2 0x327 JUMPI DUP3 SWAP1 SUB PUSH1 0x1F AND DUP3 ADD SWAP2 JUMPDEST POP POP POP POP POP SWAP1 DUP1 PUSH1 0x1 ADD SLOAD SWAP1 DUP1 PUSH1 0x2 ADD PUSH1 0x0 SWAP1 SLOAD SWAP1 PUSH2 0x100 EXP SWAP1 DIV PUSH1 0xFF AND SWAP1 POP DUP4 JUMP JUMPDEST DUP3 PUSH1 0x0 DUP6 PUSH1 0x4 DUP2 LT PUSH2 0x37C JUMPI PUSH2 0x37B PUSH2 0x93E JUMP JUMPDEST JUMPDEST PUSH1 0x3 MUL ADD PUSH1 0x0 ADD SWAP1 DUP2 PUSH2 0x38F SWAP2 SWAP1 PUSH2 0xB79 JUMP JUMPDEST POP DUP2 PUSH1 0x0 DUP6 PUSH1 0x4 DUP2 LT PUSH2 0x3A5 JUMPI PUSH2 0x3A4 PUSH2 0x93E JUMP JUMPDEST JUMPDEST PUSH1 0x3 MUL ADD PUSH1 0x1 ADD DUP2 SWAP1 SSTORE POP DUP1 PUSH1 0x0 DUP6 PUSH1 0x4 DUP2 LT PUSH2 0x3C5 JUMPI PUSH2 0x3C4 PUSH2 0x93E JUMP JUMPDEST JUMPDEST PUSH1 0x3 MUL ADD PUSH1 0x2 ADD PUSH1 0x0 PUSH2 0x100 EXP DUP2 SLOAD DUP2 PUSH1 0xFF MUL NOT AND SWAP1 DUP4 ISZERO ISZERO MUL OR SWAP1 SSTORE POP POP POP POP POP JUMP JUMPDEST PUSH1 0x40 MLOAD DUP1 PUSH1 0x80 ADD PUSH1 0x40 MSTORE DUP1 PUSH1 0x4 SWAP1 JUMPDEST PUSH2 0x400 PUSH2 0x416 JUMP JUMPDEST DUP2 MSTORE PUSH1 0x20 ADD SWAP1 PUSH1 0x1 SWAP1 SUB SWAP1 DUP2 PUSH2 0x3F8 JUMPI SWAP1 POP POP SWAP1 JUMP JUMPDEST PUSH1 0x40 MLOAD DUP1 PUSH1 0x60 ADD PUSH1 0x40 MSTORE DUP1 PUSH1 0x60 DUP2 MSTORE PUSH1 0x20 ADD PUSH1 0x0 DUP2 MSTORE PUSH1 0x20 ADD PUSH1 0x0 ISZERO ISZERO DUP2 MSTORE POP SWAP1 JUMP JUMPDEST PUSH1 0x0 PUSH1 0x40 MLOAD SWAP1 POP SWAP1 JUMP JUMPDEST PUSH1 0x0 DUP1 REVERT JUMPDEST PUSH1 0x0 DUP1 REVERT JUMPDEST PUSH1 0x0 DUP2 SWAP1 POP SWAP2 SWAP1 POP JUMP JUMPDEST PUSH2 0x460 DUP2 PUSH2 0x44D JUMP JUMPDEST DUP2 EQ PUSH2 0x46B JUMPI PUSH1 0x0 DUP1 REVERT JUMPDEST POP JUMP JUMPDEST PUSH1 0x0 DUP2 CALLDATALOAD SWAP1 POP PUSH2 0x47D DUP2 PUSH2 0x457 JUMP JUMPDEST SWAP3 SWAP2 POP POP JUMP JUMPDEST PUSH1 0x0 PUSH1 0x20 DUP3 DUP5 SUB SLT ISZERO PUSH2 0x499 JUMPI PUSH2 0x498 PUSH2 0x443 JUMP JUMPDEST JUMPDEST PUSH1 0x0 PUSH2 0x4A7 DUP5 DUP3 DUP6 ADD PUSH2 0x46E JUMP JUMPDEST SWAP2 POP POP SWAP3 SWAP2 POP POP JUMP JUMPDEST PUSH1 0x0 DUP2 MLOAD SWAP1 POP SWAP2 SWAP1 POP JUMP JUMPDEST PUSH1 0x0 DUP3 DUP3 MSTORE PUSH1 0x20 DUP3 ADD SWAP1 POP SWAP3 SWAP2 POP POP JUMP JUMPDEST PUSH1 0x0 JUMPDEST DUP4 DUP2 LT ISZERO PUSH2 0x4EA JUMPI DUP1 DUP3 ADD MLOAD DUP2 DUP5 ADD MSTORE PUSH1 0x20 DUP2 ADD SWAP1 POP PUSH2 0x4CF JUMP JUMPDEST PUSH1 0x0 DUP5 DUP5 ADD MSTORE POP POP POP POP JUMP JUMPDEST PUSH1 0x0 PUSH1 0x1F NOT PUSH1 0x1F DUP4 ADD AND SWAP1 POP SWAP2 SWAP1 POP JUMP JUMPDEST PUSH1 0x0 PUSH2 0x512 DUP3 PUSH2 0x4B0 JUMP JUMPDEST PUSH2 0x51C DUP2 DUP6 PUSH2 0x4BB JUMP JUMPDEST SWAP4 POP PUSH2 0x52C DUP2 DUP6 PUSH1 0x20 DUP7 ADD PUSH2 0x4CC JUMP JUMPDEST PUSH2 0x535 DUP2 PUSH2 0x4F6 JUMP JUMPDEST DUP5 ADD SWAP2 POP POP SWAP3 SWAP2 POP POP JUMP JUMPDEST PUSH1 0x0 PUSH1 0x20 DUP3 ADD SWAP1 POP DUP2 DUP2 SUB PUSH1 0x0 DUP4 ADD MSTORE PUSH2 0x55A DUP2 DUP5 PUSH2 0x507 JUMP JUMPDEST SWAP1 POP SWAP3 SWAP2 POP POP JUMP JUMPDEST PUSH1 0x0 PUSH1 0x4 SWAP1 POP SWAP2 SWAP1 POP JUMP JUMPDEST PUSH1 0x0 DUP2 SWAP1 POP SWAP3 SWAP2 POP POP JUMP JUMPDEST PUSH1 0x0 DUP2 SWAP1 POP SWAP2 SWAP1 POP JUMP JUMPDEST PUSH1 0x0 DUP3 DUP3 MSTORE PUSH1 0x20 DUP3 ADD SWAP1 POP SWAP3 SWAP2 POP POP JUMP JUMPDEST PUSH1 0x0 PUSH2 0x59E DUP3 PUSH2 0x4B0 JUMP JUMPDEST PUSH2 0x5A8 DUP2 DUP6 PUSH2 0x582 JUMP JUMPDEST SWAP4 POP PUSH2 0x5B8 DUP2 DUP6 PUSH1 0x20 DUP7 ADD PUSH2 0x4CC JUMP JUMPDEST PUSH2 0x5C1 DUP2 PUSH2 0x4F6 JUMP JUMPDEST DUP5 ADD SWAP2 POP POP SWAP3 SWAP2 POP POP JUMP JUMPDEST PUSH2 0x5D5 DUP2 PUSH2 0x44D JUMP JUMPDEST DUP3 MSTORE POP POP JUMP JUMPDEST PUSH1 0x0 DUP2 ISZERO ISZERO SWAP1 POP SWAP2 SWAP1 POP JUMP JUMPDEST PUSH2 0x5F0 DUP2 PUSH2 0x5DB JUMP JUMPDEST DUP3 MSTORE POP POP JUMP JUMPDEST PUSH1 0x0 PUSH1 0x60 DUP4 ADD PUSH1 0x0 DUP4 ADD MLOAD DUP5 DUP3 SUB PUSH1 0x0 DUP7 ADD MSTORE PUSH2 0x613 DUP3 DUP3 PUSH2 0x593 JUMP JUMPDEST SWAP2 POP POP PUSH1 0x20 DUP4 ADD MLOAD PUSH2 0x628 PUSH1 0x20 DUP7 ADD DUP3 PUSH2 0x5CC JUMP JUMPDEST POP PUSH1 0x40 DUP4 ADD MLOAD PUSH2 0x63B PUSH1 0x40 DUP7 ADD DUP3 PUSH2 0x5E7 JUMP JUMPDEST POP DUP1 SWAP2 POP POP SWAP3 SWAP2 POP POP JUMP JUMPDEST PUSH1 0x0 PUSH2 0x652 DUP4 DUP4 PUSH2 0x5F6 JUMP JUMPDEST SWAP1 POP SWAP3 SWAP2 POP POP JUMP JUMPDEST PUSH1 0x0 PUSH1 0x20 DUP3 ADD SWAP1 POP SWAP2 SWAP1 POP JUMP JUMPDEST PUSH1 0x0 PUSH2 0x672 DUP3 PUSH2 0x562 JUMP JUMPDEST PUSH2 0x67C DUP2 DUP6 PUSH2 0x56D JUMP JUMPDEST SWAP4 POP DUP4 PUSH1 0x20 DUP3 MUL DUP6 ADD PUSH2 0x68E DUP6 PUSH2 0x578 JUMP JUMPDEST DUP1 PUSH1 0x0 JUMPDEST DUP6 DUP2 LT ISZERO PUSH2 0x6CA JUMPI DUP5 DUP5 SUB DUP10 MSTORE DUP2 MLOAD PUSH2 0x6AB DUP6 DUP3 PUSH2 0x646 JUMP JUMPDEST SWAP5 POP PUSH2 0x6B6 DUP4 PUSH2 0x65A JUMP JUMPDEST SWAP3 POP PUSH1 0x20 DUP11 ADD SWAP10 POP POP PUSH1 0x1 DUP2 ADD SWAP1 POP PUSH2 0x692 JUMP JUMPDEST POP DUP3 SWAP8 POP DUP8 SWAP6 POP POP POP POP POP POP SWAP3 SWAP2 POP POP JUMP JUMPDEST PUSH1 0x0 PUSH1 0x20 DUP3 ADD SWAP1 POP DUP2 DUP2 SUB PUSH1 0x0 DUP4 ADD MSTORE PUSH2 0x6F6 DUP2 DUP5 PUSH2 0x667 JUMP JUMPDEST SWAP1 POP SWAP3 SWAP2 POP POP JUMP JUMPDEST PUSH2 0x707 DUP2 PUSH2 0x44D JUMP JUMPDEST DUP3 MSTORE POP POP JUMP JUMPDEST PUSH2 0x716 DUP2 PUSH2 0x5DB JUMP JUMPDEST DUP3 MSTORE POP POP JUMP JUMPDEST PUSH1 0x0 PUSH1 0x60 DUP3 ADD SWAP1 POP DUP2 DUP2 SUB PUSH1 0x0 DUP4 ADD MSTORE PUSH2 0x736 DUP2 DUP7 PUSH2 0x507 JUMP JUMPDEST SWAP1 POP PUSH2 0x745 PUSH1 0x20 DUP4 ADD DUP6 PUSH2 0x6FE JUMP JUMPDEST PUSH2 0x752 PUSH1 0x40 DUP4 ADD DUP5 PUSH2 0x70D JUMP JUMPDEST SWAP5 SWAP4 POP POP POP POP JUMP JUMPDEST PUSH1 0x0 DUP1 REVERT JUMPDEST PUSH1 0x0 DUP1 REVERT JUMPDEST PUSH32 0x4E487B7100000000000000000000000000000000000000000000000000000000 PUSH1 0x0 MSTORE PUSH1 0x41 PUSH1 0x4 MSTORE PUSH1 0x24 PUSH1 0x0 REVERT JUMPDEST PUSH2 0x79C DUP3 PUSH2 0x4F6 JUMP JUMPDEST DUP2 ADD DUP2 DUP2 LT PUSH8 0xFFFFFFFFFFFFFFFF DUP3 GT OR ISZERO PUSH2 0x7BB JUMPI PUSH2 0x7BA PUSH2 0x764 JUMP JUMPDEST JUMPDEST DUP1 PUSH1 0x40 MSTORE POP POP POP JUMP JUMPDEST PUSH1 0x0 PUSH2 0x7CE PUSH2 0x439 JUMP JUMPDEST SWAP1 POP PUSH2 0x7DA DUP3 DUP3 PUSH2 0x793 JUMP JUMPDEST SWAP2 SWAP1 POP JUMP JUMPDEST PUSH1 0x0 PUSH8 0xFFFFFFFFFFFFFFFF DUP3 GT ISZERO PUSH2 0x7FA JUMPI PUSH2 0x7F9 PUSH2 0x764 JUMP JUMPDEST JUMPDEST PUSH2 0x803 DUP3 PUSH2 0x4F6 JUMP JUMPDEST SWAP1 POP PUSH1 0x20 DUP2 ADD SWAP1 POP SWAP2 SWAP1 POP JUMP JUMPDEST DUP3 DUP2 DUP4 CALLDATACOPY PUSH1 0x0 DUP4 DUP4 ADD MSTORE POP POP POP JUMP JUMPDEST PUSH1 0x0 PUSH2 0x832 PUSH2 0x82D DUP5 PUSH2 0x7DF JUMP JUMPDEST PUSH2 0x7C4 JUMP JUMPDEST SWAP1 POP DUP3 DUP2 MSTORE PUSH1 0x20 DUP2 ADD DUP5 DUP5 DUP5 ADD GT ISZERO PUSH2 0x84E JUMPI PUSH2 0x84D PUSH2 0x75F JUMP JUMPDEST JUMPDEST PUSH2 0x859 DUP5 DUP3 DUP6 PUSH2 0x810 JUMP JUMPDEST POP SWAP4 SWAP3 POP POP POP JUMP JUMPDEST PUSH1 0x0 DUP3 PUSH1 0x1F DUP4 ADD SLT PUSH2 0x876 JUMPI PUSH2 0x875 PUSH2 0x75A JUMP JUMPDEST JUMPDEST DUP2 CALLDATALOAD PUSH2 0x886 DUP5 DUP3 PUSH1 0x20 DUP7 ADD PUSH2 0x81F JUMP JUMPDEST SWAP2 POP POP SWAP3 SWAP2 POP POP JUMP JUMPDEST PUSH2 0x898 DUP2 PUSH2 0x5DB JUMP JUMPDEST DUP2 EQ PUSH2 0x8A3 JUMPI PUSH1 0x0 DUP1 REVERT JUMPDEST POP JUMP JUMPDEST PUSH1 0x0 DUP2 CALLDATALOAD SWAP1 POP PUSH2 0x8B5 DUP2 PUSH2 0x88F JUMP JUMPDEST SWAP3 SWAP2 POP POP JUMP JUMPDEST PUSH1 0x0 DUP1 PUSH1 0x0 DUP1 PUSH1 0x80 DUP6 DUP8 SUB SLT ISZERO PUSH2 0x8D5 JUMPI PUSH2 0x8D4 PUSH2 0x443 JUMP JUMPDEST JUMPDEST PUSH1 0x0 PUSH2 0x8E3 DUP8 DUP3 DUP9 ADD PUSH2 0x46E JUMP JUMPDEST SWAP5 POP POP PUSH1 0x20 DUP6 ADD CALLDATALOAD PUSH8 0xFFFFFFFFFFFFFFFF DUP2 GT ISZERO PUSH2 0x904 JUMPI PUSH2 0x903 PUSH2 0x448 JUMP JUMPDEST JUMPDEST PUSH2 0x910 DUP8 DUP3 DUP9 ADD PUSH2 0x861 JUMP JUMPDEST SWAP4 POP POP PUSH1 0x40 PUSH2 0x921 DUP8 DUP3 DUP9 ADD PUSH2 0x46E JUMP JUMPDEST SWAP3 POP POP PUSH1 0x60 PUSH2 0x932 DUP8 DUP3 DUP9 ADD PUSH2 0x8A6 JUMP JUMPDEST SWAP2 POP POP SWAP3 SWAP6 SWAP2 SWAP5 POP SWAP3 POP JUMP JUMPDEST PUSH32 0x4E487B7100000000000000000000000000000000000000000000000000000000 PUSH1 0x0 MSTORE PUSH1 0x32 PUSH1 0x4 MSTORE PUSH1 0x24 PUSH1 0x0 REVERT JUMPDEST PUSH32 0x4E487B7100000000000000000000000000000000000000000000000000000000 PUSH1 0x0 MSTORE PUSH1 0x22 PUSH1 0x4 MSTORE PUSH1 0x24 PUSH1 0x0 REVERT JUMPDEST PUSH1 0x0 PUSH1 0x2 DUP3 DIV SWAP1 POP PUSH1 0x1 DUP3 AND DUP1 PUSH2 0x9B4 JUMPI PUSH1 0x7F DUP3 AND SWAP2 POP JUMPDEST PUSH1 0x20 DUP3 LT DUP2 SUB PUSH2 0x9C7 JUMPI PUSH2 0x9C6 PUSH2 0x96D JUMP JUMPDEST JUMPDEST POP SWAP2 SWAP1 POP JUMP JUMPDEST PUSH1 0x0 DUP2 SWAP1 POP DUP2 PUSH1 0x0 MSTORE PUSH1 0x20 PUSH1 0x0 KECCAK256 SWAP1 POP SWAP2 SWAP1 POP JUMP JUMPDEST PUSH1 0x0 PUSH1 0x20 PUSH1 0x1F DUP4 ADD DIV SWAP1 POP SWAP2 SWAP1 POP JUMP JUMPDEST PUSH1 0x0 DUP3 DUP3 SHL SWAP1 POP SWAP3 SWAP2 POP POP JUMP JUMPDEST PUSH1 0x0 PUSH1 0x8 DUP4 MUL PUSH2 0xA2F PUSH32 0xFFFFFFFFFFFFFFFFFFFFFFFFFFFFFFFFFFFFFFFFFFFFFFFFFFFFFFFFFFFFFFFF DUP3 PUSH2 0x9F2 JUMP JUMPDEST PUSH2 0xA39 DUP7 DUP4 PUSH2 0x9F2 JUMP JUMPDEST SWAP6 POP DUP1 NOT DUP5 AND SWAP4 POP DUP1 DUP7 AND DUP5 OR SWAP3 POP POP POP SWAP4 SWAP3 POP POP POP JUMP JUMPDEST PUSH1 0x0 DUP2 SWAP1 POP SWAP2 SWAP1 POP JUMP JUMPDEST PUSH1 0x0 PUSH2 0xA76 PUSH2 0xA71 PUSH2 0xA6C DUP5 PUSH2 0x44D JUMP JUMPDEST PUSH2 0xA51 JUMP JUMPDEST PUSH2 0x44D JUMP JUMPDEST SWAP1 POP SWAP2 SWAP1 POP JUMP JUMPDEST PUSH1 0x0 DUP2 SWAP1 POP SWAP2 SWAP1 POP JUMP JUMPDEST PUSH2 0xA90 DUP4 PUSH2 0xA5B JUMP JUMPDEST PUSH2 0xAA4 PUSH2 0xA9C DUP3 PUSH2 0xA7D JUMP JUMPDEST DUP5 DUP5 SLOAD PUSH2 0x9FF JUMP JUMPDEST DUP3 SSTORE POP POP POP POP JUMP JUMPDEST PUSH1 0x0 SWAP1 JUMP JUMPDEST PUSH2 0xAB9 PUSH2 0xAAC JUMP JUMPDEST PUSH2 0xAC4 DUP2 DUP5 DUP5 PUSH2 0xA87 JUMP JUMPDEST POP POP POP JUMP JUMPDEST JUMPDEST DUP2 DUP2 LT ISZERO PUSH2 0xAE8 JUMPI PUSH2 0xADD PUSH1 0x0 DUP3 PUSH2 0xAB1 JUMP JUMPDEST PUSH1 0x1 DUP2 ADD SWAP1 POP PUSH2 0xACA JUMP JUMPDEST POP POP JUMP JUMPDEST PUSH1 0x1F DUP3 GT ISZERO PUSH2 0xB2D JUMPI PUSH2 0xAFE DUP2 PUSH2 0x9CD JUMP JUMPDEST PUSH2 0xB07 DUP5 PUSH2 0x9E2 JUMP JUMPDEST DUP2 ADD PUSH1 0x20 DUP6 LT ISZERO PUSH2 0xB16 JUMPI DUP2 SWAP1 POP JUMPDEST PUSH2 0xB2A PUSH2 0xB22 DUP6 PUSH2 0x9E2 JUMP JUMPDEST DUP4 ADD DUP3 PUSH2 0xAC9 JUMP JUMPDEST POP POP JUMPDEST POP POP POP JUMP JUMPDEST PUSH1 0x0 DUP3 DUP3 SHR SWAP1 POP SWAP3 SWAP2 POP POP JUMP JUMPDEST PUSH1 0x0 PUSH2 0xB50 PUSH1 0x0 NOT DUP5 PUSH1 0x8 MUL PUSH2 0xB32 JUMP JUMPDEST NOT DUP1 DUP4 AND SWAP2 POP POP SWAP3 SWAP2 POP POP JUMP JUMPDEST PUSH1 0x0 PUSH2 0xB69 DUP4 DUP4 PUSH2 0xB3F JUMP JUMPDEST SWAP2 POP DUP3 PUSH1 0x2 MUL DUP3 OR SWAP1 POP SWAP3 SWAP2 POP POP JUMP JUMPDEST PUSH2 0xB82 DUP3 PUSH2 0x4B0 JUMP JUMPDEST PUSH8 0xFFFFFFFFFFFFFFFF DUP2 GT ISZERO PUSH2 0xB9B JUMPI PUSH2 0xB9A PUSH2 0x764 JUMP JUMPDEST JUMPDEST PUSH2 0xBA5 DUP3 SLOAD PUSH2 0x99C JUMP JUMPDEST PUSH2 0xBB0 DUP3 DUP3 DUP6 PUSH2 0xAEC JUMP JUMPDEST PUSH1 0x0 PUSH1 0x20 SWAP1 POP PUSH1 0x1F DUP4 GT PUSH1 0x1 DUP2 EQ PUSH2 0xBE3 JUMPI PUSH1 0x0 DUP5 ISZERO PUSH2 0xBD1 JUMPI DUP3 DUP8 ADD MLOAD SWAP1 POP JUMPDEST PUSH2 0xBDB DUP6 DUP3 PUSH2 0xB5D JUMP JUMPDEST DUP7 SSTORE POP PUSH2 0xC43 JUMP JUMPDEST PUSH1 0x1F NOT DUP5 AND PUSH2 0xBF1 DUP7 PUSH2 0x9CD JUMP JUMPDEST PUSH1 0x0 JUMPDEST DUP3 DUP2 LT ISZERO PUSH2 0xC19 JUMPI DUP5 DUP10 ADD MLOAD DUP3 SSTORE PUSH1 0x1 DUP3 ADD SWAP2 POP PUSH1 0x20 DUP6 ADD SWAP5 POP PUSH1 0x20 DUP2 ADD SWAP1 POP PUSH2 0xBF4 JUMP JUMPDEST DUP7 DUP4 LT ISZERO PUSH2 0xC36 JUMPI DUP5 DUP10 ADD MLOAD PUSH2 0xC32 PUSH1 0x1F DUP10 AND DUP3 PUSH2 0xB3F JUMP JUMPDEST DUP4 SSTORE POP JUMPDEST PUSH1 0x1 PUSH1 0x2 DUP9 MUL ADD DUP9 SSTORE POP POP POP JUMPDEST POP POP POP POP POP POP JUMP INVALID LOG2 PUSH5 0x6970667358 0x22 SLT KECCAK256 NOT 0xE3 0x4E 0x25 PUSH19 0xB856DF022211DBFE7680CDF04395B3D6C26222 0xB9 0xCF DUP14 0xB5 SWAP8 0xE3 0xED 0xDA PUSH5 0x736F6C6343 STOP ADDMOD SLT STOP CALLER "
				},
				"gasEstimates": {
					"creation": {
						"codeDepositCost": "640200",
						"executionCost": "676",
						"totalCost": "640876"
					},
					"external": {
						"insert(uint256,string,uint256,bool)": "infinite",
						"name(uint256)": "infinite",
						"s(uint256)": "infinite",
						"structReturns()": "infinite"
					}
				},
				"methodIdentifiers": {
					"insert(uint256,string,uint256,bool)": "e0258db7",
					"name(uint256)": "00ad800c",
					"s(uint256)": "52efd685",
					"structReturns()": "3a62251a"
				}
			},
			"storageLayout": {
				"storage": [
					{
						"astId": 13,
						"contract": "contracts/18ArrayOfStruct.sol:demo",
						"label": "s",
						"offset": 0,
						"slot": "0",
						"type": "t_array(t_struct(student)8_storage)4_storage"
					}
				],
				"types": {
					"t_array(t_struct(student)8_storage)4_storage": {
						"base": "t_struct(student)8_storage",
						"encoding": "inplace",
						"label": "struct demo.student[4]",
						"numberOfBytes": "384"
					},
					"t_bool": {
						"encoding": "inplace",
						"label": "bool",
						"numberOfBytes": "1"
					},
					"t_string_storage": {
						"encoding": "bytes",
						"label": "string",
						"numberOfBytes": "32"
					},
					"t_struct(student)8_storage": {
						"encoding": "inplace",
						"label": "struct demo.student",
						"members": [
							{
								"astId": 3,
								"contract": "contracts/18ArrayOfStruct.sol:demo",
								"label": "name",
								"offset": 0,
								"slot": "0",
								"type": "t_string_storage"
							},
							{
								"astId": 5,
								"contract": "contracts/18ArrayOfStruct.sol:demo",
								"label": "roll",
								"offset": 0,
								"slot": "1",
								"type": "t_uint256"
							},
							{
								"astId": 7,
								"contract": "contracts/18ArrayOfStruct.sol:demo",
								"label": "pass",
								"offset": 0,
								"slot": "2",
								"type": "t_bool"
							}
						],
						"numberOfBytes": "96"
					},
					"t_uint256": {
						"encoding": "inplace",
						"label": "uint256",
						"numberOfBytes": "32"
					}
				}
			},
			"userdoc": {
				"kind": "user",
				"methods": {},
				"version": 1
			}
		}
	}
}