{
	"contracts/19mapping.sol": {
		"demo": {
			"abi": [
				{
					"inputs": [
						{
							"internalType": "uint256",
							"name": "",
							"type": "uint256"
						},
						{
							"internalType": "uint256",
							"name": "",
							"type": "uint256"
						}
					],
					"name": "data",
					"outputs": [
						{
							"internalType": "uint256",
							"name": "",
							"type": "uint256"
						}
					],
					"stateMutability": "view",
					"type": "function"
				},
				{
					"inputs": [
						{
							"internalType": "uint256",
							"name": "indmap",
							"type": "uint256"
						},
						{
							"internalType": "uint256",
							"name": "indarr",
							"type": "uint256"
						},
						{
							"internalType": "uint256",
							"name": "element",
							"type": "uint256"
						}
					],
					"name": "insert",
					"outputs": [],
					"stateMutability": "nonpayable",
					"type": "function"
				},
				{
					"inputs": [
						{
							"internalType": "uint256",
							"name": "indmap",
							"type": "uint256"
						},
						{
							"internalType": "uint256",
							"name": "indarr",
							"type": "uint256"
						}
					],
					"name": "returnValue",
					"outputs": [
						{
							"internalType": "uint256",
							"name": "",
							"type": "uint256"
						}
					],
					"stateMutability": "view",
					"type": "function"
				}
			],
			"devdoc": {
				"kind": "dev",
				"methods": {},
				"version": 1
			},
			"evm": {
				"assembly": "    /* \"contracts/19mapping.sol\":72:622  contract demo{... */\n  mstore(0x40, 0x80)\n  callvalue\n  dup1\n  iszero\n  tag_1\n  jumpi\n  0x00\n  dup1\n  revert\ntag_1:\n  pop\n  dataSize(sub_0)\n  dup1\n  dataOffset(sub_0)\n  0x00\n  codecopy\n  0x00\n  return\nstop\n\nsub_0: assembly {\n        /* \"contracts/19mapping.sol\":72:622  contract demo{... */\n      mstore(0x40, 0x80)\n      callvalue\n      dup1\n      iszero\n      tag_1\n      jumpi\n      0x00\n      dup1\n      revert\n    tag_1:\n      pop\n      jumpi(tag_2, lt(calldatasize, 0x04))\n      shr(0xe0, calldataload(0x00))\n      dup1\n      0x4a803387\n      eq\n      tag_3\n      jumpi\n      dup1\n      0x5173bd1e\n      eq\n      tag_4\n      jumpi\n      dup1\n      0x8fe96e8d\n      eq\n      tag_5\n      jumpi\n    tag_2:\n      0x00\n      dup1\n      revert\n        /* \"contracts/19mapping.sol\":402:505  function insert(uint indmap, uint indarr, uint element) public{... */\n    tag_3:\n      tag_6\n      0x04\n      dup1\n      calldatasize\n      sub\n      dup2\n      add\n      swap1\n      tag_7\n      swap2\n      swap1\n      tag_8\n      jump\t// in\n    tag_7:\n      tag_9\n      jump\t// in\n    tag_6:\n      stop\n        /* \"contracts/19mapping.sol\":360:397  mapping(uint => uint[10]) public data */\n    tag_4:\n      tag_10\n      0x04\n      dup1\n      calldatasize\n      sub\n      dup2\n      add\n      swap1\n      tag_11\n      swap2\n      swap1\n      tag_12\n      jump\t// in\n    tag_11:\n      tag_13\n      jump\t// in\n    tag_10:\n      mload(0x40)\n      tag_14\n      swap2\n      swap1\n      tag_15\n      jump\t// in\n    tag_14:\n      mload(0x40)\n      dup1\n      swap2\n      sub\n      swap1\n      return\n        /* \"contracts/19mapping.sol\":507:617  function returnValue(uint indmap, uint indarr) public view returns(uint){... */\n    tag_5:\n      tag_16\n      0x04\n      dup1\n      calldatasize\n      sub\n      dup2\n      add\n      swap1\n      tag_17\n      swap2\n      swap1\n      tag_12\n      jump\t// in\n    tag_17:\n      tag_18\n      jump\t// in\n    tag_16:\n      mload(0x40)\n      tag_19\n      swap2\n      swap1\n      tag_15\n      jump\t// in\n    tag_19:\n      mload(0x40)\n      dup1\n      swap2\n      sub\n      swap1\n      return\n        /* \"contracts/19mapping.sol\":402:505  function insert(uint indmap, uint indarr, uint element) public{... */\n    tag_9:\n        /* \"contracts/19mapping.sol\":494:501  element */\n      dup1\n        /* \"contracts/19mapping.sol\":471:475  data */\n      0x00\n        /* \"contracts/19mapping.sol\":471:483  data[indmap] */\n      dup1\n        /* \"contracts/19mapping.sol\":476:482  indmap */\n      dup6\n        /* \"contracts/19mapping.sol\":471:483  data[indmap] */\n      dup2\n      mstore\n      0x20\n      add\n      swap1\n      dup2\n      mstore\n      0x20\n      add\n      0x00\n      keccak256\n        /* \"contracts/19mapping.sol\":484:490  indarr */\n      dup4\n        /* \"contracts/19mapping.sol\":471:491  data[indmap][indarr] */\n      0x0a\n      dup2\n      lt\n      tag_21\n      jumpi\n      tag_22\n      tag_23\n      jump\t// in\n    tag_22:\n    tag_21:\n      add\n        /* \"contracts/19mapping.sol\":471:501  data[indmap][indarr] = element */\n      dup2\n      swap1\n      sstore\n      pop\n        /* \"contracts/19mapping.sol\":402:505  function insert(uint indmap, uint indarr, uint element) public{... */\n      pop\n      pop\n      pop\n      jump\t// out\n        /* \"contracts/19mapping.sol\":360:397  mapping(uint => uint[10]) public data */\n    tag_13:\n      mstore(0x20, 0x00)\n      dup2\n      0x00\n      mstore\n      keccak256(0x00, 0x40)\n      dup2\n      0x0a\n      dup2\n      lt\n      tag_25\n      jumpi\n      0x00\n      dup1\n      revert\n    tag_25:\n      add\n      0x00\n      swap2\n      pop\n      swap2\n      pop\n      pop\n      sload\n      dup2\n      jump\t// out\n        /* \"contracts/19mapping.sol\":507:617  function returnValue(uint indmap, uint indarr) public view returns(uint){... */\n    tag_18:\n        /* \"contracts/19mapping.sol\":574:578  uint */\n      0x00\n        /* \"contracts/19mapping.sol\":593:597  data */\n      dup1\n        /* \"contracts/19mapping.sol\":593:605  data[indmap] */\n      0x00\n        /* \"contracts/19mapping.sol\":598:604  indmap */\n      dup5\n        /* \"contracts/19mapping.sol\":593:605  data[indmap] */\n      dup2\n      mstore\n      0x20\n      add\n      swap1\n      dup2\n      mstore\n      0x20\n      add\n      0x00\n      keccak256\n        /* \"contracts/19mapping.sol\":606:612  indarr */\n      dup3\n        /* \"contracts/19mapping.sol\":593:613  data[indmap][indarr] */\n      0x0a\n      dup2\n      lt\n      tag_28\n      jumpi\n      tag_29\n      tag_23\n      jump\t// in\n    tag_29:\n    tag_28:\n      add\n      sload\n        /* \"contracts/19mapping.sol\":586:613  return data[indmap][indarr] */\n      swap1\n      pop\n        /* \"contracts/19mapping.sol\":507:617  function returnValue(uint indmap, uint indarr) public view returns(uint){... */\n      swap3\n      swap2\n      pop\n      pop\n      jump\t// out\n        /* \"#utility.yul\":88:205   */\n    tag_32:\n        /* \"#utility.yul\":197:198   */\n      0x00\n        /* \"#utility.yul\":194:195   */\n      dup1\n        /* \"#utility.yul\":187:199   */\n      revert\n        /* \"#utility.yul\":334:411   */\n    tag_34:\n        /* \"#utility.yul\":371:378   */\n      0x00\n        /* \"#utility.yul\":400:405   */\n      dup2\n        /* \"#utility.yul\":389:405   */\n      swap1\n      pop\n        /* \"#utility.yul\":334:411   */\n      swap2\n      swap1\n      pop\n      jump\t// out\n        /* \"#utility.yul\":417:539   */\n    tag_35:\n        /* \"#utility.yul\":490:514   */\n      tag_44\n        /* \"#utility.yul\":508:513   */\n      dup2\n        /* \"#utility.yul\":490:514   */\n      tag_34\n      jump\t// in\n    tag_44:\n        /* \"#utility.yul\":483:488   */\n      dup2\n        /* \"#utility.yul\":480:515   */\n      eq\n        /* \"#utility.yul\":470:533   */\n      tag_45\n      jumpi\n        /* \"#utility.yul\":529:530   */\n      0x00\n        /* \"#utility.yul\":526:527   */\n      dup1\n        /* \"#utility.yul\":519:531   */\n      revert\n        /* \"#utility.yul\":470:533   */\n    tag_45:\n        /* \"#utility.yul\":417:539   */\n      pop\n      jump\t// out\n        /* \"#utility.yul\":545:684   */\n    tag_36:\n        /* \"#utility.yul\":591:596   */\n      0x00\n        /* \"#utility.yul\":629:635   */\n      dup2\n        /* \"#utility.yul\":616:636   */\n      calldataload\n        /* \"#utility.yul\":607:636   */\n      swap1\n      pop\n        /* \"#utility.yul\":645:678   */\n      tag_47\n        /* \"#utility.yul\":672:677   */\n      dup2\n        /* \"#utility.yul\":645:678   */\n      tag_35\n      jump\t// in\n    tag_47:\n        /* \"#utility.yul\":545:684   */\n      swap3\n      swap2\n      pop\n      pop\n      jump\t// out\n        /* \"#utility.yul\":690:1309   */\n    tag_8:\n        /* \"#utility.yul\":767:773   */\n      0x00\n        /* \"#utility.yul\":775:781   */\n      dup1\n        /* \"#utility.yul\":783:789   */\n      0x00\n        /* \"#utility.yul\":832:834   */\n      0x60\n        /* \"#utility.yul\":820:829   */\n      dup5\n        /* \"#utility.yul\":811:818   */\n      dup7\n        /* \"#utility.yul\":807:830   */\n      sub\n        /* \"#utility.yul\":803:835   */\n      slt\n        /* \"#utility.yul\":800:919   */\n      iszero\n      tag_49\n      jumpi\n        /* \"#utility.yul\":838:917   */\n      tag_50\n      tag_32\n      jump\t// in\n    tag_50:\n        /* \"#utility.yul\":800:919   */\n    tag_49:\n        /* \"#utility.yul\":958:959   */\n      0x00\n        /* \"#utility.yul\":983:1036   */\n      tag_51\n        /* \"#utility.yul\":1028:1035   */\n      dup7\n        /* \"#utility.yul\":1019:1025   */\n      dup3\n        /* \"#utility.yul\":1008:1017   */\n      dup8\n        /* \"#utility.yul\":1004:1026   */\n      add\n        /* \"#utility.yul\":983:1036   */\n      tag_36\n      jump\t// in\n    tag_51:\n        /* \"#utility.yul\":973:1036   */\n      swap4\n      pop\n        /* \"#utility.yul\":929:1046   */\n      pop\n        /* \"#utility.yul\":1085:1087   */\n      0x20\n        /* \"#utility.yul\":1111:1164   */\n      tag_52\n        /* \"#utility.yul\":1156:1163   */\n      dup7\n        /* \"#utility.yul\":1147:1153   */\n      dup3\n        /* \"#utility.yul\":1136:1145   */\n      dup8\n        /* \"#utility.yul\":1132:1154   */\n      add\n        /* \"#utility.yul\":1111:1164   */\n      tag_36\n      jump\t// in\n    tag_52:\n        /* \"#utility.yul\":1101:1164   */\n      swap3\n      pop\n        /* \"#utility.yul\":1056:1174   */\n      pop\n        /* \"#utility.yul\":1213:1215   */\n      0x40\n        /* \"#utility.yul\":1239:1292   */\n      tag_53\n        /* \"#utility.yul\":1284:1291   */\n      dup7\n        /* \"#utility.yul\":1275:1281   */\n      dup3\n        /* \"#utility.yul\":1264:1273   */\n      dup8\n        /* \"#utility.yul\":1260:1282   */\n      add\n        /* \"#utility.yul\":1239:1292   */\n      tag_36\n      jump\t// in\n    tag_53:\n        /* \"#utility.yul\":1229:1292   */\n      swap2\n      pop\n        /* \"#utility.yul\":1184:1302   */\n      pop\n        /* \"#utility.yul\":690:1309   */\n      swap3\n      pop\n      swap3\n      pop\n      swap3\n      jump\t// out\n        /* \"#utility.yul\":1315:1789   */\n    tag_12:\n        /* \"#utility.yul\":1383:1389   */\n      0x00\n        /* \"#utility.yul\":1391:1397   */\n      dup1\n        /* \"#utility.yul\":1440:1442   */\n      0x40\n        /* \"#utility.yul\":1428:1437   */\n      dup4\n        /* \"#utility.yul\":1419:1426   */\n      dup6\n        /* \"#utility.yul\":1415:1438   */\n      sub\n        /* \"#utility.yul\":1411:1443   */\n      slt\n        /* \"#utility.yul\":1408:1527   */\n      iszero\n      tag_55\n      jumpi\n        /* \"#utility.yul\":1446:1525   */\n      tag_56\n      tag_32\n      jump\t// in\n    tag_56:\n        /* \"#utility.yul\":1408:1527   */\n    tag_55:\n        /* \"#utility.yul\":1566:1567   */\n      0x00\n        /* \"#utility.yul\":1591:1644   */\n      tag_57\n        /* \"#utility.yul\":1636:1643   */\n      dup6\n        /* \"#utility.yul\":1627:1633   */\n      dup3\n        /* \"#utility.yul\":1616:1625   */\n      dup7\n        /* \"#utility.yul\":1612:1634   */\n      add\n        /* \"#utility.yul\":1591:1644   */\n      tag_36\n      jump\t// in\n    tag_57:\n        /* \"#utility.yul\":1581:1644   */\n      swap3\n      pop\n        /* \"#utility.yul\":1537:1654   */\n      pop\n        /* \"#utility.yul\":1693:1695   */\n      0x20\n        /* \"#utility.yul\":1719:1772   */\n      tag_58\n        /* \"#utility.yul\":1764:1771   */\n      dup6\n        /* \"#utility.yul\":1755:1761   */\n      dup3\n        /* \"#utility.yul\":1744:1753   */\n      dup7\n        /* \"#utility.yul\":1740:1762   */\n      add\n        /* \"#utility.yul\":1719:1772   */\n      tag_36\n      jump\t// in\n    tag_58:\n        /* \"#utility.yul\":1709:1772   */\n      swap2\n      pop\n        /* \"#utility.yul\":1664:1782   */\n      pop\n        /* \"#utility.yul\":1315:1789   */\n      swap3\n      pop\n      swap3\n      swap1\n      pop\n      jump\t// out\n        /* \"#utility.yul\":1795:1913   */\n    tag_37:\n        /* \"#utility.yul\":1882:1906   */\n      tag_60\n        /* \"#utility.yul\":1900:1905   */\n      dup2\n        /* \"#utility.yul\":1882:1906   */\n      tag_34\n      jump\t// in\n    tag_60:\n        /* \"#utility.yul\":1877:1880   */\n      dup3\n        /* \"#utility.yul\":1870:1907   */\n      mstore\n        /* \"#utility.yul\":1795:1913   */\n      pop\n      pop\n      jump\t// out\n        /* \"#utility.yul\":1919:2141   */\n    tag_15:\n        /* \"#utility.yul\":2012:2016   */\n      0x00\n        /* \"#utility.yul\":2050:2052   */\n      0x20\n        /* \"#utility.yul\":2039:2048   */\n      dup3\n        /* \"#utility.yul\":2035:2053   */\n      add\n        /* \"#utility.yul\":2027:2053   */\n      swap1\n      pop\n        /* \"#utility.yul\":2063:2134   */\n      tag_62\n        /* \"#utility.yul\":2131:2132   */\n      0x00\n        /* \"#utility.yul\":2120:2129   */\n      dup4\n        /* \"#utility.yul\":2116:2133   */\n      add\n        /* \"#utility.yul\":2107:2113   */\n      dup5\n        /* \"#utility.yul\":2063:2134   */\n      tag_37\n      jump\t// in\n    tag_62:\n        /* \"#utility.yul\":1919:2141   */\n      swap3\n      swap2\n      pop\n      pop\n      jump\t// out\n        /* \"#utility.yul\":2147:2327   */\n    tag_23:\n        /* \"#utility.yul\":2195:2272   */\n      0x4e487b7100000000000000000000000000000000000000000000000000000000\n        /* \"#utility.yul\":2192:2193   */\n      0x00\n        /* \"#utility.yul\":2185:2273   */\n      mstore\n        /* \"#utility.yul\":2292:2296   */\n      0x32\n        /* \"#utility.yul\":2289:2290   */\n      0x04\n        /* \"#utility.yul\":2282:2297   */\n      mstore\n        /* \"#utility.yul\":2316:2320   */\n      0x24\n        /* \"#utility.yul\":2313:2314   */\n      0x00\n        /* \"#utility.yul\":2306:2321   */\n      revert\n\n    auxdata: 0xa26469706673582212209b28861d2ce50de532526b11446c3486a1b8aad0ef4d1861ccf3f40296c24f0664736f6c63430008120033\n}\n",
				"bytecode": {
					"linkReferences": {},
					"object": "608060405234801561001057600080fd5b506102a6806100206000396000f3fe608060405234801561001057600080fd5b50600436106100415760003560e01c80634a803387146100465780635173bd1e146100625780638fe96e8d14610092575b600080fd5b610060600480360381019061005b9190610184565b6100c2565b005b61007c600480360381019061007791906101d7565b6100f1565b6040516100899190610226565b60405180910390f35b6100ac60048036038101906100a791906101d7565b610119565b6040516100b99190610226565b60405180910390f35b8060008085815260200190815260200160002083600a81106100e7576100e6610241565b5b0181905550505050565b600060205281600052604060002081600a811061010d57600080fd5b01600091509150505481565b600080600084815260200190815260200160002082600a811061013f5761013e610241565b5b0154905092915050565b600080fd5b6000819050919050565b6101618161014e565b811461016c57600080fd5b50565b60008135905061017e81610158565b92915050565b60008060006060848603121561019d5761019c610149565b5b60006101ab8682870161016f565b93505060206101bc8682870161016f565b92505060406101cd8682870161016f565b9150509250925092565b600080604083850312156101ee576101ed610149565b5b60006101fc8582860161016f565b925050602061020d8582860161016f565b9150509250929050565b6102208161014e565b82525050565b600060208201905061023b6000830184610217565b92915050565b7f4e487b7100000000000000000000000000000000000000000000000000000000600052603260045260246000fdfea26469706673582212209b28861d2ce50de532526b11446c3486a1b8aad0ef4d1861ccf3f40296c24f0664736f6c63430008120033",
					"opcodes": "PUSH1 0x80 PUSH1 0x40 MSTORE CALLVALUE DUP1 ISZERO PUSH2 0x10 JUMPI PUSH1 0x0 DUP1 REVERT JUMPDEST POP PUSH2 0x2A6 DUP1 PUSH2 0x20 PUSH1 0x0 CODECOPY PUSH1 0x0 RETURN INVALID PUSH1 0x80 PUSH1 0x40 MSTORE CALLVALUE DUP1 ISZERO PUSH2 0x10 JUMPI PUSH1 0x0 DUP1 REVERT JUMPDEST POP PUSH1 0x4 CALLDATASIZE LT PUSH2 0x41 JUMPI PUSH1 0x0 CALLDATALOAD PUSH1 0xE0 SHR DUP1 PUSH4 0x4A803387 EQ PUSH2 0x46 JUMPI DUP1 PUSH4 0x5173BD1E EQ PUSH2 0x62 JUMPI DUP1 PUSH4 0x8FE96E8D EQ PUSH2 0x92 JUMPI JUMPDEST PUSH1 0x0 DUP1 REVERT JUMPDEST PUSH2 0x60 PUSH1 0x4 DUP1 CALLDATASIZE SUB DUP2 ADD SWAP1 PUSH2 0x5B SWAP2 SWAP1 PUSH2 0x184 JUMP JUMPDEST PUSH2 0xC2 JUMP JUMPDEST STOP JUMPDEST PUSH2 0x7C PUSH1 0x4 DUP1 CALLDATASIZE SUB DUP2 ADD SWAP1 PUSH2 0x77 SWAP2 SWAP1 PUSH2 0x1D7 JUMP JUMPDEST PUSH2 0xF1 JUMP JUMPDEST PUSH1 0x40 MLOAD PUSH2 0x89 SWAP2 SWAP1 PUSH2 0x226 JUMP JUMPDEST PUSH1 0x40 MLOAD DUP1 SWAP2 SUB SWAP1 RETURN JUMPDEST PUSH2 0xAC PUSH1 0x4 DUP1 CALLDATASIZE SUB DUP2 ADD SWAP1 PUSH2 0xA7 SWAP2 SWAP1 PUSH2 0x1D7 JUMP JUMPDEST PUSH2 0x119 JUMP JUMPDEST PUSH1 0x40 MLOAD PUSH2 0xB9 SWAP2 SWAP1 PUSH2 0x226 JUMP JUMPDEST PUSH1 0x40 MLOAD DUP1 SWAP2 SUB SWAP1 RETURN JUMPDEST DUP1 PUSH1 0x0 DUP1 DUP6 DUP2 MSTORE PUSH1 0x20 ADD SWAP1 DUP2 MSTORE PUSH1 0x20 ADD PUSH1 0x0 KECCAK256 DUP4 PUSH1 0xA DUP2 LT PUSH2 0xE7 JUMPI PUSH2 0xE6 PUSH2 0x241 JUMP JUMPDEST JUMPDEST ADD DUP2 SWAP1 SSTORE POP POP POP POP JUMP JUMPDEST PUSH1 0x0 PUSH1 0x20 MSTORE DUP2 PUSH1 0x0 MSTORE PUSH1 0x40 PUSH1 0x0 KECCAK256 DUP2 PUSH1 0xA DUP2 LT PUSH2 0x10D JUMPI PUSH1 0x0 DUP1 REVERT JUMPDEST ADD PUSH1 0x0 SWAP2 POP SWAP2 POP POP SLOAD DUP2 JUMP JUMPDEST PUSH1 0x0 DUP1 PUSH1 0x0 DUP5 DUP2 MSTORE PUSH1 0x20 ADD SWAP1 DUP2 MSTORE PUSH1 0x20 ADD PUSH1 0x0 KECCAK256 DUP3 PUSH1 0xA DUP2 LT PUSH2 0x13F JUMPI PUSH2 0x13E PUSH2 0x241 JUMP JUMPDEST JUMPDEST ADD SLOAD SWAP1 POP SWAP3 SWAP2 POP POP JUMP JUMPDEST PUSH1 0x0 DUP1 REVERT JUMPDEST PUSH1 0x0 DUP2 SWAP1 POP SWAP2 SWAP1 POP JUMP JUMPDEST PUSH2 0x161 DUP2 PUSH2 0x14E JUMP JUMPDEST DUP2 EQ PUSH2 0x16C JUMPI PUSH1 0x0 DUP1 REVERT JUMPDEST POP JUMP JUMPDEST PUSH1 0x0 DUP2 CALLDATALOAD SWAP1 POP PUSH2 0x17E DUP2 PUSH2 0x158 JUMP JUMPDEST SWAP3 SWAP2 POP POP JUMP JUMPDEST PUSH1 0x0 DUP1 PUSH1 0x0 PUSH1 0x60 DUP5 DUP7 SUB SLT ISZERO PUSH2 0x19D JUMPI PUSH2 0x19C PUSH2 0x149 JUMP JUMPDEST JUMPDEST PUSH1 0x0 PUSH2 0x1AB DUP7 DUP3 DUP8 ADD PUSH2 0x16F JUMP JUMPDEST SWAP4 POP POP PUSH1 0x20 PUSH2 0x1BC DUP7 DUP3 DUP8 ADD PUSH2 0x16F JUMP JUMPDEST SWAP3 POP POP PUSH1 0x40 PUSH2 0x1CD DUP7 DUP3 DUP8 ADD PUSH2 0x16F JUMP JUMPDEST SWAP2 POP POP SWAP3 POP SWAP3 POP SWAP3 JUMP JUMPDEST PUSH1 0x0 DUP1 PUSH1 0x40 DUP4 DUP6 SUB SLT ISZERO PUSH2 0x1EE JUMPI PUSH2 0x1ED PUSH2 0x149 JUMP JUMPDEST JUMPDEST PUSH1 0x0 PUSH2 0x1FC DUP6 DUP3 DUP7 ADD PUSH2 0x16F JUMP JUMPDEST SWAP3 POP POP PUSH1 0x20 PUSH2 0x20D DUP6 DUP3 DUP7 ADD PUSH2 0x16F JUMP JUMPDEST SWAP2 POP POP SWAP3 POP SWAP3 SWAP1 POP JUMP JUMPDEST PUSH2 0x220 DUP2 PUSH2 0x14E JUMP JUMPDEST DUP3 MSTORE POP POP JUMP JUMPDEST PUSH1 0x0 PUSH1 0x20 DUP3 ADD SWAP1 POP PUSH2 0x23B PUSH1 0x0 DUP4 ADD DUP5 PUSH2 0x217 JUMP JUMPDEST SWAP3 SWAP2 POP POP JUMP JUMPDEST PUSH32 0x4E487B7100000000000000000000000000000000000000000000000000000000 PUSH1 0x0 MSTORE PUSH1 0x32 PUSH1 0x4 MSTORE PUSH1 0x24 PUSH1 0x0 REVERT INVALID LOG2 PUSH5 0x6970667358 0x22 SLT KECCAK256 SWAP12 0x28 DUP7 SAR 0x2C 0xE5 0xD 0xE5 ORIGIN MSTORE PUSH12 0x11446C3486A1B8AAD0EF4D18 PUSH2 0xCCF3 DELEGATECALL MUL SWAP7 0xC2 0x4F MOD PUSH5 0x736F6C6343 STOP ADDMOD SLT STOP CALLER "
				},
				"gasEstimates": {
					"creation": {
						"codeDepositCost": "135600",
						"executionCost": "183",
						"totalCost": "135783"
					},
					"external": {
						"data(uint256,uint256)": "infinite",
						"insert(uint256,uint256,uint256)": "infinite",
						"returnValue(uint256,uint256)": "infinite"
					}
				},
				"methodIdentifiers": {
					"data(uint256,uint256)": "5173bd1e",
					"insert(uint256,uint256,uint256)": "4a803387",
					"returnValue(uint256,uint256)": "8fe96e8d"
				}
			},
			"storageLayout": {
				"storage": [
					{
						"astId": 7,
						"contract": "contracts/19mapping.sol:demo",
						"label": "data",
						"offset": 0,
						"slot": "0",
						"type": "t_mapping(t_uint256,t_array(t_uint256)10_storage)"
					}
				],
				"types": {
					"t_array(t_uint256)10_storage": {
						"base": "t_uint256",
						"encoding": "inplace",
						"label": "uint256[10]",
						"numberOfBytes": "320"
					},
					"t_mapping(t_uint256,t_array(t_uint256)10_storage)": {
						"encoding": "mapping",
						"key": "t_uint256",
						"label": "mapping(uint256 => uint256[10])",
						"numberOfBytes": "32",
						"value": "t_array(t_uint256)10_storage"
					},
					"t_uint256": {
						"encoding": "inplace",
						"label": "uint256",
						"numberOfBytes": "32"
					}
				}
			},
			"userdoc": {
				"kind": "user",
				"methods": {},
				"version": 1
			}
		}
	}
}