{
	"contracts/20NestedMapping.sol": {
		"demo": {
			"abi": [
				{
					"inputs": [
						{
							"internalType": "address",
							"name": "",
							"type": "address"
						},
						{
							"internalType": "address",
							"name": "",
							"type": "address"
						}
					],
					"name": "data",
					"outputs": [
						{
							"internalType": "bool",
							"name": "",
							"type": "bool"
						}
					],
					"stateMutability": "view",
					"type": "function"
				},
				{
					"inputs": [
						{
							"internalType": "address",
							"name": "row",
							"type": "address"
						},
						{
							"internalType": "address",
							"name": "col",
							"type": "address"
						},
						{
							"internalType": "bool",
							"name": "element",
							"type": "bool"
						}
					],
					"name": "insert",
					"outputs": [],
					"stateMutability": "nonpayable",
					"type": "function"
				},
				{
					"inputs": [
						{
							"internalType": "address",
							"name": "row",
							"type": "address"
						},
						{
							"internalType": "address",
							"name": "col",
							"type": "address"
						}
					],
					"name": "returnValue",
					"outputs": [
						{
							"internalType": "bool",
							"name": "",
							"type": "bool"
						}
					],
					"stateMutability": "view",
					"type": "function"
				}
			],
			"devdoc": {
				"kind": "dev",
				"methods": {},
				"version": 1
			},
			"evm": {
				"assembly": "    /* \"contracts/20NestedMapping.sol\":72:355  contract demo{... */\n  mstore(0x40, 0x80)\n  callvalue\n  dup1\n  iszero\n  tag_1\n  jumpi\n  0x00\n  dup1\n  revert\ntag_1:\n  pop\n  dataSize(sub_0)\n  dup1\n  dataOffset(sub_0)\n  0x00\n  codecopy\n  0x00\n  return\nstop\n\nsub_0: assembly {\n        /* \"contracts/20NestedMapping.sol\":72:355  contract demo{... */\n      mstore(0x40, 0x80)\n      callvalue\n      dup1\n      iszero\n      tag_1\n      jumpi\n      0x00\n      dup1\n      revert\n    tag_1:\n      pop\n      jumpi(tag_2, lt(calldatasize, 0x04))\n      shr(0xe0, calldataload(0x00))\n      dup1\n      0x37823179\n      eq\n      tag_3\n      jumpi\n      dup1\n      0x48b67611\n      eq\n      tag_4\n      jumpi\n      dup1\n      0x6050d52b\n      eq\n      tag_5\n      jumpi\n    tag_2:\n      0x00\n      dup1\n      revert\n        /* \"contracts/20NestedMapping.sol\":148:244  function insert(address row, address col, bool element) public{... */\n    tag_3:\n      tag_6\n      0x04\n      dup1\n      calldatasize\n      sub\n      dup2\n      add\n      swap1\n      tag_7\n      swap2\n      swap1\n      tag_8\n      jump\t// in\n    tag_7:\n      tag_9\n      jump\t// in\n    tag_6:\n      stop\n        /* \"contracts/20NestedMapping.sol\":90:143  mapping (address=>mapping(address=>bool)) public data */\n    tag_4:\n      tag_10\n      0x04\n      dup1\n      calldatasize\n      sub\n      dup2\n      add\n      swap1\n      tag_11\n      swap2\n      swap1\n      tag_12\n      jump\t// in\n    tag_11:\n      tag_13\n      jump\t// in\n    tag_10:\n      mload(0x40)\n      tag_14\n      swap2\n      swap1\n      tag_15\n      jump\t// in\n    tag_14:\n      mload(0x40)\n      dup1\n      swap2\n      sub\n      swap1\n      return\n        /* \"contracts/20NestedMapping.sol\":246:350  function returnValue(address row, address col) public view returns(bool){... */\n    tag_5:\n      tag_16\n      0x04\n      dup1\n      calldatasize\n      sub\n      dup2\n      add\n      swap1\n      tag_17\n      swap2\n      swap1\n      tag_12\n      jump\t// in\n    tag_17:\n      tag_18\n      jump\t// in\n    tag_16:\n      mload(0x40)\n      tag_19\n      swap2\n      swap1\n      tag_15\n      jump\t// in\n    tag_19:\n      mload(0x40)\n      dup1\n      swap2\n      sub\n      swap1\n      return\n        /* \"contracts/20NestedMapping.sol\":148:244  function insert(address row, address col, bool element) public{... */\n    tag_9:\n        /* \"contracts/20NestedMapping.sol\":233:240  element */\n      dup1\n        /* \"contracts/20NestedMapping.sol\":216:220  data */\n      0x00\n        /* \"contracts/20NestedMapping.sol\":216:225  data[row] */\n      dup1\n        /* \"contracts/20NestedMapping.sol\":221:224  row */\n      dup6\n        /* \"contracts/20NestedMapping.sol\":216:225  data[row] */\n      0xffffffffffffffffffffffffffffffffffffffff\n      and\n      0xffffffffffffffffffffffffffffffffffffffff\n      and\n      dup2\n      mstore\n      0x20\n      add\n      swap1\n      dup2\n      mstore\n      0x20\n      add\n      0x00\n      keccak256\n        /* \"contracts/20NestedMapping.sol\":216:230  data[row][col] */\n      0x00\n        /* \"contracts/20NestedMapping.sol\":226:229  col */\n      dup5\n        /* \"contracts/20NestedMapping.sol\":216:230  data[row][col] */\n      0xffffffffffffffffffffffffffffffffffffffff\n      and\n      0xffffffffffffffffffffffffffffffffffffffff\n      and\n      dup2\n      mstore\n      0x20\n      add\n      swap1\n      dup2\n      mstore\n      0x20\n      add\n      0x00\n      keccak256\n      0x00\n        /* \"contracts/20NestedMapping.sol\":216:240  data[row][col] = element */\n      0x0100\n      exp\n      dup2\n      sload\n      dup2\n      0xff\n      mul\n      not\n      and\n      swap1\n      dup4\n      iszero\n      iszero\n      mul\n      or\n      swap1\n      sstore\n      pop\n        /* \"contracts/20NestedMapping.sol\":148:244  function insert(address row, address col, bool element) public{... */\n      pop\n      pop\n      pop\n      jump\t// out\n        /* \"contracts/20NestedMapping.sol\":90:143  mapping (address=>mapping(address=>bool)) public data */\n    tag_13:\n      mstore(0x20, 0x00)\n      dup2\n      0x00\n      mstore\n      mstore(0x20, keccak256(0x00, 0x40))\n      dup1\n      0x00\n      mstore\n      keccak256(0x00, 0x40)\n      0x00\n      swap2\n      pop\n      swap2\n      pop\n      swap1\n      sload\n      swap1\n      0x0100\n      exp\n      swap1\n      div\n      0xff\n      and\n      dup2\n      jump\t// out\n        /* \"contracts/20NestedMapping.sol\":246:350  function returnValue(address row, address col) public view returns(bool){... */\n    tag_18:\n        /* \"contracts/20NestedMapping.sol\":313:317  bool */\n      0x00\n        /* \"contracts/20NestedMapping.sol\":332:336  data */\n      dup1\n        /* \"contracts/20NestedMapping.sol\":332:341  data[row] */\n      0x00\n        /* \"contracts/20NestedMapping.sol\":337:340  row */\n      dup5\n        /* \"contracts/20NestedMapping.sol\":332:341  data[row] */\n      0xffffffffffffffffffffffffffffffffffffffff\n      and\n      0xffffffffffffffffffffffffffffffffffffffff\n      and\n      dup2\n      mstore\n      0x20\n      add\n      swap1\n      dup2\n      mstore\n      0x20\n      add\n      0x00\n      keccak256\n        /* \"contracts/20NestedMapping.sol\":332:346  data[row][col] */\n      0x00\n        /* \"contracts/20NestedMapping.sol\":342:345  col */\n      dup4\n        /* \"contracts/20NestedMapping.sol\":332:346  data[row][col] */\n      0xffffffffffffffffffffffffffffffffffffffff\n      and\n      0xffffffffffffffffffffffffffffffffffffffff\n      and\n      dup2\n      mstore\n      0x20\n      add\n      swap1\n      dup2\n      mstore\n      0x20\n      add\n      0x00\n      keccak256\n      0x00\n      swap1\n      sload\n      swap1\n      0x0100\n      exp\n      swap1\n      div\n      0xff\n      and\n        /* \"contracts/20NestedMapping.sol\":325:346  return data[row][col] */\n      swap1\n      pop\n        /* \"contracts/20NestedMapping.sol\":246:350  function returnValue(address row, address col) public view returns(bool){... */\n      swap3\n      swap2\n      pop\n      pop\n      jump\t// out\n        /* \"#utility.yul\":88:205   */\n    tag_23:\n        /* \"#utility.yul\":197:198   */\n      0x00\n        /* \"#utility.yul\":194:195   */\n      dup1\n        /* \"#utility.yul\":187:199   */\n      revert\n        /* \"#utility.yul\":334:460   */\n    tag_25:\n        /* \"#utility.yul\":371:378   */\n      0x00\n        /* \"#utility.yul\":411:453   */\n      0xffffffffffffffffffffffffffffffffffffffff\n        /* \"#utility.yul\":404:409   */\n      dup3\n        /* \"#utility.yul\":400:454   */\n      and\n        /* \"#utility.yul\":389:454   */\n      swap1\n      pop\n        /* \"#utility.yul\":334:460   */\n      swap2\n      swap1\n      pop\n      jump\t// out\n        /* \"#utility.yul\":466:562   */\n    tag_26:\n        /* \"#utility.yul\":503:510   */\n      0x00\n        /* \"#utility.yul\":532:556   */\n      tag_39\n        /* \"#utility.yul\":550:555   */\n      dup3\n        /* \"#utility.yul\":532:556   */\n      tag_25\n      jump\t// in\n    tag_39:\n        /* \"#utility.yul\":521:556   */\n      swap1\n      pop\n        /* \"#utility.yul\":466:562   */\n      swap2\n      swap1\n      pop\n      jump\t// out\n        /* \"#utility.yul\":568:690   */\n    tag_27:\n        /* \"#utility.yul\":641:665   */\n      tag_41\n        /* \"#utility.yul\":659:664   */\n      dup2\n        /* \"#utility.yul\":641:665   */\n      tag_26\n      jump\t// in\n    tag_41:\n        /* \"#utility.yul\":634:639   */\n      dup2\n        /* \"#utility.yul\":631:666   */\n      eq\n        /* \"#utility.yul\":621:684   */\n      tag_42\n      jumpi\n        /* \"#utility.yul\":680:681   */\n      0x00\n        /* \"#utility.yul\":677:678   */\n      dup1\n        /* \"#utility.yul\":670:682   */\n      revert\n        /* \"#utility.yul\":621:684   */\n    tag_42:\n        /* \"#utility.yul\":568:690   */\n      pop\n      jump\t// out\n        /* \"#utility.yul\":696:835   */\n    tag_28:\n        /* \"#utility.yul\":742:747   */\n      0x00\n        /* \"#utility.yul\":780:786   */\n      dup2\n        /* \"#utility.yul\":767:787   */\n      calldataload\n        /* \"#utility.yul\":758:787   */\n      swap1\n      pop\n        /* \"#utility.yul\":796:829   */\n      tag_44\n        /* \"#utility.yul\":823:828   */\n      dup2\n        /* \"#utility.yul\":796:829   */\n      tag_27\n      jump\t// in\n    tag_44:\n        /* \"#utility.yul\":696:835   */\n      swap3\n      swap2\n      pop\n      pop\n      jump\t// out\n        /* \"#utility.yul\":841:931   */\n    tag_29:\n        /* \"#utility.yul\":875:882   */\n      0x00\n        /* \"#utility.yul\":918:923   */\n      dup2\n        /* \"#utility.yul\":911:924   */\n      iszero\n        /* \"#utility.yul\":904:925   */\n      iszero\n        /* \"#utility.yul\":893:925   */\n      swap1\n      pop\n        /* \"#utility.yul\":841:931   */\n      swap2\n      swap1\n      pop\n      jump\t// out\n        /* \"#utility.yul\":937:1053   */\n    tag_30:\n        /* \"#utility.yul\":1007:1028   */\n      tag_47\n        /* \"#utility.yul\":1022:1027   */\n      dup2\n        /* \"#utility.yul\":1007:1028   */\n      tag_29\n      jump\t// in\n    tag_47:\n        /* \"#utility.yul\":1000:1005   */\n      dup2\n        /* \"#utility.yul\":997:1029   */\n      eq\n        /* \"#utility.yul\":987:1047   */\n      tag_48\n      jumpi\n        /* \"#utility.yul\":1043:1044   */\n      0x00\n        /* \"#utility.yul\":1040:1041   */\n      dup1\n        /* \"#utility.yul\":1033:1045   */\n      revert\n        /* \"#utility.yul\":987:1047   */\n    tag_48:\n        /* \"#utility.yul\":937:1053   */\n      pop\n      jump\t// out\n        /* \"#utility.yul\":1059:1192   */\n    tag_31:\n        /* \"#utility.yul\":1102:1107   */\n      0x00\n        /* \"#utility.yul\":1140:1146   */\n      dup2\n        /* \"#utility.yul\":1127:1147   */\n      calldataload\n        /* \"#utility.yul\":1118:1147   */\n      swap1\n      pop\n        /* \"#utility.yul\":1156:1186   */\n      tag_50\n        /* \"#utility.yul\":1180:1185   */\n      dup2\n        /* \"#utility.yul\":1156:1186   */\n      tag_30\n      jump\t// in\n    tag_50:\n        /* \"#utility.yul\":1059:1192   */\n      swap3\n      swap2\n      pop\n      pop\n      jump\t// out\n        /* \"#utility.yul\":1198:1811   */\n    tag_8:\n        /* \"#utility.yul\":1272:1278   */\n      0x00\n        /* \"#utility.yul\":1280:1286   */\n      dup1\n        /* \"#utility.yul\":1288:1294   */\n      0x00\n        /* \"#utility.yul\":1337:1339   */\n      0x60\n        /* \"#utility.yul\":1325:1334   */\n      dup5\n        /* \"#utility.yul\":1316:1323   */\n      dup7\n        /* \"#utility.yul\":1312:1335   */\n      sub\n        /* \"#utility.yul\":1308:1340   */\n      slt\n        /* \"#utility.yul\":1305:1424   */\n      iszero\n      tag_52\n      jumpi\n        /* \"#utility.yul\":1343:1422   */\n      tag_53\n      tag_23\n      jump\t// in\n    tag_53:\n        /* \"#utility.yul\":1305:1424   */\n    tag_52:\n        /* \"#utility.yul\":1463:1464   */\n      0x00\n        /* \"#utility.yul\":1488:1541   */\n      tag_54\n        /* \"#utility.yul\":1533:1540   */\n      dup7\n        /* \"#utility.yul\":1524:1530   */\n      dup3\n        /* \"#utility.yul\":1513:1522   */\n      dup8\n        /* \"#utility.yul\":1509:1531   */\n      add\n        /* \"#utility.yul\":1488:1541   */\n      tag_28\n      jump\t// in\n    tag_54:\n        /* \"#utility.yul\":1478:1541   */\n      swap4\n      pop\n        /* \"#utility.yul\":1434:1551   */\n      pop\n        /* \"#utility.yul\":1590:1592   */\n      0x20\n        /* \"#utility.yul\":1616:1669   */\n      tag_55\n        /* \"#utility.yul\":1661:1668   */\n      dup7\n        /* \"#utility.yul\":1652:1658   */\n      dup3\n        /* \"#utility.yul\":1641:1650   */\n      dup8\n        /* \"#utility.yul\":1637:1659   */\n      add\n        /* \"#utility.yul\":1616:1669   */\n      tag_28\n      jump\t// in\n    tag_55:\n        /* \"#utility.yul\":1606:1669   */\n      swap3\n      pop\n        /* \"#utility.yul\":1561:1679   */\n      pop\n        /* \"#utility.yul\":1718:1720   */\n      0x40\n        /* \"#utility.yul\":1744:1794   */\n      tag_56\n        /* \"#utility.yul\":1786:1793   */\n      dup7\n        /* \"#utility.yul\":1777:1783   */\n      dup3\n        /* \"#utility.yul\":1766:1775   */\n      dup8\n        /* \"#utility.yul\":1762:1784   */\n      add\n        /* \"#utility.yul\":1744:1794   */\n      tag_31\n      jump\t// in\n    tag_56:\n        /* \"#utility.yul\":1734:1794   */\n      swap2\n      pop\n        /* \"#utility.yul\":1689:1804   */\n      pop\n        /* \"#utility.yul\":1198:1811   */\n      swap3\n      pop\n      swap3\n      pop\n      swap3\n      jump\t// out\n        /* \"#utility.yul\":1817:2291   */\n    tag_12:\n        /* \"#utility.yul\":1885:1891   */\n      0x00\n        /* \"#utility.yul\":1893:1899   */\n      dup1\n        /* \"#utility.yul\":1942:1944   */\n      0x40\n        /* \"#utility.yul\":1930:1939   */\n      dup4\n        /* \"#utility.yul\":1921:1928   */\n      dup6\n        /* \"#utility.yul\":1917:1940   */\n      sub\n        /* \"#utility.yul\":1913:1945   */\n      slt\n        /* \"#utility.yul\":1910:2029   */\n      iszero\n      tag_58\n      jumpi\n        /* \"#utility.yul\":1948:2027   */\n      tag_59\n      tag_23\n      jump\t// in\n    tag_59:\n        /* \"#utility.yul\":1910:2029   */\n    tag_58:\n        /* \"#utility.yul\":2068:2069   */\n      0x00\n        /* \"#utility.yul\":2093:2146   */\n      tag_60\n        /* \"#utility.yul\":2138:2145   */\n      dup6\n        /* \"#utility.yul\":2129:2135   */\n      dup3\n        /* \"#utility.yul\":2118:2127   */\n      dup7\n        /* \"#utility.yul\":2114:2136   */\n      add\n        /* \"#utility.yul\":2093:2146   */\n      tag_28\n      jump\t// in\n    tag_60:\n        /* \"#utility.yul\":2083:2146   */\n      swap3\n      pop\n        /* \"#utility.yul\":2039:2156   */\n      pop\n        /* \"#utility.yul\":2195:2197   */\n      0x20\n        /* \"#utility.yul\":2221:2274   */\n      tag_61\n        /* \"#utility.yul\":2266:2273   */\n      dup6\n        /* \"#utility.yul\":2257:2263   */\n      dup3\n        /* \"#utility.yul\":2246:2255   */\n      dup7\n        /* \"#utility.yul\":2242:2264   */\n      add\n        /* \"#utility.yul\":2221:2274   */\n      tag_28\n      jump\t// in\n    tag_61:\n        /* \"#utility.yul\":2211:2274   */\n      swap2\n      pop\n        /* \"#utility.yul\":2166:2284   */\n      pop\n        /* \"#utility.yul\":1817:2291   */\n      swap3\n      pop\n      swap3\n      swap1\n      pop\n      jump\t// out\n        /* \"#utility.yul\":2297:2406   */\n    tag_32:\n        /* \"#utility.yul\":2378:2399   */\n      tag_63\n        /* \"#utility.yul\":2393:2398   */\n      dup2\n        /* \"#utility.yul\":2378:2399   */\n      tag_29\n      jump\t// in\n    tag_63:\n        /* \"#utility.yul\":2373:2376   */\n      dup3\n        /* \"#utility.yul\":2366:2400   */\n      mstore\n        /* \"#utility.yul\":2297:2406   */\n      pop\n      pop\n      jump\t// out\n        /* \"#utility.yul\":2412:2622   */\n    tag_15:\n        /* \"#utility.yul\":2499:2503   */\n      0x00\n        /* \"#utility.yul\":2537:2539   */\n      0x20\n        /* \"#utility.yul\":2526:2535   */\n      dup3\n        /* \"#utility.yul\":2522:2540   */\n      add\n        /* \"#utility.yul\":2514:2540   */\n      swap1\n      pop\n        /* \"#utility.yul\":2550:2615   */\n      tag_65\n        /* \"#utility.yul\":2612:2613   */\n      0x00\n        /* \"#utility.yul\":2601:2610   */\n      dup4\n        /* \"#utility.yul\":2597:2614   */\n      add\n        /* \"#utility.yul\":2588:2594   */\n      dup5\n        /* \"#utility.yul\":2550:2615   */\n      tag_32\n      jump\t// in\n    tag_65:\n        /* \"#utility.yul\":2412:2622   */\n      swap3\n      swap2\n      pop\n      pop\n      jump\t// out\n\n    auxdata: 0xa2646970667358221220f39b2989db388094a5b0136ea68edc5b6b964369291ccbb15dfdc4c71b80e44564736f6c63430008120033\n}\n",
				"bytecode": {
					"linkReferences": {},
					"object": "608060405234801561001057600080fd5b506103aa806100206000396000f3fe608060405234801561001057600080fd5b50600436106100415760003560e01c8063378231791461004657806348b67611146100625780636050d52b14610092575b600080fd5b610060600480360381019061005b91906102b7565b6100c2565b005b61007c6004803603810190610077919061030a565b61015a565b6040516100899190610359565b60405180910390f35b6100ac60048036038101906100a7919061030a565b610189565b6040516100b99190610359565b60405180910390f35b806000808573ffffffffffffffffffffffffffffffffffffffff1673ffffffffffffffffffffffffffffffffffffffff16815260200190815260200160002060008473ffffffffffffffffffffffffffffffffffffffff1673ffffffffffffffffffffffffffffffffffffffff16815260200190815260200160002060006101000a81548160ff021916908315150217905550505050565b60006020528160005260406000206020528060005260406000206000915091509054906101000a900460ff1681565b60008060008473ffffffffffffffffffffffffffffffffffffffff1673ffffffffffffffffffffffffffffffffffffffff16815260200190815260200160002060008373ffffffffffffffffffffffffffffffffffffffff1673ffffffffffffffffffffffffffffffffffffffff16815260200190815260200160002060009054906101000a900460ff16905092915050565b600080fd5b600073ffffffffffffffffffffffffffffffffffffffff82169050919050565b600061024c82610221565b9050919050565b61025c81610241565b811461026757600080fd5b50565b60008135905061027981610253565b92915050565b60008115159050919050565b6102948161027f565b811461029f57600080fd5b50565b6000813590506102b18161028b565b92915050565b6000806000606084860312156102d0576102cf61021c565b5b60006102de8682870161026a565b93505060206102ef8682870161026a565b9250506040610300868287016102a2565b9150509250925092565b600080604083850312156103215761032061021c565b5b600061032f8582860161026a565b92505060206103408582860161026a565b9150509250929050565b6103538161027f565b82525050565b600060208201905061036e600083018461034a565b9291505056fea2646970667358221220f39b2989db388094a5b0136ea68edc5b6b964369291ccbb15dfdc4c71b80e44564736f6c63430008120033",
					"opcodes": "PUSH1 0x80 PUSH1 0x40 MSTORE CALLVALUE DUP1 ISZERO PUSH2 0x10 JUMPI PUSH1 0x0 DUP1 REVERT JUMPDEST POP PUSH2 0x3AA DUP1 PUSH2 0x20 PUSH1 0x0 CODECOPY PUSH1 0x0 RETURN INVALID PUSH1 0x80 PUSH1 0x40 MSTORE CALLVALUE DUP1 ISZERO PUSH2 0x10 JUMPI PUSH1 0x0 DUP1 REVERT JUMPDEST POP PUSH1 0x4 CALLDATASIZE LT PUSH2 0x41 JUMPI PUSH1 0x0 CALLDATALOAD PUSH1 0xE0 SHR DUP1 PUSH4 0x37823179 EQ PUSH2 0x46 JUMPI DUP1 PUSH4 0x48B67611 EQ PUSH2 0x62 JUMPI DUP1 PUSH4 0x6050D52B EQ PUSH2 0x92 JUMPI JUMPDEST PUSH1 0x0 DUP1 REVERT JUMPDEST PUSH2 0x60 PUSH1 0x4 DUP1 CALLDATASIZE SUB DUP2 ADD SWAP1 PUSH2 0x5B SWAP2 SWAP1 PUSH2 0x2B7 JUMP JUMPDEST PUSH2 0xC2 JUMP JUMPDEST STOP JUMPDEST PUSH2 0x7C PUSH1 0x4 DUP1 CALLDATASIZE SUB DUP2 ADD SWAP1 PUSH2 0x77 SWAP2 SWAP1 PUSH2 0x30A JUMP JUMPDEST PUSH2 0x15A JUMP JUMPDEST PUSH1 0x40 MLOAD PUSH2 0x89 SWAP2 SWAP1 PUSH2 0x359 JUMP JUMPDEST PUSH1 0x40 MLOAD DUP1 SWAP2 SUB SWAP1 RETURN JUMPDEST PUSH2 0xAC PUSH1 0x4 DUP1 CALLDATASIZE SUB DUP2 ADD SWAP1 PUSH2 0xA7 SWAP2 SWAP1 PUSH2 0x30A JUMP JUMPDEST PUSH2 0x189 JUMP JUMPDEST PUSH1 0x40 MLOAD PUSH2 0xB9 SWAP2 SWAP1 PUSH2 0x359 JUMP JUMPDEST PUSH1 0x40 MLOAD DUP1 SWAP2 SUB SWAP1 RETURN JUMPDEST DUP1 PUSH1 0x0 DUP1 DUP6 PUSH20 0xFFFFFFFFFFFFFFFFFFFFFFFFFFFFFFFFFFFFFFFF AND PUSH20 0xFFFFFFFFFFFFFFFFFFFFFFFFFFFFFFFFFFFFFFFF AND DUP2 MSTORE PUSH1 0x20 ADD SWAP1 DUP2 MSTORE PUSH1 0x20 ADD PUSH1 0x0 KECCAK256 PUSH1 0x0 DUP5 PUSH20 0xFFFFFFFFFFFFFFFFFFFFFFFFFFFFFFFFFFFFFFFF AND PUSH20 0xFFFFFFFFFFFFFFFFFFFFFFFFFFFFFFFFFFFFFFFF AND DUP2 MSTORE PUSH1 0x20 ADD SWAP1 DUP2 MSTORE PUSH1 0x20 ADD PUSH1 0x0 KECCAK256 PUSH1 0x0 PUSH2 0x100 EXP DUP2 SLOAD DUP2 PUSH1 0xFF MUL NOT AND SWAP1 DUP4 ISZERO ISZERO MUL OR SWAP1 SSTORE POP POP POP POP JUMP JUMPDEST PUSH1 0x0 PUSH1 0x20 MSTORE DUP2 PUSH1 0x0 MSTORE PUSH1 0x40 PUSH1 0x0 KECCAK256 PUSH1 0x20 MSTORE DUP1 PUSH1 0x0 MSTORE PUSH1 0x40 PUSH1 0x0 KECCAK256 PUSH1 0x0 SWAP2 POP SWAP2 POP SWAP1 SLOAD SWAP1 PUSH2 0x100 EXP SWAP1 DIV PUSH1 0xFF AND DUP2 JUMP JUMPDEST PUSH1 0x0 DUP1 PUSH1 0x0 DUP5 PUSH20 0xFFFFFFFFFFFFFFFFFFFFFFFFFFFFFFFFFFFFFFFF AND PUSH20 0xFFFFFFFFFFFFFFFFFFFFFFFFFFFFFFFFFFFFFFFF AND DUP2 MSTORE PUSH1 0x20 ADD SWAP1 DUP2 MSTORE PUSH1 0x20 ADD PUSH1 0x0 KECCAK256 PUSH1 0x0 DUP4 PUSH20 0xFFFFFFFFFFFFFFFFFFFFFFFFFFFFFFFFFFFFFFFF AND PUSH20 0xFFFFFFFFFFFFFFFFFFFFFFFFFFFFFFFFFFFFFFFF AND DUP2 MSTORE PUSH1 0x20 ADD SWAP1 DUP2 MSTORE PUSH1 0x20 ADD PUSH1 0x0 KECCAK256 PUSH1 0x0 SWAP1 SLOAD SWAP1 PUSH2 0x100 EXP SWAP1 DIV PUSH1 0xFF AND SWAP1 POP SWAP3 SWAP2 POP POP JUMP JUMPDEST PUSH1 0x0 DUP1 REVERT JUMPDEST PUSH1 0x0 PUSH20 0xFFFFFFFFFFFFFFFFFFFFFFFFFFFFFFFFFFFFFFFF DUP3 AND SWAP1 POP SWAP2 SWAP1 POP JUMP JUMPDEST PUSH1 0x0 PUSH2 0x24C DUP3 PUSH2 0x221 JUMP JUMPDEST SWAP1 POP SWAP2 SWAP1 POP JUMP JUMPDEST PUSH2 0x25C DUP2 PUSH2 0x241 JUMP JUMPDEST DUP2 EQ PUSH2 0x267 JUMPI PUSH1 0x0 DUP1 REVERT JUMPDEST POP JUMP JUMPDEST PUSH1 0x0 DUP2 CALLDATALOAD SWAP1 POP PUSH2 0x279 DUP2 PUSH2 0x253 JUMP JUMPDEST SWAP3 SWAP2 POP POP JUMP JUMPDEST PUSH1 0x0 DUP2 ISZERO ISZERO SWAP1 POP SWAP2 SWAP1 POP JUMP JUMPDEST PUSH2 0x294 DUP2 PUSH2 0x27F JUMP JUMPDEST DUP2 EQ PUSH2 0x29F JUMPI PUSH1 0x0 DUP1 REVERT JUMPDEST POP JUMP JUMPDEST PUSH1 0x0 DUP2 CALLDATALOAD SWAP1 POP PUSH2 0x2B1 DUP2 PUSH2 0x28B JUMP JUMPDEST SWAP3 SWAP2 POP POP JUMP JUMPDEST PUSH1 0x0 DUP1 PUSH1 0x0 PUSH1 0x60 DUP5 DUP7 SUB SLT ISZERO PUSH2 0x2D0 JUMPI PUSH2 0x2CF PUSH2 0x21C JUMP JUMPDEST JUMPDEST PUSH1 0x0 PUSH2 0x2DE DUP7 DUP3 DUP8 ADD PUSH2 0x26A JUMP JUMPDEST SWAP4 POP POP PUSH1 0x20 PUSH2 0x2EF DUP7 DUP3 DUP8 ADD PUSH2 0x26A JUMP JUMPDEST SWAP3 POP POP PUSH1 0x40 PUSH2 0x300 DUP7 DUP3 DUP8 ADD PUSH2 0x2A2 JUMP JUMPDEST SWAP2 POP POP SWAP3 POP SWAP3 POP SWAP3 JUMP JUMPDEST PUSH1 0x0 DUP1 PUSH1 0x40 DUP4 DUP6 SUB SLT ISZERO PUSH2 0x321 JUMPI PUSH2 0x320 PUSH2 0x21C JUMP JUMPDEST JUMPDEST PUSH1 0x0 PUSH2 0x32F DUP6 DUP3 DUP7 ADD PUSH2 0x26A JUMP JUMPDEST SWAP3 POP POP PUSH1 0x20 PUSH2 0x340 DUP6 DUP3 DUP7 ADD PUSH2 0x26A JUMP JUMPDEST SWAP2 POP POP SWAP3 POP SWAP3 SWAP1 POP JUMP JUMPDEST PUSH2 0x353 DUP2 PUSH2 0x27F JUMP JUMPDEST DUP3 MSTORE POP POP JUMP JUMPDEST PUSH1 0x0 PUSH1 0x20 DUP3 ADD SWAP1 POP PUSH2 0x36E PUSH1 0x0 DUP4 ADD DUP5 PUSH2 0x34A JUMP JUMPDEST SWAP3 SWAP2 POP POP JUMP INVALID LOG2 PUSH5 0x6970667358 0x22 SLT KECCAK256 RETURN SWAP12 0x29 DUP10 0xDB CODESIZE DUP1 SWAP5 0xA5 0xB0 SGT PUSH15 0xA68EDC5B6B964369291CCBB15DFDC4 0xC7 SHL DUP1 0xE4 GASLIMIT PUSH5 0x736F6C6343 STOP ADDMOD SLT STOP CALLER "
				},
				"gasEstimates": {
					"creation": {
						"codeDepositCost": "187600",
						"executionCost": "232",
						"totalCost": "187832"
					},
					"external": {
						"data(address,address)": "infinite",
						"insert(address,address,bool)": "infinite",
						"returnValue(address,address)": "infinite"
					}
				},
				"methodIdentifiers": {
					"data(address,address)": "48b67611",
					"insert(address,address,bool)": "37823179",
					"returnValue(address,address)": "6050d52b"
				}
			},
			"storageLayout": {
				"storage": [
					{
						"astId": 7,
						"contract": "contracts/20NestedMapping.sol:demo",
						"label": "data",
						"offset": 0,
						"slot": "0",
						"type": "t_mapping(t_address,t_mapping(t_address,t_bool))"
					}
				],
				"types": {
					"t_address": {
						"encoding": "inplace",
						"label": "address",
						"numberOfBytes": "20"
					},
					"t_bool": {
						"encoding": "inplace",
						"label": "bool",
						"numberOfBytes": "1"
					},
					"t_mapping(t_address,t_bool)": {
						"encoding": "mapping",
						"key": "t_address",
						"label": "mapping(address => bool)",
						"numberOfBytes": "32",
						"value": "t_bool"
					},
					"t_mapping(t_address,t_mapping(t_address,t_bool))": {
						"encoding": "mapping",
						"key": "t_address",
						"label": "mapping(address => mapping(address => bool))",
						"numberOfBytes": "32",
						"value": "t_mapping(t_address,t_bool)"
					}
				}
			},
			"userdoc": {
				"kind": "user",
				"methods": {},
				"version": 1
			}
		}
	}
}